{
	"gitpopu/solidity/Napolite/contracts/token.sol": {
		"token": {
			"abi": [
				{
					"inputs": [],
					"stateMutability": "nonpayable",
					"type": "constructor"
				},
				{
					"inputs": [
						{
							"internalType": "uint256",
							"name": "requested",
							"type": "uint256"
						},
						{
							"internalType": "uint256",
							"name": "available",
							"type": "uint256"
						}
					],
					"name": "InsuficientBalance",
					"type": "error"
				},
				{
					"anonymous": false,
					"inputs": [
						{
							"indexed": true,
							"internalType": "address",
							"name": "owner",
							"type": "address"
						},
						{
							"indexed": true,
							"internalType": "address",
							"name": "spender",
							"type": "address"
						},
						{
							"indexed": false,
							"internalType": "uint256",
							"name": "value",
							"type": "uint256"
						}
					],
					"name": "Approval",
					"type": "event"
				},
				{
					"anonymous": false,
					"inputs": [
						{
							"indexed": true,
							"internalType": "address",
							"name": "from",
							"type": "address"
						},
						{
							"indexed": true,
							"internalType": "address",
							"name": "to",
							"type": "address"
						},
						{
							"indexed": false,
							"internalType": "uint256",
							"name": "value",
							"type": "uint256"
						}
					],
					"name": "Transfer",
					"type": "event"
				},
				{
					"inputs": [],
					"name": "_totalSupply",
					"outputs": [
						{
							"internalType": "uint256",
							"name": "",
							"type": "uint256"
						}
					],
					"stateMutability": "view",
					"type": "function"
				},
				{
					"inputs": [
						{
							"internalType": "address",
							"name": "owner",
							"type": "address"
						},
						{
							"internalType": "address",
							"name": "spender",
							"type": "address"
						}
					],
					"name": "allowance",
					"outputs": [
						{
							"internalType": "uint256",
							"name": "",
							"type": "uint256"
						}
					],
					"stateMutability": "view",
					"type": "function"
				},
				{
					"inputs": [
						{
							"internalType": "address",
							"name": "",
							"type": "address"
						},
						{
							"internalType": "address",
							"name": "",
							"type": "address"
						}
					],
					"name": "allowed",
					"outputs": [
						{
							"internalType": "uint256",
							"name": "",
							"type": "uint256"
						}
					],
					"stateMutability": "view",
					"type": "function"
				},
				{
					"inputs": [
						{
							"internalType": "address",
							"name": "spender",
							"type": "address"
						},
						{
							"internalType": "uint256",
							"name": "amount",
							"type": "uint256"
						}
					],
					"name": "approve",
					"outputs": [],
					"stateMutability": "nonpayable",
					"type": "function"
				},
				{
					"inputs": [
						{
							"internalType": "address",
							"name": "who",
							"type": "address"
						}
					],
					"name": "balanceOf",
					"outputs": [
						{
							"internalType": "uint256",
							"name": "",
							"type": "uint256"
						}
					],
					"stateMutability": "view",
					"type": "function"
				},
				{
					"inputs": [
						{
							"internalType": "address",
							"name": "",
							"type": "address"
						}
					],
					"name": "balances",
					"outputs": [
						{
							"internalType": "uint256",
							"name": "",
							"type": "uint256"
						}
					],
					"stateMutability": "view",
					"type": "function"
				},
				{
					"inputs": [],
					"name": "decimals",
					"outputs": [
						{
							"internalType": "uint256",
							"name": "",
							"type": "uint256"
						}
					],
					"stateMutability": "view",
					"type": "function"
				},
				{
					"inputs": [],
					"name": "minter",
					"outputs": [
						{
							"internalType": "address",
							"name": "",
							"type": "address"
						}
					],
					"stateMutability": "view",
					"type": "function"
				},
				{
					"inputs": [],
					"name": "name",
					"outputs": [
						{
							"internalType": "string",
							"name": "",
							"type": "string"
						}
					],
					"stateMutability": "view",
					"type": "function"
				},
				{
					"inputs": [],
					"name": "totalSupply",
					"outputs": [
						{
							"internalType": "uint256",
							"name": "",
							"type": "uint256"
						}
					],
					"stateMutability": "view",
					"type": "function"
				},
				{
					"inputs": [
						{
							"internalType": "address",
							"name": "receiver",
							"type": "address"
						},
						{
							"internalType": "uint256",
							"name": "amount",
							"type": "uint256"
						}
					],
					"name": "transfer",
					"outputs": [],
					"stateMutability": "nonpayable",
					"type": "function"
				},
				{
					"inputs": [
						{
							"internalType": "address",
							"name": "from",
							"type": "address"
						},
						{
							"internalType": "address",
							"name": "to",
							"type": "address"
						},
						{
							"internalType": "uint256",
							"name": "amount",
							"type": "uint256"
						}
					],
					"name": "transferFrom",
					"outputs": [],
					"stateMutability": "nonpayable",
					"type": "function"
				}
			],
			"devdoc": {
				"kind": "dev",
				"methods": {},
				"version": 1
			},
			"evm": {
				"assembly": "    /* \"gitpopu/solidity/Napolite/contracts/token.sol\":631:2645  contract token is ERC20 {... */\n  mstore(0x40, 0x80)\n    /* \"gitpopu/solidity/Napolite/contracts/token.sol\":887:989  constructor() {... */\n  callvalue\n  dup1\n  iszero\n  tag_1\n  jumpi\n  0x00\n  dup1\n  revert\ntag_1:\n  pop\n    /* \"gitpopu/solidity/Napolite/contracts/token.sol\":920:930  msg.sender */\n  caller\n    /* \"gitpopu/solidity/Napolite/contracts/token.sol\":911:917  minter */\n  0x01\n  0x00\n    /* \"gitpopu/solidity/Napolite/contracts/token.sol\":911:930  minter = msg.sender */\n  0x0100\n  exp\n  dup2\n  sload\n  dup2\n  0xffffffffffffffffffffffffffffffffffffffff\n  mul\n  not\n  and\n  swap1\n  dup4\n  0xffffffffffffffffffffffffffffffffffffffff\n  and\n  mul\n  or\n  swap1\n  sstore\n  pop\n    /* \"gitpopu/solidity/Napolite/contracts/token.sol\":940:956  name='Tok Token' */\n  mload(0x40)\n  dup1\n  0x40\n  add\n  0x40\n  mstore\n  dup1\n  0x09\n  dup2\n  mstore\n  0x20\n  add\n  0x546f6b20546f6b656e0000000000000000000000000000000000000000000000\n  dup2\n  mstore\n  pop\n    /* \"gitpopu/solidity/Napolite/contracts/token.sol\":940:944  name */\n  0x02\n    /* \"gitpopu/solidity/Napolite/contracts/token.sol\":940:956  name='Tok Token' */\n  swap1\n  dup1\n  mload\n  swap1\n  0x20\n  add\n  swap1\n  tag_4\n  swap3\n  swap2\n  swap1\n  tag_5\n  jump\t// in\ntag_4:\n  pop\n    /* \"gitpopu/solidity/Napolite/contracts/token.sol\":966:982  mint(1000000000) */\n  tag_6\n    /* \"gitpopu/solidity/Napolite/contracts/token.sol\":971:981  1000000000 */\n  0x3b9aca00\n    /* \"gitpopu/solidity/Napolite/contracts/token.sol\":966:970  mint */\n  shl(0x20, tag_7)\n    /* \"gitpopu/solidity/Napolite/contracts/token.sol\":966:982  mint(1000000000) */\n  0x20\n  shr\n  jump\t// in\ntag_6:\n    /* \"gitpopu/solidity/Napolite/contracts/token.sol\":631:2645  contract token is ERC20 {... */\n  jump(tag_8)\n    /* \"gitpopu/solidity/Napolite/contracts/token.sol\":996:1148  function mint(uint256 amount) private {... */\ntag_7:\n    /* \"gitpopu/solidity/Napolite/contracts/token.sol\":1066:1072  minter */\n  0x01\n  0x00\n  swap1\n  sload\n  swap1\n  0x0100\n  exp\n  swap1\n  div\n  0xffffffffffffffffffffffffffffffffffffffff\n  and\n    /* \"gitpopu/solidity/Napolite/contracts/token.sol\":1052:1072  msg.sender == minter */\n  0xffffffffffffffffffffffffffffffffffffffff\n  and\n    /* \"gitpopu/solidity/Napolite/contracts/token.sol\":1052:1062  msg.sender */\n  caller\n    /* \"gitpopu/solidity/Napolite/contracts/token.sol\":1052:1072  msg.sender == minter */\n  0xffffffffffffffffffffffffffffffffffffffff\n  and\n  eq\n    /* \"gitpopu/solidity/Napolite/contracts/token.sol\":1044:1073  require(msg.sender == minter) */\n  tag_10\n  jumpi\n  0x00\n  dup1\n  revert\ntag_10:\n    /* \"gitpopu/solidity/Napolite/contracts/token.sol\":1103:1109  amount */\n  dup1\n    /* \"gitpopu/solidity/Napolite/contracts/token.sol\":1083:1091  balances */\n  0x04\n    /* \"gitpopu/solidity/Napolite/contracts/token.sol\":1083:1099  balances[minter] */\n  0x00\n    /* \"gitpopu/solidity/Napolite/contracts/token.sol\":1092:1098  minter */\n  0x01\n  0x00\n  swap1\n  sload\n  swap1\n  0x0100\n  exp\n  swap1\n  div\n  0xffffffffffffffffffffffffffffffffffffffff\n  and\n    /* \"gitpopu/solidity/Napolite/contracts/token.sol\":1083:1099  balances[minter] */\n  0xffffffffffffffffffffffffffffffffffffffff\n  and\n  0xffffffffffffffffffffffffffffffffffffffff\n  and\n  dup2\n  mstore\n  0x20\n  add\n  swap1\n  dup2\n  mstore\n  0x20\n  add\n  0x00\n  keccak256\n  0x00\n    /* \"gitpopu/solidity/Napolite/contracts/token.sol\":1083:1109  balances[minter] += amount */\n  dup3\n  dup3\n  sload\n  tag_11\n  swap2\n  swap1\n  tag_12\n  jump\t// in\ntag_11:\n  swap3\n  pop\n  pop\n  dup2\n  swap1\n  sstore\n  pop\n    /* \"gitpopu/solidity/Napolite/contracts/token.sol\":1135:1141  amount */\n  dup1\n    /* \"gitpopu/solidity/Napolite/contracts/token.sol\":1119:1131  _totalSupply */\n  0x00\n  dup1\n    /* \"gitpopu/solidity/Napolite/contracts/token.sol\":1119:1141  _totalSupply += amount */\n  dup3\n  dup3\n  sload\n  tag_13\n  swap2\n  swap1\n  tag_12\n  jump\t// in\ntag_13:\n  swap3\n  pop\n  pop\n  dup2\n  swap1\n  sstore\n  pop\n    /* \"gitpopu/solidity/Napolite/contracts/token.sol\":996:1148  function mint(uint256 amount) private {... */\n  pop\n  jump\t// out\n    /* \"gitpopu/solidity/Napolite/contracts/token.sol\":631:2645  contract token is ERC20 {... */\ntag_5:\n  dup3\n  dup1\n  sload\n  tag_14\n  swap1\n  tag_15\n  jump\t// in\ntag_14:\n  swap1\n  0x00\n  mstore\n  keccak256(0x00, 0x20)\n  swap1\n  0x1f\n  add\n  0x20\n  swap1\n  div\n  dup2\n  add\n  swap3\n  dup3\n  tag_17\n  jumpi\n  0x00\n  dup6\n  sstore\n  jump(tag_16)\ntag_17:\n  dup3\n  0x1f\n  lt\n  tag_18\n  jumpi\n  dup1\n  mload\n  not(0xff)\n  and\n  dup4\n  dup1\n  add\n  or\n  dup6\n  sstore\n  jump(tag_16)\ntag_18:\n  dup3\n  dup1\n  add\n  0x01\n  add\n  dup6\n  sstore\n  dup3\n  iszero\n  tag_16\n  jumpi\n  swap2\n  dup3\n  add\ntag_19:\n  dup3\n  dup2\n  gt\n  iszero\n  tag_20\n  jumpi\n  dup3\n  mload\n  dup3\n  sstore\n  swap2\n  0x20\n  add\n  swap2\n  swap1\n  0x01\n  add\n  swap1\n  jump(tag_19)\ntag_20:\ntag_16:\n  pop\n  swap1\n  pop\n  tag_21\n  swap2\n  swap1\n  tag_22\n  jump\t// in\ntag_21:\n  pop\n  swap1\n  jump\t// out\ntag_22:\ntag_23:\n  dup1\n  dup3\n  gt\n  iszero\n  tag_24\n  jumpi\n  0x00\n  dup2\n  0x00\n  swap1\n  sstore\n  pop\n  0x01\n  add\n  jump(tag_23)\ntag_24:\n  pop\n  swap1\n  jump\t// out\n    /* \"#utility.yul\":7:312   */\ntag_12:\n    /* \"#utility.yul\":47:50   */\n  0x00\n    /* \"#utility.yul\":66:86   */\n  tag_27\n    /* \"#utility.yul\":84:85   */\n  dup3\n    /* \"#utility.yul\":66:86   */\n  tag_28\n  jump\t// in\ntag_27:\n    /* \"#utility.yul\":61:86   */\n  swap2\n  pop\n    /* \"#utility.yul\":100:120   */\n  tag_29\n    /* \"#utility.yul\":118:119   */\n  dup4\n    /* \"#utility.yul\":100:120   */\n  tag_28\n  jump\t// in\ntag_29:\n    /* \"#utility.yul\":95:120   */\n  swap3\n  pop\n    /* \"#utility.yul\":254:255   */\n  dup3\n    /* \"#utility.yul\":186:252   */\n  0xffffffffffffffffffffffffffffffffffffffffffffffffffffffffffffffff\n    /* \"#utility.yul\":182:256   */\n  sub\n    /* \"#utility.yul\":179:180   */\n  dup3\n    /* \"#utility.yul\":176:257   */\n  gt\n    /* \"#utility.yul\":173:280   */\n  iszero\n  tag_30\n  jumpi\n    /* \"#utility.yul\":260:278   */\n  tag_31\n  tag_32\n  jump\t// in\ntag_31:\n    /* \"#utility.yul\":173:280   */\ntag_30:\n    /* \"#utility.yul\":304:305   */\n  dup3\n    /* \"#utility.yul\":301:302   */\n  dup3\n    /* \"#utility.yul\":297:306   */\n  add\n    /* \"#utility.yul\":290:306   */\n  swap1\n  pop\n    /* \"#utility.yul\":7:312   */\n  swap3\n  swap2\n  pop\n  pop\n  jump\t// out\n    /* \"#utility.yul\":318:395   */\ntag_28:\n    /* \"#utility.yul\":355:362   */\n  0x00\n    /* \"#utility.yul\":384:389   */\n  dup2\n    /* \"#utility.yul\":373:389   */\n  swap1\n  pop\n    /* \"#utility.yul\":318:395   */\n  swap2\n  swap1\n  pop\n  jump\t// out\n    /* \"#utility.yul\":401:721   */\ntag_15:\n    /* \"#utility.yul\":445:451   */\n  0x00\n    /* \"#utility.yul\":482:483   */\n  0x02\n    /* \"#utility.yul\":476:480   */\n  dup3\n    /* \"#utility.yul\":472:484   */\n  div\n    /* \"#utility.yul\":462:484   */\n  swap1\n  pop\n    /* \"#utility.yul\":529:530   */\n  0x01\n    /* \"#utility.yul\":523:527   */\n  dup3\n    /* \"#utility.yul\":519:531   */\n  and\n    /* \"#utility.yul\":550:568   */\n  dup1\n    /* \"#utility.yul\":540:621   */\n  tag_35\n  jumpi\n    /* \"#utility.yul\":606:610   */\n  0x7f\n    /* \"#utility.yul\":598:604   */\n  dup3\n    /* \"#utility.yul\":594:611   */\n  and\n    /* \"#utility.yul\":584:611   */\n  swap2\n  pop\n    /* \"#utility.yul\":540:621   */\ntag_35:\n    /* \"#utility.yul\":668:670   */\n  0x20\n    /* \"#utility.yul\":660:666   */\n  dup3\n    /* \"#utility.yul\":657:671   */\n  lt\n    /* \"#utility.yul\":637:655   */\n  dup2\n    /* \"#utility.yul\":634:672   */\n  eq\n    /* \"#utility.yul\":631:715   */\n  iszero\n  tag_36\n  jumpi\n    /* \"#utility.yul\":687:705   */\n  tag_37\n  tag_38\n  jump\t// in\ntag_37:\n    /* \"#utility.yul\":631:715   */\ntag_36:\n    /* \"#utility.yul\":452:721   */\n  pop\n    /* \"#utility.yul\":401:721   */\n  swap2\n  swap1\n  pop\n  jump\t// out\n    /* \"#utility.yul\":727:907   */\ntag_32:\n    /* \"#utility.yul\":775:852   */\n  0x4e487b7100000000000000000000000000000000000000000000000000000000\n    /* \"#utility.yul\":772:773   */\n  0x00\n    /* \"#utility.yul\":765:853   */\n  mstore\n    /* \"#utility.yul\":872:876   */\n  0x11\n    /* \"#utility.yul\":869:870   */\n  0x04\n    /* \"#utility.yul\":862:877   */\n  mstore\n    /* \"#utility.yul\":896:900   */\n  0x24\n    /* \"#utility.yul\":893:894   */\n  0x00\n    /* \"#utility.yul\":886:901   */\n  revert\n    /* \"#utility.yul\":913:1093   */\ntag_38:\n    /* \"#utility.yul\":961:1038   */\n  0x4e487b7100000000000000000000000000000000000000000000000000000000\n    /* \"#utility.yul\":958:959   */\n  0x00\n    /* \"#utility.yul\":951:1039   */\n  mstore\n    /* \"#utility.yul\":1058:1062   */\n  0x22\n    /* \"#utility.yul\":1055:1056   */\n  0x04\n    /* \"#utility.yul\":1048:1063   */\n  mstore\n    /* \"#utility.yul\":1082:1086   */\n  0x24\n    /* \"#utility.yul\":1079:1080   */\n  0x00\n    /* \"#utility.yul\":1072:1087   */\n  revert\n    /* \"gitpopu/solidity/Napolite/contracts/token.sol\":631:2645  contract token is ERC20 {... */\ntag_8:\n  dataSize(sub_0)\n  dup1\n  dataOffset(sub_0)\n  0x00\n  codecopy\n  0x00\n  return\nstop\n\nsub_0: assembly {\n        /* \"gitpopu/solidity/Napolite/contracts/token.sol\":631:2645  contract token is ERC20 {... */\n      mstore(0x40, 0x80)\n      callvalue\n      dup1\n      iszero\n      tag_1\n      jumpi\n      0x00\n      dup1\n      revert\n    tag_1:\n      pop\n      jumpi(tag_2, lt(calldatasize, 0x04))\n      shr(0xe0, calldataload(0x00))\n      dup1\n      0x313ce567\n      gt\n      tag_15\n      jumpi\n      dup1\n      0x313ce567\n      eq\n      tag_9\n      jumpi\n      dup1\n      0x3eaaf86b\n      eq\n      tag_10\n      jumpi\n      dup1\n      0x5c658165\n      eq\n      tag_11\n      jumpi\n      dup1\n      0x70a08231\n      eq\n      tag_12\n      jumpi\n      dup1\n      0xa9059cbb\n      eq\n      tag_13\n      jumpi\n      dup1\n      0xdd62ed3e\n      eq\n      tag_14\n      jumpi\n      jump(tag_2)\n    tag_15:\n      dup1\n      0x06fdde03\n      eq\n      tag_3\n      jumpi\n      dup1\n      0x07546172\n      eq\n      tag_4\n      jumpi\n      dup1\n      0x095ea7b3\n      eq\n      tag_5\n      jumpi\n      dup1\n      0x18160ddd\n      eq\n      tag_6\n      jumpi\n      dup1\n      0x23b872dd\n      eq\n      tag_7\n      jumpi\n      dup1\n      0x27e235e3\n      eq\n      tag_8\n      jumpi\n    tag_2:\n      0x00\n      dup1\n      revert\n        /* \"gitpopu/solidity/Napolite/contracts/token.sol\":718:736  string public name */\n    tag_3:\n      tag_16\n      tag_17\n      jump\t// in\n    tag_16:\n      mload(0x40)\n      tag_18\n      swap2\n      swap1\n      tag_19\n      jump\t// in\n    tag_18:\n      mload(0x40)\n      dup1\n      swap2\n      sub\n      swap1\n      return\n        /* \"gitpopu/solidity/Napolite/contracts/token.sol\":691:712  address public minter */\n    tag_4:\n      tag_20\n      tag_21\n      jump\t// in\n    tag_20:\n      mload(0x40)\n      tag_22\n      swap2\n      swap1\n      tag_23\n      jump\t// in\n    tag_22:\n      mload(0x40)\n      dup1\n      swap2\n      sub\n      swap1\n      return\n        /* \"gitpopu/solidity/Napolite/contracts/token.sol\":2302:2500  function approve(address spender, uint amount) public override{... */\n    tag_5:\n      tag_24\n      0x04\n      dup1\n      calldatasize\n      sub\n      dup2\n      add\n      swap1\n      tag_25\n      swap2\n      swap1\n      tag_26\n      jump\t// in\n    tag_25:\n      tag_27\n      jump\t// in\n    tag_24:\n      stop\n        /* \"gitpopu/solidity/Napolite/contracts/token.sol\":2094:2187  function totalSupply() public view override returns(uint){... */\n    tag_6:\n      tag_28\n      tag_29\n      jump\t// in\n    tag_28:\n      mload(0x40)\n      tag_30\n      swap2\n      swap1\n      tag_31\n      jump\t// in\n    tag_30:\n      mload(0x40)\n      dup1\n      swap2\n      sub\n      swap1\n      return\n        /* \"gitpopu/solidity/Napolite/contracts/token.sol\":1629:2088  function transferFrom(address from, address to, uint amount) public override{... */\n    tag_7:\n      tag_32\n      0x04\n      dup1\n      calldatasize\n      sub\n      dup2\n      add\n      swap1\n      tag_33\n      swap2\n      swap1\n      tag_34\n      jump\t// in\n    tag_33:\n      tag_35\n      jump\t// in\n    tag_32:\n      stop\n        /* \"gitpopu/solidity/Napolite/contracts/token.sol\":769:812  mapping(address => uint256) public balances */\n    tag_8:\n      tag_36\n      0x04\n      dup1\n      calldatasize\n      sub\n      dup2\n      add\n      swap1\n      tag_37\n      swap2\n      swap1\n      tag_38\n      jump\t// in\n    tag_37:\n      tag_39\n      jump\t// in\n    tag_36:\n      mload(0x40)\n      tag_40\n      swap2\n      swap1\n      tag_31\n      jump\t// in\n    tag_40:\n      mload(0x40)\n      dup1\n      swap2\n      sub\n      swap1\n      return\n        /* \"gitpopu/solidity/Napolite/contracts/token.sol\":742:762  uint public decimals */\n    tag_9:\n      tag_41\n      tag_42\n      jump\t// in\n    tag_41:\n      mload(0x40)\n      tag_43\n      swap2\n      swap1\n      tag_31\n      jump\t// in\n    tag_43:\n      mload(0x40)\n      dup1\n      swap2\n      sub\n      swap1\n      return\n        /* \"gitpopu/solidity/Napolite/contracts/token.sol\":661:685  uint public _totalSupply */\n    tag_10:\n      tag_44\n      tag_45\n      jump\t// in\n    tag_44:\n      mload(0x40)\n      tag_46\n      swap2\n      swap1\n      tag_31\n      jump\t// in\n    tag_46:\n      mload(0x40)\n      dup1\n      swap2\n      sub\n      swap1\n      return\n        /* \"gitpopu/solidity/Napolite/contracts/token.sol\":818:879  mapping (address => mapping (address => uint)) public allowed */\n    tag_11:\n      tag_47\n      0x04\n      dup1\n      calldatasize\n      sub\n      dup2\n      add\n      swap1\n      tag_48\n      swap2\n      swap1\n      tag_49\n      jump\t// in\n    tag_48:\n      tag_50\n      jump\t// in\n    tag_47:\n      mload(0x40)\n      tag_51\n      swap2\n      swap1\n      tag_31\n      jump\t// in\n    tag_51:\n      mload(0x40)\n      dup1\n      swap2\n      sub\n      swap1\n      return\n        /* \"gitpopu/solidity/Napolite/contracts/token.sol\":2193:2296  function balanceOf(address who) public view override returns(uint){... */\n    tag_12:\n      tag_52\n      0x04\n      dup1\n      calldatasize\n      sub\n      dup2\n      add\n      swap1\n      tag_53\n      swap2\n      swap1\n      tag_38\n      jump\t// in\n    tag_53:\n      tag_54\n      jump\t// in\n    tag_52:\n      mload(0x40)\n      tag_55\n      swap2\n      swap1\n      tag_31\n      jump\t// in\n    tag_55:\n      mload(0x40)\n      dup1\n      swap2\n      sub\n      swap1\n      return\n        /* \"gitpopu/solidity/Napolite/contracts/token.sol\":1223:1623  function transfer(address receiver, uint256 amount) public override{... */\n    tag_13:\n      tag_56\n      0x04\n      dup1\n      calldatasize\n      sub\n      dup2\n      add\n      swap1\n      tag_57\n      swap2\n      swap1\n      tag_26\n      jump\t// in\n    tag_57:\n      tag_58\n      jump\t// in\n    tag_56:\n      stop\n        /* \"gitpopu/solidity/Napolite/contracts/token.sol\":2506:2642  function allowance(address owner, address spender) public view override returns(uint256) {... */\n    tag_14:\n      tag_59\n      0x04\n      dup1\n      calldatasize\n      sub\n      dup2\n      add\n      swap1\n      tag_60\n      swap2\n      swap1\n      tag_49\n      jump\t// in\n    tag_60:\n      tag_61\n      jump\t// in\n    tag_59:\n      mload(0x40)\n      tag_62\n      swap2\n      swap1\n      tag_31\n      jump\t// in\n    tag_62:\n      mload(0x40)\n      dup1\n      swap2\n      sub\n      swap1\n      return\n        /* \"gitpopu/solidity/Napolite/contracts/token.sol\":718:736  string public name */\n    tag_17:\n      0x02\n      dup1\n      sload\n      tag_63\n      swap1\n      tag_64\n      jump\t// in\n    tag_63:\n      dup1\n      0x1f\n      add\n      0x20\n      dup1\n      swap2\n      div\n      mul\n      0x20\n      add\n      mload(0x40)\n      swap1\n      dup2\n      add\n      0x40\n      mstore\n      dup1\n      swap3\n      swap2\n      swap1\n      dup2\n      dup2\n      mstore\n      0x20\n      add\n      dup3\n      dup1\n      sload\n      tag_65\n      swap1\n      tag_64\n      jump\t// in\n    tag_65:\n      dup1\n      iszero\n      tag_66\n      jumpi\n      dup1\n      0x1f\n      lt\n      tag_67\n      jumpi\n      0x0100\n      dup1\n      dup4\n      sload\n      div\n      mul\n      dup4\n      mstore\n      swap2\n      0x20\n      add\n      swap2\n      jump(tag_66)\n    tag_67:\n      dup3\n      add\n      swap2\n      swap1\n      0x00\n      mstore\n      keccak256(0x00, 0x20)\n      swap1\n    tag_68:\n      dup2\n      sload\n      dup2\n      mstore\n      swap1\n      0x01\n      add\n      swap1\n      0x20\n      add\n      dup1\n      dup4\n      gt\n      tag_68\n      jumpi\n      dup3\n      swap1\n      sub\n      0x1f\n      and\n      dup3\n      add\n      swap2\n    tag_66:\n      pop\n      pop\n      pop\n      pop\n      pop\n      dup2\n      jump\t// out\n        /* \"gitpopu/solidity/Napolite/contracts/token.sol\":691:712  address public minter */\n    tag_21:\n      0x01\n      0x00\n      swap1\n      sload\n      swap1\n      0x0100\n      exp\n      swap1\n      div\n      0xffffffffffffffffffffffffffffffffffffffff\n      and\n      dup2\n      jump\t// out\n        /* \"gitpopu/solidity/Napolite/contracts/token.sol\":2302:2500  function approve(address spender, uint amount) public override{... */\n    tag_27:\n        /* \"gitpopu/solidity/Napolite/contracts/token.sol\":2392:2393  0 */\n      0x00\n        /* \"gitpopu/solidity/Napolite/contracts/token.sol\":2382:2388  amount */\n      dup2\n        /* \"gitpopu/solidity/Napolite/contracts/token.sol\":2382:2393  amount != 0 */\n      eq\n      iszero\n        /* \"gitpopu/solidity/Napolite/contracts/token.sol\":2374:2394  require(amount != 0) */\n      tag_70\n      jumpi\n      0x00\n      dup1\n      revert\n    tag_70:\n        /* \"gitpopu/solidity/Napolite/contracts/token.sol\":2435:2441  amount */\n      dup1\n        /* \"gitpopu/solidity/Napolite/contracts/token.sol\":2404:2411  allowed */\n      0x05\n        /* \"gitpopu/solidity/Napolite/contracts/token.sol\":2404:2423  allowed[msg.sender] */\n      0x00\n        /* \"gitpopu/solidity/Napolite/contracts/token.sol\":2412:2422  msg.sender */\n      caller\n        /* \"gitpopu/solidity/Napolite/contracts/token.sol\":2404:2423  allowed[msg.sender] */\n      0xffffffffffffffffffffffffffffffffffffffff\n      and\n      0xffffffffffffffffffffffffffffffffffffffff\n      and\n      dup2\n      mstore\n      0x20\n      add\n      swap1\n      dup2\n      mstore\n      0x20\n      add\n      0x00\n      keccak256\n        /* \"gitpopu/solidity/Napolite/contracts/token.sol\":2404:2432  allowed[msg.sender][spender] */\n      0x00\n        /* \"gitpopu/solidity/Napolite/contracts/token.sol\":2424:2431  spender */\n      dup5\n        /* \"gitpopu/solidity/Napolite/contracts/token.sol\":2404:2432  allowed[msg.sender][spender] */\n      0xffffffffffffffffffffffffffffffffffffffff\n      and\n      0xffffffffffffffffffffffffffffffffffffffff\n      and\n      dup2\n      mstore\n      0x20\n      add\n      swap1\n      dup2\n      mstore\n      0x20\n      add\n      0x00\n      keccak256\n        /* \"gitpopu/solidity/Napolite/contracts/token.sol\":2404:2441  allowed[msg.sender][spender] = amount */\n      dup2\n      swap1\n      sstore\n      pop\n        /* \"gitpopu/solidity/Napolite/contracts/token.sol\":2477:2484  spender */\n      dup2\n        /* \"gitpopu/solidity/Napolite/contracts/token.sol\":2456:2493  Approval(msg.sender, spender, amount) */\n      0xffffffffffffffffffffffffffffffffffffffff\n      and\n        /* \"gitpopu/solidity/Napolite/contracts/token.sol\":2465:2475  msg.sender */\n      caller\n        /* \"gitpopu/solidity/Napolite/contracts/token.sol\":2456:2493  Approval(msg.sender, spender, amount) */\n      0xffffffffffffffffffffffffffffffffffffffff\n      and\n      0x8c5be1e5ebec7d5bd14f71427d1e84f3dd0314c0f7b2291e5b200ac8c7c3b925\n        /* \"gitpopu/solidity/Napolite/contracts/token.sol\":2486:2492  amount */\n      dup4\n        /* \"gitpopu/solidity/Napolite/contracts/token.sol\":2456:2493  Approval(msg.sender, spender, amount) */\n      mload(0x40)\n      tag_71\n      swap2\n      swap1\n      tag_31\n      jump\t// in\n    tag_71:\n      mload(0x40)\n      dup1\n      swap2\n      sub\n      swap1\n      log3\n        /* \"gitpopu/solidity/Napolite/contracts/token.sol\":2302:2500  function approve(address spender, uint amount) public override{... */\n      pop\n      pop\n      jump\t// out\n        /* \"gitpopu/solidity/Napolite/contracts/token.sol\":2094:2187  function totalSupply() public view override returns(uint){... */\n    tag_29:\n        /* \"gitpopu/solidity/Napolite/contracts/token.sol\":2146:2150  uint */\n      0x00\n        /* \"gitpopu/solidity/Napolite/contracts/token.sol\":2168:2180  _totalSupply */\n      dup1\n      sload\n        /* \"gitpopu/solidity/Napolite/contracts/token.sol\":2161:2180  return _totalSupply */\n      swap1\n      pop\n        /* \"gitpopu/solidity/Napolite/contracts/token.sol\":2094:2187  function totalSupply() public view override returns(uint){... */\n      swap1\n      jump\t// out\n        /* \"gitpopu/solidity/Napolite/contracts/token.sol\":1629:2088  function transferFrom(address from, address to, uint amount) public override{... */\n    tag_35:\n        /* \"gitpopu/solidity/Napolite/contracts/token.sol\":1715:1735  uint allowanceAmount */\n      0x00\n        /* \"gitpopu/solidity/Napolite/contracts/token.sol\":1738:1745  allowed */\n      0x05\n        /* \"gitpopu/solidity/Napolite/contracts/token.sol\":1738:1751  allowed[from] */\n      0x00\n        /* \"gitpopu/solidity/Napolite/contracts/token.sol\":1746:1750  from */\n      dup6\n        /* \"gitpopu/solidity/Napolite/contracts/token.sol\":1738:1751  allowed[from] */\n      0xffffffffffffffffffffffffffffffffffffffff\n      and\n      0xffffffffffffffffffffffffffffffffffffffff\n      and\n      dup2\n      mstore\n      0x20\n      add\n      swap1\n      dup2\n      mstore\n      0x20\n      add\n      0x00\n      keccak256\n        /* \"gitpopu/solidity/Napolite/contracts/token.sol\":1738:1763  allowed[from][msg.sender] */\n      0x00\n        /* \"gitpopu/solidity/Napolite/contracts/token.sol\":1752:1762  msg.sender */\n      caller\n        /* \"gitpopu/solidity/Napolite/contracts/token.sol\":1738:1763  allowed[from][msg.sender] */\n      0xffffffffffffffffffffffffffffffffffffffff\n      and\n      0xffffffffffffffffffffffffffffffffffffffff\n      and\n      dup2\n      mstore\n      0x20\n      add\n      swap1\n      dup2\n      mstore\n      0x20\n      add\n      0x00\n      keccak256\n      sload\n        /* \"gitpopu/solidity/Napolite/contracts/token.sol\":1715:1763  uint allowanceAmount = allowed[from][msg.sender] */\n      swap1\n      pop\n        /* \"gitpopu/solidity/Napolite/contracts/token.sol\":1796:1802  amount */\n      dup2\n        /* \"gitpopu/solidity/Napolite/contracts/token.sol\":1778:1793  allowanceAmount */\n      dup2\n        /* \"gitpopu/solidity/Napolite/contracts/token.sol\":1778:1802  allowanceAmount < amount */\n      lt\n        /* \"gitpopu/solidity/Napolite/contracts/token.sol\":1778:1829  allowanceAmount < amount || amount > balances[from] */\n      dup1\n      tag_74\n      jumpi\n      pop\n        /* \"gitpopu/solidity/Napolite/contracts/token.sol\":1815:1823  balances */\n      0x04\n        /* \"gitpopu/solidity/Napolite/contracts/token.sol\":1815:1829  balances[from] */\n      0x00\n        /* \"gitpopu/solidity/Napolite/contracts/token.sol\":1824:1828  from */\n      dup6\n        /* \"gitpopu/solidity/Napolite/contracts/token.sol\":1815:1829  balances[from] */\n      0xffffffffffffffffffffffffffffffffffffffff\n      and\n      0xffffffffffffffffffffffffffffffffffffffff\n      and\n      dup2\n      mstore\n      0x20\n      add\n      swap1\n      dup2\n      mstore\n      0x20\n      add\n      0x00\n      keccak256\n      sload\n        /* \"gitpopu/solidity/Napolite/contracts/token.sol\":1806:1812  amount */\n      dup3\n        /* \"gitpopu/solidity/Napolite/contracts/token.sol\":1806:1829  amount > balances[from] */\n      gt\n        /* \"gitpopu/solidity/Napolite/contracts/token.sol\":1778:1829  allowanceAmount < amount || amount > balances[from] */\n    tag_74:\n        /* \"gitpopu/solidity/Napolite/contracts/token.sol\":1774:1975  if (allowanceAmount < amount || amount > balances[from]) {... */\n      iszero\n      tag_75\n      jumpi\n        /* \"gitpopu/solidity/Napolite/contracts/token.sol\":1900:1906  amount */\n      dup2\n        /* \"gitpopu/solidity/Napolite/contracts/token.sol\":1935:1943  balances */\n      0x04\n        /* \"gitpopu/solidity/Napolite/contracts/token.sol\":1935:1949  balances[from] */\n      0x00\n        /* \"gitpopu/solidity/Napolite/contracts/token.sol\":1944:1948  from */\n      dup7\n        /* \"gitpopu/solidity/Napolite/contracts/token.sol\":1935:1949  balances[from] */\n      0xffffffffffffffffffffffffffffffffffffffff\n      and\n      0xffffffffffffffffffffffffffffffffffffffff\n      and\n      dup2\n      mstore\n      0x20\n      add\n      swap1\n      dup2\n      mstore\n      0x20\n      add\n      0x00\n      keccak256\n      sload\n        /* \"gitpopu/solidity/Napolite/contracts/token.sol\":1852:1964  InsuficientBalance({... */\n      mload(0x40)\n      0xec0ae9cf00000000000000000000000000000000000000000000000000000000\n      dup2\n      mstore\n      0x04\n      add\n      tag_76\n      swap3\n      swap2\n      swap1\n      tag_77\n      jump\t// in\n    tag_76:\n      mload(0x40)\n      dup1\n      swap2\n      sub\n      swap1\n      revert\n        /* \"gitpopu/solidity/Napolite/contracts/token.sol\":1774:1975  if (allowanceAmount < amount || amount > balances[from]) {... */\n    tag_75:\n        /* \"gitpopu/solidity/Napolite/contracts/token.sol\":2002:2008  amount */\n      dup2\n        /* \"gitpopu/solidity/Napolite/contracts/token.sol\":1984:1992  balances */\n      0x04\n        /* \"gitpopu/solidity/Napolite/contracts/token.sol\":1984:1998  balances[from] */\n      0x00\n        /* \"gitpopu/solidity/Napolite/contracts/token.sol\":1993:1997  from */\n      dup7\n        /* \"gitpopu/solidity/Napolite/contracts/token.sol\":1984:1998  balances[from] */\n      0xffffffffffffffffffffffffffffffffffffffff\n      and\n      0xffffffffffffffffffffffffffffffffffffffff\n      and\n      dup2\n      mstore\n      0x20\n      add\n      swap1\n      dup2\n      mstore\n      0x20\n      add\n      0x00\n      keccak256\n      0x00\n        /* \"gitpopu/solidity/Napolite/contracts/token.sol\":1984:2008  balances[from] -= amount */\n      dup3\n      dup3\n      sload\n      tag_78\n      swap2\n      swap1\n      tag_79\n      jump\t// in\n    tag_78:\n      swap3\n      pop\n      pop\n      dup2\n      swap1\n      sstore\n      pop\n        /* \"gitpopu/solidity/Napolite/contracts/token.sol\":2034:2040  amount */\n      dup2\n        /* \"gitpopu/solidity/Napolite/contracts/token.sol\":2018:2026  balances */\n      0x04\n        /* \"gitpopu/solidity/Napolite/contracts/token.sol\":2018:2030  balances[to] */\n      0x00\n        /* \"gitpopu/solidity/Napolite/contracts/token.sol\":2027:2029  to */\n      dup6\n        /* \"gitpopu/solidity/Napolite/contracts/token.sol\":2018:2030  balances[to] */\n      0xffffffffffffffffffffffffffffffffffffffff\n      and\n      0xffffffffffffffffffffffffffffffffffffffff\n      and\n      dup2\n      mstore\n      0x20\n      add\n      swap1\n      dup2\n      mstore\n      0x20\n      add\n      0x00\n      keccak256\n      0x00\n        /* \"gitpopu/solidity/Napolite/contracts/token.sol\":2018:2040  balances[to] += amount */\n      dup3\n      dup3\n      sload\n      tag_80\n      swap2\n      swap1\n      tag_81\n      jump\t// in\n    tag_80:\n      swap3\n      pop\n      pop\n      dup2\n      swap1\n      sstore\n      pop\n        /* \"gitpopu/solidity/Napolite/contracts/token.sol\":2070:2072  to */\n      dup3\n        /* \"gitpopu/solidity/Napolite/contracts/token.sol\":2055:2081  Transfer(from, to, amount) */\n      0xffffffffffffffffffffffffffffffffffffffff\n      and\n        /* \"gitpopu/solidity/Napolite/contracts/token.sol\":2064:2068  from */\n      dup5\n        /* \"gitpopu/solidity/Napolite/contracts/token.sol\":2055:2081  Transfer(from, to, amount) */\n      0xffffffffffffffffffffffffffffffffffffffff\n      and\n      0xddf252ad1be2c89b69c2b068fc378daa952ba7f163c4a11628f55a4df523b3ef\n        /* \"gitpopu/solidity/Napolite/contracts/token.sol\":2074:2080  amount */\n      dup5\n        /* \"gitpopu/solidity/Napolite/contracts/token.sol\":2055:2081  Transfer(from, to, amount) */\n      mload(0x40)\n      tag_82\n      swap2\n      swap1\n      tag_31\n      jump\t// in\n    tag_82:\n      mload(0x40)\n      dup1\n      swap2\n      sub\n      swap1\n      log3\n        /* \"gitpopu/solidity/Napolite/contracts/token.sol\":1705:2088  {... */\n      pop\n        /* \"gitpopu/solidity/Napolite/contracts/token.sol\":1629:2088  function transferFrom(address from, address to, uint amount) public override{... */\n      pop\n      pop\n      pop\n      jump\t// out\n        /* \"gitpopu/solidity/Napolite/contracts/token.sol\":769:812  mapping(address => uint256) public balances */\n    tag_39:\n      mstore(0x20, 0x04)\n      dup1\n      0x00\n      mstore\n      keccak256(0x00, 0x40)\n      0x00\n      swap2\n      pop\n      swap1\n      pop\n      sload\n      dup2\n      jump\t// out\n        /* \"gitpopu/solidity/Napolite/contracts/token.sol\":742:762  uint public decimals */\n    tag_42:\n      sload(0x03)\n      dup2\n      jump\t// out\n        /* \"gitpopu/solidity/Napolite/contracts/token.sol\":661:685  uint public _totalSupply */\n    tag_45:\n      sload(0x00)\n      dup2\n      jump\t// out\n        /* \"gitpopu/solidity/Napolite/contracts/token.sol\":818:879  mapping (address => mapping (address => uint)) public allowed */\n    tag_50:\n      mstore(0x20, 0x05)\n      dup2\n      0x00\n      mstore\n      mstore(0x20, keccak256(0x00, 0x40))\n      dup1\n      0x00\n      mstore\n      keccak256(0x00, 0x40)\n      0x00\n      swap2\n      pop\n      swap2\n      pop\n      pop\n      sload\n      dup2\n      jump\t// out\n        /* \"gitpopu/solidity/Napolite/contracts/token.sol\":2193:2296  function balanceOf(address who) public view override returns(uint){... */\n    tag_54:\n        /* \"gitpopu/solidity/Napolite/contracts/token.sol\":2254:2258  uint */\n      0x00\n        /* \"gitpopu/solidity/Napolite/contracts/token.sol\":2276:2284  balances */\n      0x04\n        /* \"gitpopu/solidity/Napolite/contracts/token.sol\":2276:2289  balances[who] */\n      0x00\n        /* \"gitpopu/solidity/Napolite/contracts/token.sol\":2285:2288  who */\n      dup4\n        /* \"gitpopu/solidity/Napolite/contracts/token.sol\":2276:2289  balances[who] */\n      0xffffffffffffffffffffffffffffffffffffffff\n      and\n      0xffffffffffffffffffffffffffffffffffffffff\n      and\n      dup2\n      mstore\n      0x20\n      add\n      swap1\n      dup2\n      mstore\n      0x20\n      add\n      0x00\n      keccak256\n      sload\n        /* \"gitpopu/solidity/Napolite/contracts/token.sol\":2269:2289  return balances[who] */\n      swap1\n      pop\n        /* \"gitpopu/solidity/Napolite/contracts/token.sol\":2193:2296  function balanceOf(address who) public view override returns(uint){... */\n      swap2\n      swap1\n      pop\n      jump\t// out\n        /* \"gitpopu/solidity/Napolite/contracts/token.sol\":1223:1623  function transfer(address receiver, uint256 amount) public override{... */\n    tag_58:\n        /* \"gitpopu/solidity/Napolite/contracts/token.sol\":1313:1321  balances */\n      0x04\n        /* \"gitpopu/solidity/Napolite/contracts/token.sol\":1313:1333  balances[msg.sender] */\n      0x00\n        /* \"gitpopu/solidity/Napolite/contracts/token.sol\":1322:1332  msg.sender */\n      caller\n        /* \"gitpopu/solidity/Napolite/contracts/token.sol\":1313:1333  balances[msg.sender] */\n      0xffffffffffffffffffffffffffffffffffffffff\n      and\n      0xffffffffffffffffffffffffffffffffffffffff\n      and\n      dup2\n      mstore\n      0x20\n      add\n      swap1\n      dup2\n      mstore\n      0x20\n      add\n      0x00\n      keccak256\n      sload\n        /* \"gitpopu/solidity/Napolite/contracts/token.sol\":1304:1310  amount */\n      dup2\n        /* \"gitpopu/solidity/Napolite/contracts/token.sol\":1304:1333  amount > balances[msg.sender] */\n      gt\n        /* \"gitpopu/solidity/Napolite/contracts/token.sol\":1300:1485  if (amount > balances[msg.sender]) {... */\n      iszero\n      tag_85\n      jumpi\n        /* \"gitpopu/solidity/Napolite/contracts/token.sol\":1404:1410  amount */\n      dup1\n        /* \"gitpopu/solidity/Napolite/contracts/token.sol\":1439:1447  balances */\n      0x04\n        /* \"gitpopu/solidity/Napolite/contracts/token.sol\":1439:1459  balances[msg.sender] */\n      0x00\n        /* \"gitpopu/solidity/Napolite/contracts/token.sol\":1448:1458  msg.sender */\n      caller\n        /* \"gitpopu/solidity/Napolite/contracts/token.sol\":1439:1459  balances[msg.sender] */\n      0xffffffffffffffffffffffffffffffffffffffff\n      and\n      0xffffffffffffffffffffffffffffffffffffffff\n      and\n      dup2\n      mstore\n      0x20\n      add\n      swap1\n      dup2\n      mstore\n      0x20\n      add\n      0x00\n      keccak256\n      sload\n        /* \"gitpopu/solidity/Napolite/contracts/token.sol\":1356:1474  InsuficientBalance({... */\n      mload(0x40)\n      0xec0ae9cf00000000000000000000000000000000000000000000000000000000\n      dup2\n      mstore\n      0x04\n      add\n      tag_86\n      swap3\n      swap2\n      swap1\n      tag_77\n      jump\t// in\n    tag_86:\n      mload(0x40)\n      dup1\n      swap2\n      sub\n      swap1\n      revert\n        /* \"gitpopu/solidity/Napolite/contracts/token.sol\":1300:1485  if (amount > balances[msg.sender]) {... */\n    tag_85:\n        /* \"gitpopu/solidity/Napolite/contracts/token.sol\":1519:1525  amount */\n      dup1\n        /* \"gitpopu/solidity/Napolite/contracts/token.sol\":1495:1503  balances */\n      0x04\n        /* \"gitpopu/solidity/Napolite/contracts/token.sol\":1495:1515  balances[msg.sender] */\n      0x00\n        /* \"gitpopu/solidity/Napolite/contracts/token.sol\":1504:1514  msg.sender */\n      caller\n        /* \"gitpopu/solidity/Napolite/contracts/token.sol\":1495:1515  balances[msg.sender] */\n      0xffffffffffffffffffffffffffffffffffffffff\n      and\n      0xffffffffffffffffffffffffffffffffffffffff\n      and\n      dup2\n      mstore\n      0x20\n      add\n      swap1\n      dup2\n      mstore\n      0x20\n      add\n      0x00\n      keccak256\n      0x00\n        /* \"gitpopu/solidity/Napolite/contracts/token.sol\":1495:1525  balances[msg.sender] -= amount */\n      dup3\n      dup3\n      sload\n      tag_87\n      swap2\n      swap1\n      tag_79\n      jump\t// in\n    tag_87:\n      swap3\n      pop\n      pop\n      dup2\n      swap1\n      sstore\n      pop\n        /* \"gitpopu/solidity/Napolite/contracts/token.sol\":1557:1563  amount */\n      dup1\n        /* \"gitpopu/solidity/Napolite/contracts/token.sol\":1535:1543  balances */\n      0x04\n        /* \"gitpopu/solidity/Napolite/contracts/token.sol\":1535:1553  balances[receiver] */\n      0x00\n        /* \"gitpopu/solidity/Napolite/contracts/token.sol\":1544:1552  receiver */\n      dup5\n        /* \"gitpopu/solidity/Napolite/contracts/token.sol\":1535:1553  balances[receiver] */\n      0xffffffffffffffffffffffffffffffffffffffff\n      and\n      0xffffffffffffffffffffffffffffffffffffffff\n      and\n      dup2\n      mstore\n      0x20\n      add\n      swap1\n      dup2\n      mstore\n      0x20\n      add\n      0x00\n      keccak256\n      0x00\n        /* \"gitpopu/solidity/Napolite/contracts/token.sol\":1535:1563  balances[receiver] += amount */\n      dup3\n      dup3\n      sload\n      tag_88\n      swap2\n      swap1\n      tag_81\n      jump\t// in\n    tag_88:\n      swap3\n      pop\n      pop\n      dup2\n      swap1\n      sstore\n      pop\n        /* \"gitpopu/solidity/Napolite/contracts/token.sol\":1599:1607  receiver */\n      dup2\n        /* \"gitpopu/solidity/Napolite/contracts/token.sol\":1578:1616  Transfer(msg.sender, receiver, amount) */\n      0xffffffffffffffffffffffffffffffffffffffff\n      and\n        /* \"gitpopu/solidity/Napolite/contracts/token.sol\":1587:1597  msg.sender */\n      caller\n        /* \"gitpopu/solidity/Napolite/contracts/token.sol\":1578:1616  Transfer(msg.sender, receiver, amount) */\n      0xffffffffffffffffffffffffffffffffffffffff\n      and\n      0xddf252ad1be2c89b69c2b068fc378daa952ba7f163c4a11628f55a4df523b3ef\n        /* \"gitpopu/solidity/Napolite/contracts/token.sol\":1609:1615  amount */\n      dup4\n        /* \"gitpopu/solidity/Napolite/contracts/token.sol\":1578:1616  Transfer(msg.sender, receiver, amount) */\n      mload(0x40)\n      tag_89\n      swap2\n      swap1\n      tag_31\n      jump\t// in\n    tag_89:\n      mload(0x40)\n      dup1\n      swap2\n      sub\n      swap1\n      log3\n        /* \"gitpopu/solidity/Napolite/contracts/token.sol\":1223:1623  function transfer(address receiver, uint256 amount) public override{... */\n      pop\n      pop\n      jump\t// out\n        /* \"gitpopu/solidity/Napolite/contracts/token.sol\":2506:2642  function allowance(address owner, address spender) public view override returns(uint256) {... */\n    tag_61:\n        /* \"gitpopu/solidity/Napolite/contracts/token.sol\":2586:2593  uint256 */\n      0x00\n        /* \"gitpopu/solidity/Napolite/contracts/token.sol\":2612:2619  allowed */\n      0x05\n        /* \"gitpopu/solidity/Napolite/contracts/token.sol\":2612:2626  allowed[owner] */\n      0x00\n        /* \"gitpopu/solidity/Napolite/contracts/token.sol\":2620:2625  owner */\n      dup5\n        /* \"gitpopu/solidity/Napolite/contracts/token.sol\":2612:2626  allowed[owner] */\n      0xffffffffffffffffffffffffffffffffffffffff\n      and\n      0xffffffffffffffffffffffffffffffffffffffff\n      and\n      dup2\n      mstore\n      0x20\n      add\n      swap1\n      dup2\n      mstore\n      0x20\n      add\n      0x00\n      keccak256\n        /* \"gitpopu/solidity/Napolite/contracts/token.sol\":2612:2635  allowed[owner][spender] */\n      0x00\n        /* \"gitpopu/solidity/Napolite/contracts/token.sol\":2627:2634  spender */\n      dup4\n        /* \"gitpopu/solidity/Napolite/contracts/token.sol\":2612:2635  allowed[owner][spender] */\n      0xffffffffffffffffffffffffffffffffffffffff\n      and\n      0xffffffffffffffffffffffffffffffffffffffff\n      and\n      dup2\n      mstore\n      0x20\n      add\n      swap1\n      dup2\n      mstore\n      0x20\n      add\n      0x00\n      keccak256\n      sload\n        /* \"gitpopu/solidity/Napolite/contracts/token.sol\":2605:2635  return allowed[owner][spender] */\n      swap1\n      pop\n        /* \"gitpopu/solidity/Napolite/contracts/token.sol\":2506:2642  function allowance(address owner, address spender) public view override returns(uint256) {... */\n      swap3\n      swap2\n      pop\n      pop\n      jump\t// out\n        /* \"#utility.yul\":7:146   */\n    tag_92:\n        /* \"#utility.yul\":53:58   */\n      0x00\n        /* \"#utility.yul\":91:97   */\n      dup2\n        /* \"#utility.yul\":78:98   */\n      calldataload\n        /* \"#utility.yul\":69:98   */\n      swap1\n      pop\n        /* \"#utility.yul\":107:140   */\n      tag_94\n        /* \"#utility.yul\":134:139   */\n      dup2\n        /* \"#utility.yul\":107:140   */\n      tag_95\n      jump\t// in\n    tag_94:\n        /* \"#utility.yul\":7:146   */\n      swap3\n      swap2\n      pop\n      pop\n      jump\t// out\n        /* \"#utility.yul\":152:291   */\n    tag_96:\n        /* \"#utility.yul\":198:203   */\n      0x00\n        /* \"#utility.yul\":236:242   */\n      dup2\n        /* \"#utility.yul\":223:243   */\n      calldataload\n        /* \"#utility.yul\":214:243   */\n      swap1\n      pop\n        /* \"#utility.yul\":252:285   */\n      tag_98\n        /* \"#utility.yul\":279:284   */\n      dup2\n        /* \"#utility.yul\":252:285   */\n      tag_99\n      jump\t// in\n    tag_98:\n        /* \"#utility.yul\":152:291   */\n      swap3\n      swap2\n      pop\n      pop\n      jump\t// out\n        /* \"#utility.yul\":297:626   */\n    tag_38:\n        /* \"#utility.yul\":356:362   */\n      0x00\n        /* \"#utility.yul\":405:407   */\n      0x20\n        /* \"#utility.yul\":393:402   */\n      dup3\n        /* \"#utility.yul\":384:391   */\n      dup5\n        /* \"#utility.yul\":380:403   */\n      sub\n        /* \"#utility.yul\":376:408   */\n      slt\n        /* \"#utility.yul\":373:492   */\n      iszero\n      tag_101\n      jumpi\n        /* \"#utility.yul\":411:490   */\n      tag_102\n      tag_103\n      jump\t// in\n    tag_102:\n        /* \"#utility.yul\":373:492   */\n    tag_101:\n        /* \"#utility.yul\":531:532   */\n      0x00\n        /* \"#utility.yul\":556:609   */\n      tag_104\n        /* \"#utility.yul\":601:608   */\n      dup5\n        /* \"#utility.yul\":592:598   */\n      dup3\n        /* \"#utility.yul\":581:590   */\n      dup6\n        /* \"#utility.yul\":577:599   */\n      add\n        /* \"#utility.yul\":556:609   */\n      tag_92\n      jump\t// in\n    tag_104:\n        /* \"#utility.yul\":546:609   */\n      swap2\n      pop\n        /* \"#utility.yul\":502:619   */\n      pop\n        /* \"#utility.yul\":297:626   */\n      swap3\n      swap2\n      pop\n      pop\n      jump\t// out\n        /* \"#utility.yul\":632:1106   */\n    tag_49:\n        /* \"#utility.yul\":700:706   */\n      0x00\n        /* \"#utility.yul\":708:714   */\n      dup1\n        /* \"#utility.yul\":757:759   */\n      0x40\n        /* \"#utility.yul\":745:754   */\n      dup4\n        /* \"#utility.yul\":736:743   */\n      dup6\n        /* \"#utility.yul\":732:755   */\n      sub\n        /* \"#utility.yul\":728:760   */\n      slt\n        /* \"#utility.yul\":725:844   */\n      iszero\n      tag_106\n      jumpi\n        /* \"#utility.yul\":763:842   */\n      tag_107\n      tag_103\n      jump\t// in\n    tag_107:\n        /* \"#utility.yul\":725:844   */\n    tag_106:\n        /* \"#utility.yul\":883:884   */\n      0x00\n        /* \"#utility.yul\":908:961   */\n      tag_108\n        /* \"#utility.yul\":953:960   */\n      dup6\n        /* \"#utility.yul\":944:950   */\n      dup3\n        /* \"#utility.yul\":933:942   */\n      dup7\n        /* \"#utility.yul\":929:951   */\n      add\n        /* \"#utility.yul\":908:961   */\n      tag_92\n      jump\t// in\n    tag_108:\n        /* \"#utility.yul\":898:961   */\n      swap3\n      pop\n        /* \"#utility.yul\":854:971   */\n      pop\n        /* \"#utility.yul\":1010:1012   */\n      0x20\n        /* \"#utility.yul\":1036:1089   */\n      tag_109\n        /* \"#utility.yul\":1081:1088   */\n      dup6\n        /* \"#utility.yul\":1072:1078   */\n      dup3\n        /* \"#utility.yul\":1061:1070   */\n      dup7\n        /* \"#utility.yul\":1057:1079   */\n      add\n        /* \"#utility.yul\":1036:1089   */\n      tag_92\n      jump\t// in\n    tag_109:\n        /* \"#utility.yul\":1026:1089   */\n      swap2\n      pop\n        /* \"#utility.yul\":981:1099   */\n      pop\n        /* \"#utility.yul\":632:1106   */\n      swap3\n      pop\n      swap3\n      swap1\n      pop\n      jump\t// out\n        /* \"#utility.yul\":1112:1731   */\n    tag_34:\n        /* \"#utility.yul\":1189:1195   */\n      0x00\n        /* \"#utility.yul\":1197:1203   */\n      dup1\n        /* \"#utility.yul\":1205:1211   */\n      0x00\n        /* \"#utility.yul\":1254:1256   */\n      0x60\n        /* \"#utility.yul\":1242:1251   */\n      dup5\n        /* \"#utility.yul\":1233:1240   */\n      dup7\n        /* \"#utility.yul\":1229:1252   */\n      sub\n        /* \"#utility.yul\":1225:1257   */\n      slt\n        /* \"#utility.yul\":1222:1341   */\n      iszero\n      tag_111\n      jumpi\n        /* \"#utility.yul\":1260:1339   */\n      tag_112\n      tag_103\n      jump\t// in\n    tag_112:\n        /* \"#utility.yul\":1222:1341   */\n    tag_111:\n        /* \"#utility.yul\":1380:1381   */\n      0x00\n        /* \"#utility.yul\":1405:1458   */\n      tag_113\n        /* \"#utility.yul\":1450:1457   */\n      dup7\n        /* \"#utility.yul\":1441:1447   */\n      dup3\n        /* \"#utility.yul\":1430:1439   */\n      dup8\n        /* \"#utility.yul\":1426:1448   */\n      add\n        /* \"#utility.yul\":1405:1458   */\n      tag_92\n      jump\t// in\n    tag_113:\n        /* \"#utility.yul\":1395:1458   */\n      swap4\n      pop\n        /* \"#utility.yul\":1351:1468   */\n      pop\n        /* \"#utility.yul\":1507:1509   */\n      0x20\n        /* \"#utility.yul\":1533:1586   */\n      tag_114\n        /* \"#utility.yul\":1578:1585   */\n      dup7\n        /* \"#utility.yul\":1569:1575   */\n      dup3\n        /* \"#utility.yul\":1558:1567   */\n      dup8\n        /* \"#utility.yul\":1554:1576   */\n      add\n        /* \"#utility.yul\":1533:1586   */\n      tag_92\n      jump\t// in\n    tag_114:\n        /* \"#utility.yul\":1523:1586   */\n      swap3\n      pop\n        /* \"#utility.yul\":1478:1596   */\n      pop\n        /* \"#utility.yul\":1635:1637   */\n      0x40\n        /* \"#utility.yul\":1661:1714   */\n      tag_115\n        /* \"#utility.yul\":1706:1713   */\n      dup7\n        /* \"#utility.yul\":1697:1703   */\n      dup3\n        /* \"#utility.yul\":1686:1695   */\n      dup8\n        /* \"#utility.yul\":1682:1704   */\n      add\n        /* \"#utility.yul\":1661:1714   */\n      tag_96\n      jump\t// in\n    tag_115:\n        /* \"#utility.yul\":1651:1714   */\n      swap2\n      pop\n        /* \"#utility.yul\":1606:1724   */\n      pop\n        /* \"#utility.yul\":1112:1731   */\n      swap3\n      pop\n      swap3\n      pop\n      swap3\n      jump\t// out\n        /* \"#utility.yul\":1737:2211   */\n    tag_26:\n        /* \"#utility.yul\":1805:1811   */\n      0x00\n        /* \"#utility.yul\":1813:1819   */\n      dup1\n        /* \"#utility.yul\":1862:1864   */\n      0x40\n        /* \"#utility.yul\":1850:1859   */\n      dup4\n        /* \"#utility.yul\":1841:1848   */\n      dup6\n        /* \"#utility.yul\":1837:1860   */\n      sub\n        /* \"#utility.yul\":1833:1865   */\n      slt\n        /* \"#utility.yul\":1830:1949   */\n      iszero\n      tag_117\n      jumpi\n        /* \"#utility.yul\":1868:1947   */\n      tag_118\n      tag_103\n      jump\t// in\n    tag_118:\n        /* \"#utility.yul\":1830:1949   */\n    tag_117:\n        /* \"#utility.yul\":1988:1989   */\n      0x00\n        /* \"#utility.yul\":2013:2066   */\n      tag_119\n        /* \"#utility.yul\":2058:2065   */\n      dup6\n        /* \"#utility.yul\":2049:2055   */\n      dup3\n        /* \"#utility.yul\":2038:2047   */\n      dup7\n        /* \"#utility.yul\":2034:2056   */\n      add\n        /* \"#utility.yul\":2013:2066   */\n      tag_92\n      jump\t// in\n    tag_119:\n        /* \"#utility.yul\":2003:2066   */\n      swap3\n      pop\n        /* \"#utility.yul\":1959:2076   */\n      pop\n        /* \"#utility.yul\":2115:2117   */\n      0x20\n        /* \"#utility.yul\":2141:2194   */\n      tag_120\n        /* \"#utility.yul\":2186:2193   */\n      dup6\n        /* \"#utility.yul\":2177:2183   */\n      dup3\n        /* \"#utility.yul\":2166:2175   */\n      dup7\n        /* \"#utility.yul\":2162:2184   */\n      add\n        /* \"#utility.yul\":2141:2194   */\n      tag_96\n      jump\t// in\n    tag_120:\n        /* \"#utility.yul\":2131:2194   */\n      swap2\n      pop\n        /* \"#utility.yul\":2086:2204   */\n      pop\n        /* \"#utility.yul\":1737:2211   */\n      swap3\n      pop\n      swap3\n      swap1\n      pop\n      jump\t// out\n        /* \"#utility.yul\":2217:2335   */\n    tag_121:\n        /* \"#utility.yul\":2304:2328   */\n      tag_123\n        /* \"#utility.yul\":2322:2327   */\n      dup2\n        /* \"#utility.yul\":2304:2328   */\n      tag_124\n      jump\t// in\n    tag_123:\n        /* \"#utility.yul\":2299:2302   */\n      dup3\n        /* \"#utility.yul\":2292:2329   */\n      mstore\n        /* \"#utility.yul\":2217:2335   */\n      pop\n      pop\n      jump\t// out\n        /* \"#utility.yul\":2341:2705   */\n    tag_125:\n        /* \"#utility.yul\":2429:2432   */\n      0x00\n        /* \"#utility.yul\":2457:2496   */\n      tag_127\n        /* \"#utility.yul\":2490:2495   */\n      dup3\n        /* \"#utility.yul\":2457:2496   */\n      tag_128\n      jump\t// in\n    tag_127:\n        /* \"#utility.yul\":2512:2583   */\n      tag_129\n        /* \"#utility.yul\":2576:2582   */\n      dup2\n        /* \"#utility.yul\":2571:2574   */\n      dup6\n        /* \"#utility.yul\":2512:2583   */\n      tag_130\n      jump\t// in\n    tag_129:\n        /* \"#utility.yul\":2505:2583   */\n      swap4\n      pop\n        /* \"#utility.yul\":2592:2644   */\n      tag_131\n        /* \"#utility.yul\":2637:2643   */\n      dup2\n        /* \"#utility.yul\":2632:2635   */\n      dup6\n        /* \"#utility.yul\":2625:2629   */\n      0x20\n        /* \"#utility.yul\":2618:2623   */\n      dup7\n        /* \"#utility.yul\":2614:2630   */\n      add\n        /* \"#utility.yul\":2592:2644   */\n      tag_132\n      jump\t// in\n    tag_131:\n        /* \"#utility.yul\":2669:2698   */\n      tag_133\n        /* \"#utility.yul\":2691:2697   */\n      dup2\n        /* \"#utility.yul\":2669:2698   */\n      tag_134\n      jump\t// in\n    tag_133:\n        /* \"#utility.yul\":2664:2667   */\n      dup5\n        /* \"#utility.yul\":2660:2699   */\n      add\n        /* \"#utility.yul\":2653:2699   */\n      swap2\n      pop\n        /* \"#utility.yul\":2433:2705   */\n      pop\n        /* \"#utility.yul\":2341:2705   */\n      swap3\n      swap2\n      pop\n      pop\n      jump\t// out\n        /* \"#utility.yul\":2711:2829   */\n    tag_135:\n        /* \"#utility.yul\":2798:2822   */\n      tag_137\n        /* \"#utility.yul\":2816:2821   */\n      dup2\n        /* \"#utility.yul\":2798:2822   */\n      tag_138\n      jump\t// in\n    tag_137:\n        /* \"#utility.yul\":2793:2796   */\n      dup3\n        /* \"#utility.yul\":2786:2823   */\n      mstore\n        /* \"#utility.yul\":2711:2829   */\n      pop\n      pop\n      jump\t// out\n        /* \"#utility.yul\":2835:3057   */\n    tag_23:\n        /* \"#utility.yul\":2928:2932   */\n      0x00\n        /* \"#utility.yul\":2966:2968   */\n      0x20\n        /* \"#utility.yul\":2955:2964   */\n      dup3\n        /* \"#utility.yul\":2951:2969   */\n      add\n        /* \"#utility.yul\":2943:2969   */\n      swap1\n      pop\n        /* \"#utility.yul\":2979:3050   */\n      tag_140\n        /* \"#utility.yul\":3047:3048   */\n      0x00\n        /* \"#utility.yul\":3036:3045   */\n      dup4\n        /* \"#utility.yul\":3032:3049   */\n      add\n        /* \"#utility.yul\":3023:3029   */\n      dup5\n        /* \"#utility.yul\":2979:3050   */\n      tag_121\n      jump\t// in\n    tag_140:\n        /* \"#utility.yul\":2835:3057   */\n      swap3\n      swap2\n      pop\n      pop\n      jump\t// out\n        /* \"#utility.yul\":3063:3376   */\n    tag_19:\n        /* \"#utility.yul\":3176:3180   */\n      0x00\n        /* \"#utility.yul\":3214:3216   */\n      0x20\n        /* \"#utility.yul\":3203:3212   */\n      dup3\n        /* \"#utility.yul\":3199:3217   */\n      add\n        /* \"#utility.yul\":3191:3217   */\n      swap1\n      pop\n        /* \"#utility.yul\":3263:3272   */\n      dup2\n        /* \"#utility.yul\":3257:3261   */\n      dup2\n        /* \"#utility.yul\":3253:3273   */\n      sub\n        /* \"#utility.yul\":3249:3250   */\n      0x00\n        /* \"#utility.yul\":3238:3247   */\n      dup4\n        /* \"#utility.yul\":3234:3251   */\n      add\n        /* \"#utility.yul\":3227:3274   */\n      mstore\n        /* \"#utility.yul\":3291:3369   */\n      tag_142\n        /* \"#utility.yul\":3364:3368   */\n      dup2\n        /* \"#utility.yul\":3355:3361   */\n      dup5\n        /* \"#utility.yul\":3291:3369   */\n      tag_125\n      jump\t// in\n    tag_142:\n        /* \"#utility.yul\":3283:3369   */\n      swap1\n      pop\n        /* \"#utility.yul\":3063:3376   */\n      swap3\n      swap2\n      pop\n      pop\n      jump\t// out\n        /* \"#utility.yul\":3382:3604   */\n    tag_31:\n        /* \"#utility.yul\":3475:3479   */\n      0x00\n        /* \"#utility.yul\":3513:3515   */\n      0x20\n        /* \"#utility.yul\":3502:3511   */\n      dup3\n        /* \"#utility.yul\":3498:3516   */\n      add\n        /* \"#utility.yul\":3490:3516   */\n      swap1\n      pop\n        /* \"#utility.yul\":3526:3597   */\n      tag_144\n        /* \"#utility.yul\":3594:3595   */\n      0x00\n        /* \"#utility.yul\":3583:3592   */\n      dup4\n        /* \"#utility.yul\":3579:3596   */\n      add\n        /* \"#utility.yul\":3570:3576   */\n      dup5\n        /* \"#utility.yul\":3526:3597   */\n      tag_135\n      jump\t// in\n    tag_144:\n        /* \"#utility.yul\":3382:3604   */\n      swap3\n      swap2\n      pop\n      pop\n      jump\t// out\n        /* \"#utility.yul\":3610:3942   */\n    tag_77:\n        /* \"#utility.yul\":3731:3735   */\n      0x00\n        /* \"#utility.yul\":3769:3771   */\n      0x40\n        /* \"#utility.yul\":3758:3767   */\n      dup3\n        /* \"#utility.yul\":3754:3772   */\n      add\n        /* \"#utility.yul\":3746:3772   */\n      swap1\n      pop\n        /* \"#utility.yul\":3782:3853   */\n      tag_146\n        /* \"#utility.yul\":3850:3851   */\n      0x00\n        /* \"#utility.yul\":3839:3848   */\n      dup4\n        /* \"#utility.yul\":3835:3852   */\n      add\n        /* \"#utility.yul\":3826:3832   */\n      dup6\n        /* \"#utility.yul\":3782:3853   */\n      tag_135\n      jump\t// in\n    tag_146:\n        /* \"#utility.yul\":3863:3935   */\n      tag_147\n        /* \"#utility.yul\":3931:3933   */\n      0x20\n        /* \"#utility.yul\":3920:3929   */\n      dup4\n        /* \"#utility.yul\":3916:3934   */\n      add\n        /* \"#utility.yul\":3907:3913   */\n      dup5\n        /* \"#utility.yul\":3863:3935   */\n      tag_135\n      jump\t// in\n    tag_147:\n        /* \"#utility.yul\":3610:3942   */\n      swap4\n      swap3\n      pop\n      pop\n      pop\n      jump\t// out\n        /* \"#utility.yul\":4029:4128   */\n    tag_128:\n        /* \"#utility.yul\":4081:4087   */\n      0x00\n        /* \"#utility.yul\":4115:4120   */\n      dup2\n        /* \"#utility.yul\":4109:4121   */\n      mload\n        /* \"#utility.yul\":4099:4121   */\n      swap1\n      pop\n        /* \"#utility.yul\":4029:4128   */\n      swap2\n      swap1\n      pop\n      jump\t// out\n        /* \"#utility.yul\":4134:4303   */\n    tag_130:\n        /* \"#utility.yul\":4218:4229   */\n      0x00\n        /* \"#utility.yul\":4252:4258   */\n      dup3\n        /* \"#utility.yul\":4247:4250   */\n      dup3\n        /* \"#utility.yul\":4240:4259   */\n      mstore\n        /* \"#utility.yul\":4292:4296   */\n      0x20\n        /* \"#utility.yul\":4287:4290   */\n      dup3\n        /* \"#utility.yul\":4283:4297   */\n      add\n        /* \"#utility.yul\":4268:4297   */\n      swap1\n      pop\n        /* \"#utility.yul\":4134:4303   */\n      swap3\n      swap2\n      pop\n      pop\n      jump\t// out\n        /* \"#utility.yul\":4309:4614   */\n    tag_81:\n        /* \"#utility.yul\":4349:4352   */\n      0x00\n        /* \"#utility.yul\":4368:4388   */\n      tag_153\n        /* \"#utility.yul\":4386:4387   */\n      dup3\n        /* \"#utility.yul\":4368:4388   */\n      tag_138\n      jump\t// in\n    tag_153:\n        /* \"#utility.yul\":4363:4388   */\n      swap2\n      pop\n        /* \"#utility.yul\":4402:4422   */\n      tag_154\n        /* \"#utility.yul\":4420:4421   */\n      dup4\n        /* \"#utility.yul\":4402:4422   */\n      tag_138\n      jump\t// in\n    tag_154:\n        /* \"#utility.yul\":4397:4422   */\n      swap3\n      pop\n        /* \"#utility.yul\":4556:4557   */\n      dup3\n        /* \"#utility.yul\":4488:4554   */\n      0xffffffffffffffffffffffffffffffffffffffffffffffffffffffffffffffff\n        /* \"#utility.yul\":4484:4558   */\n      sub\n        /* \"#utility.yul\":4481:4482   */\n      dup3\n        /* \"#utility.yul\":4478:4559   */\n      gt\n        /* \"#utility.yul\":4475:4582   */\n      iszero\n      tag_155\n      jumpi\n        /* \"#utility.yul\":4562:4580   */\n      tag_156\n      tag_157\n      jump\t// in\n    tag_156:\n        /* \"#utility.yul\":4475:4582   */\n    tag_155:\n        /* \"#utility.yul\":4606:4607   */\n      dup3\n        /* \"#utility.yul\":4603:4604   */\n      dup3\n        /* \"#utility.yul\":4599:4608   */\n      add\n        /* \"#utility.yul\":4592:4608   */\n      swap1\n      pop\n        /* \"#utility.yul\":4309:4614   */\n      swap3\n      swap2\n      pop\n      pop\n      jump\t// out\n        /* \"#utility.yul\":4620:4811   */\n    tag_79:\n        /* \"#utility.yul\":4660:4664   */\n      0x00\n        /* \"#utility.yul\":4680:4700   */\n      tag_159\n        /* \"#utility.yul\":4698:4699   */\n      dup3\n        /* \"#utility.yul\":4680:4700   */\n      tag_138\n      jump\t// in\n    tag_159:\n        /* \"#utility.yul\":4675:4700   */\n      swap2\n      pop\n        /* \"#utility.yul\":4714:4734   */\n      tag_160\n        /* \"#utility.yul\":4732:4733   */\n      dup4\n        /* \"#utility.yul\":4714:4734   */\n      tag_138\n      jump\t// in\n    tag_160:\n        /* \"#utility.yul\":4709:4734   */\n      swap3\n      pop\n        /* \"#utility.yul\":4753:4754   */\n      dup3\n        /* \"#utility.yul\":4750:4751   */\n      dup3\n        /* \"#utility.yul\":4747:4755   */\n      lt\n        /* \"#utility.yul\":4744:4778   */\n      iszero\n      tag_161\n      jumpi\n        /* \"#utility.yul\":4758:4776   */\n      tag_162\n      tag_157\n      jump\t// in\n    tag_162:\n        /* \"#utility.yul\":4744:4778   */\n    tag_161:\n        /* \"#utility.yul\":4803:4804   */\n      dup3\n        /* \"#utility.yul\":4800:4801   */\n      dup3\n        /* \"#utility.yul\":4796:4805   */\n      sub\n        /* \"#utility.yul\":4788:4805   */\n      swap1\n      pop\n        /* \"#utility.yul\":4620:4811   */\n      swap3\n      swap2\n      pop\n      pop\n      jump\t// out\n        /* \"#utility.yul\":4817:4913   */\n    tag_124:\n        /* \"#utility.yul\":4854:4861   */\n      0x00\n        /* \"#utility.yul\":4883:4907   */\n      tag_164\n        /* \"#utility.yul\":4901:4906   */\n      dup3\n        /* \"#utility.yul\":4883:4907   */\n      tag_165\n      jump\t// in\n    tag_164:\n        /* \"#utility.yul\":4872:4907   */\n      swap1\n      pop\n        /* \"#utility.yul\":4817:4913   */\n      swap2\n      swap1\n      pop\n      jump\t// out\n        /* \"#utility.yul\":4919:5045   */\n    tag_165:\n        /* \"#utility.yul\":4956:4963   */\n      0x00\n        /* \"#utility.yul\":4996:5038   */\n      0xffffffffffffffffffffffffffffffffffffffff\n        /* \"#utility.yul\":4989:4994   */\n      dup3\n        /* \"#utility.yul\":4985:5039   */\n      and\n        /* \"#utility.yul\":4974:5039   */\n      swap1\n      pop\n        /* \"#utility.yul\":4919:5045   */\n      swap2\n      swap1\n      pop\n      jump\t// out\n        /* \"#utility.yul\":5051:5128   */\n    tag_138:\n        /* \"#utility.yul\":5088:5095   */\n      0x00\n        /* \"#utility.yul\":5117:5122   */\n      dup2\n        /* \"#utility.yul\":5106:5122   */\n      swap1\n      pop\n        /* \"#utility.yul\":5051:5128   */\n      swap2\n      swap1\n      pop\n      jump\t// out\n        /* \"#utility.yul\":5134:5441   */\n    tag_132:\n        /* \"#utility.yul\":5202:5203   */\n      0x00\n        /* \"#utility.yul\":5212:5325   */\n    tag_169:\n        /* \"#utility.yul\":5226:5232   */\n      dup4\n        /* \"#utility.yul\":5223:5224   */\n      dup2\n        /* \"#utility.yul\":5220:5233   */\n      lt\n        /* \"#utility.yul\":5212:5325   */\n      iszero\n      tag_171\n      jumpi\n        /* \"#utility.yul\":5311:5312   */\n      dup1\n        /* \"#utility.yul\":5306:5309   */\n      dup3\n        /* \"#utility.yul\":5302:5313   */\n      add\n        /* \"#utility.yul\":5296:5314   */\n      mload\n        /* \"#utility.yul\":5292:5293   */\n      dup2\n        /* \"#utility.yul\":5287:5290   */\n      dup5\n        /* \"#utility.yul\":5283:5294   */\n      add\n        /* \"#utility.yul\":5276:5315   */\n      mstore\n        /* \"#utility.yul\":5248:5250   */\n      0x20\n        /* \"#utility.yul\":5245:5246   */\n      dup2\n        /* \"#utility.yul\":5241:5251   */\n      add\n        /* \"#utility.yul\":5236:5251   */\n      swap1\n      pop\n        /* \"#utility.yul\":5212:5325   */\n      jump(tag_169)\n    tag_171:\n        /* \"#utility.yul\":5343:5349   */\n      dup4\n        /* \"#utility.yul\":5340:5341   */\n      dup2\n        /* \"#utility.yul\":5337:5350   */\n      gt\n        /* \"#utility.yul\":5334:5435   */\n      iszero\n      tag_172\n      jumpi\n        /* \"#utility.yul\":5423:5424   */\n      0x00\n        /* \"#utility.yul\":5414:5420   */\n      dup5\n        /* \"#utility.yul\":5409:5412   */\n      dup5\n        /* \"#utility.yul\":5405:5421   */\n      add\n        /* \"#utility.yul\":5398:5425   */\n      mstore\n        /* \"#utility.yul\":5334:5435   */\n    tag_172:\n        /* \"#utility.yul\":5183:5441   */\n      pop\n        /* \"#utility.yul\":5134:5441   */\n      pop\n      pop\n      pop\n      jump\t// out\n        /* \"#utility.yul\":5447:5767   */\n    tag_64:\n        /* \"#utility.yul\":5491:5497   */\n      0x00\n        /* \"#utility.yul\":5528:5529   */\n      0x02\n        /* \"#utility.yul\":5522:5526   */\n      dup3\n        /* \"#utility.yul\":5518:5530   */\n      div\n        /* \"#utility.yul\":5508:5530   */\n      swap1\n      pop\n        /* \"#utility.yul\":5575:5576   */\n      0x01\n        /* \"#utility.yul\":5569:5573   */\n      dup3\n        /* \"#utility.yul\":5565:5577   */\n      and\n        /* \"#utility.yul\":5596:5614   */\n      dup1\n        /* \"#utility.yul\":5586:5667   */\n      tag_174\n      jumpi\n        /* \"#utility.yul\":5652:5656   */\n      0x7f\n        /* \"#utility.yul\":5644:5650   */\n      dup3\n        /* \"#utility.yul\":5640:5657   */\n      and\n        /* \"#utility.yul\":5630:5657   */\n      swap2\n      pop\n        /* \"#utility.yul\":5586:5667   */\n    tag_174:\n        /* \"#utility.yul\":5714:5716   */\n      0x20\n        /* \"#utility.yul\":5706:5712   */\n      dup3\n        /* \"#utility.yul\":5703:5717   */\n      lt\n        /* \"#utility.yul\":5683:5701   */\n      dup2\n        /* \"#utility.yul\":5680:5718   */\n      eq\n        /* \"#utility.yul\":5677:5761   */\n      iszero\n      tag_175\n      jumpi\n        /* \"#utility.yul\":5733:5751   */\n      tag_176\n      tag_177\n      jump\t// in\n    tag_176:\n        /* \"#utility.yul\":5677:5761   */\n    tag_175:\n        /* \"#utility.yul\":5498:5767   */\n      pop\n        /* \"#utility.yul\":5447:5767   */\n      swap2\n      swap1\n      pop\n      jump\t// out\n        /* \"#utility.yul\":5773:5953   */\n    tag_157:\n        /* \"#utility.yul\":5821:5898   */\n      0x4e487b7100000000000000000000000000000000000000000000000000000000\n        /* \"#utility.yul\":5818:5819   */\n      0x00\n        /* \"#utility.yul\":5811:5899   */\n      mstore\n        /* \"#utility.yul\":5918:5922   */\n      0x11\n        /* \"#utility.yul\":5915:5916   */\n      0x04\n        /* \"#utility.yul\":5908:5923   */\n      mstore\n        /* \"#utility.yul\":5942:5946   */\n      0x24\n        /* \"#utility.yul\":5939:5940   */\n      0x00\n        /* \"#utility.yul\":5932:5947   */\n      revert\n        /* \"#utility.yul\":5959:6139   */\n    tag_177:\n        /* \"#utility.yul\":6007:6084   */\n      0x4e487b7100000000000000000000000000000000000000000000000000000000\n        /* \"#utility.yul\":6004:6005   */\n      0x00\n        /* \"#utility.yul\":5997:6085   */\n      mstore\n        /* \"#utility.yul\":6104:6108   */\n      0x22\n        /* \"#utility.yul\":6101:6102   */\n      0x04\n        /* \"#utility.yul\":6094:6109   */\n      mstore\n        /* \"#utility.yul\":6128:6132   */\n      0x24\n        /* \"#utility.yul\":6125:6126   */\n      0x00\n        /* \"#utility.yul\":6118:6133   */\n      revert\n        /* \"#utility.yul\":6268:6385   */\n    tag_103:\n        /* \"#utility.yul\":6377:6378   */\n      0x00\n        /* \"#utility.yul\":6374:6375   */\n      dup1\n        /* \"#utility.yul\":6367:6379   */\n      revert\n        /* \"#utility.yul\":6391:6493   */\n    tag_134:\n        /* \"#utility.yul\":6432:6438   */\n      0x00\n        /* \"#utility.yul\":6483:6485   */\n      0x1f\n        /* \"#utility.yul\":6479:6486   */\n      not\n        /* \"#utility.yul\":6474:6476   */\n      0x1f\n        /* \"#utility.yul\":6467:6472   */\n      dup4\n        /* \"#utility.yul\":6463:6477   */\n      add\n        /* \"#utility.yul\":6459:6487   */\n      and\n        /* \"#utility.yul\":6449:6487   */\n      swap1\n      pop\n        /* \"#utility.yul\":6391:6493   */\n      swap2\n      swap1\n      pop\n      jump\t// out\n        /* \"#utility.yul\":6499:6621   */\n    tag_95:\n        /* \"#utility.yul\":6572:6596   */\n      tag_185\n        /* \"#utility.yul\":6590:6595   */\n      dup2\n        /* \"#utility.yul\":6572:6596   */\n      tag_124\n      jump\t// in\n    tag_185:\n        /* \"#utility.yul\":6565:6570   */\n      dup2\n        /* \"#utility.yul\":6562:6597   */\n      eq\n        /* \"#utility.yul\":6552:6615   */\n      tag_186\n      jumpi\n        /* \"#utility.yul\":6611:6612   */\n      0x00\n        /* \"#utility.yul\":6608:6609   */\n      dup1\n        /* \"#utility.yul\":6601:6613   */\n      revert\n        /* \"#utility.yul\":6552:6615   */\n    tag_186:\n        /* \"#utility.yul\":6499:6621   */\n      pop\n      jump\t// out\n        /* \"#utility.yul\":6627:6749   */\n    tag_99:\n        /* \"#utility.yul\":6700:6724   */\n      tag_188\n        /* \"#utility.yul\":6718:6723   */\n      dup2\n        /* \"#utility.yul\":6700:6724   */\n      tag_138\n      jump\t// in\n    tag_188:\n        /* \"#utility.yul\":6693:6698   */\n      dup2\n        /* \"#utility.yul\":6690:6725   */\n      eq\n        /* \"#utility.yul\":6680:6743   */\n      tag_189\n      jumpi\n        /* \"#utility.yul\":6739:6740   */\n      0x00\n        /* \"#utility.yul\":6736:6737   */\n      dup1\n        /* \"#utility.yul\":6729:6741   */\n      revert\n        /* \"#utility.yul\":6680:6743   */\n    tag_189:\n        /* \"#utility.yul\":6627:6749   */\n      pop\n      jump\t// out\n\n    auxdata: 0xa2646970667358221220d6613972ada3bcd6e4b2f612664504fc006d7a00b0ec54114928e3c874c6aced64736f6c63430008070033\n}\n",
				"bytecode": {
					"linkReferences": {},
					"object": "60806040523480156200001157600080fd5b5033600160006101000a81548173ffffffffffffffffffffffffffffffffffffffff021916908373ffffffffffffffffffffffffffffffffffffffff1602179055506040518060400160405280600981526020017f546f6b20546f6b656e000000000000000000000000000000000000000000000081525060029080519060200190620000a0929190620001ae565b50620000b6633b9aca00620000bc60201b60201c565b62000359565b600160009054906101000a900473ffffffffffffffffffffffffffffffffffffffff1673ffffffffffffffffffffffffffffffffffffffff163373ffffffffffffffffffffffffffffffffffffffff16146200011757600080fd5b8060046000600160009054906101000a900473ffffffffffffffffffffffffffffffffffffffff1673ffffffffffffffffffffffffffffffffffffffff1673ffffffffffffffffffffffffffffffffffffffff16815260200190815260200160002060008282546200018a91906200025e565b9250508190555080600080828254620001a491906200025e565b9250508190555050565b828054620001bc90620002c5565b90600052602060002090601f016020900481019282620001e057600085556200022c565b82601f10620001fb57805160ff19168380011785556200022c565b828001600101855582156200022c579182015b828111156200022b5782518255916020019190600101906200020e565b5b5090506200023b91906200023f565b5090565b5b808211156200025a57600081600090555060010162000240565b5090565b60006200026b82620002bb565b91506200027883620002bb565b9250827fffffffffffffffffffffffffffffffffffffffffffffffffffffffffffffffff03821115620002b057620002af620002fb565b5b828201905092915050565b6000819050919050565b60006002820490506001821680620002de57607f821691505b60208210811415620002f557620002f46200032a565b5b50919050565b7f4e487b7100000000000000000000000000000000000000000000000000000000600052601160045260246000fd5b7f4e487b7100000000000000000000000000000000000000000000000000000000600052602260045260246000fd5b610d9380620003696000396000f3fe608060405234801561001057600080fd5b50600436106100b45760003560e01c8063313ce56711610071578063313ce5671461017b5780633eaaf86b146101995780635c658165146101b757806370a08231146101e7578063a9059cbb14610217578063dd62ed3e14610233576100b4565b806306fdde03146100b957806307546172146100d7578063095ea7b3146100f557806318160ddd1461011157806323b872dd1461012f57806327e235e31461014b575b600080fd5b6100c1610263565b6040516100ce9190610b0e565b60405180910390f35b6100df6102f1565b6040516100ec9190610af3565b60405180910390f35b61010f600480360381019061010a9190610a5c565b610317565b005b61011961040f565b6040516101269190610b30565b60405180910390f35b61014960048036038101906101449190610a09565b610418565b005b6101656004803603810190610160919061099c565b61067f565b6040516101729190610b30565b60405180910390f35b610183610697565b6040516101909190610b30565b60405180910390f35b6101a161069d565b6040516101ae9190610b30565b60405180910390f35b6101d160048036038101906101cc91906109c9565b6106a3565b6040516101de9190610b30565b60405180910390f35b61020160048036038101906101fc919061099c565b6106c8565b60405161020e9190610b30565b60405180910390f35b610231600480360381019061022c9190610a5c565b610711565b005b61024d600480360381019061024891906109c9565b6108eb565b60405161025a9190610b30565b60405180910390f35b6002805461027090610c89565b80601f016020809104026020016040519081016040528092919081815260200182805461029c90610c89565b80156102e95780601f106102be576101008083540402835291602001916102e9565b820191906000526020600020905b8154815290600101906020018083116102cc57829003601f168201915b505050505081565b600160009054906101000a900473ffffffffffffffffffffffffffffffffffffffff1681565b600081141561032557600080fd5b80600560003373ffffffffffffffffffffffffffffffffffffffff1673ffffffffffffffffffffffffffffffffffffffff16815260200190815260200160002060008473ffffffffffffffffffffffffffffffffffffffff1673ffffffffffffffffffffffffffffffffffffffff168152602001908152602001600020819055508173ffffffffffffffffffffffffffffffffffffffff163373ffffffffffffffffffffffffffffffffffffffff167f8c5be1e5ebec7d5bd14f71427d1e84f3dd0314c0f7b2291e5b200ac8c7c3b925836040516104039190610b30565b60405180910390a35050565b60008054905090565b6000600560008573ffffffffffffffffffffffffffffffffffffffff1673ffffffffffffffffffffffffffffffffffffffff16815260200190815260200160002060003373ffffffffffffffffffffffffffffffffffffffff1673ffffffffffffffffffffffffffffffffffffffff168152602001908152602001600020549050818110806104e55750600460008573ffffffffffffffffffffffffffffffffffffffff1673ffffffffffffffffffffffffffffffffffffffff1681526020019081526020016000205482115b156105685781600460008673ffffffffffffffffffffffffffffffffffffffff1673ffffffffffffffffffffffffffffffffffffffff168152602001908152602001600020546040517fec0ae9cf00000000000000000000000000000000000000000000000000000000815260040161055f929190610b4b565b60405180910390fd5b81600460008673ffffffffffffffffffffffffffffffffffffffff1673ffffffffffffffffffffffffffffffffffffffff16815260200190815260200160002060008282546105b79190610be6565b9250508190555081600460008573ffffffffffffffffffffffffffffffffffffffff1673ffffffffffffffffffffffffffffffffffffffff168152602001908152602001600020600082825461060d9190610b90565b925050819055508273ffffffffffffffffffffffffffffffffffffffff168473ffffffffffffffffffffffffffffffffffffffff167fddf252ad1be2c89b69c2b068fc378daa952ba7f163c4a11628f55a4df523b3ef846040516106719190610b30565b60405180910390a350505050565b60046020528060005260406000206000915090505481565b60035481565b60005481565b6005602052816000526040600020602052806000526040600020600091509150505481565b6000600460008373ffffffffffffffffffffffffffffffffffffffff1673ffffffffffffffffffffffffffffffffffffffff168152602001908152602001600020549050919050565b600460003373ffffffffffffffffffffffffffffffffffffffff1673ffffffffffffffffffffffffffffffffffffffff168152602001908152602001600020548111156107d65780600460003373ffffffffffffffffffffffffffffffffffffffff1673ffffffffffffffffffffffffffffffffffffffff168152602001908152602001600020546040517fec0ae9cf0000000000000000000000000000000000000000000000000000000081526004016107cd929190610b4b565b60405180910390fd5b80600460003373ffffffffffffffffffffffffffffffffffffffff1673ffffffffffffffffffffffffffffffffffffffff16815260200190815260200160002060008282546108259190610be6565b9250508190555080600460008473ffffffffffffffffffffffffffffffffffffffff1673ffffffffffffffffffffffffffffffffffffffff168152602001908152602001600020600082825461087b9190610b90565b925050819055508173ffffffffffffffffffffffffffffffffffffffff163373ffffffffffffffffffffffffffffffffffffffff167fddf252ad1be2c89b69c2b068fc378daa952ba7f163c4a11628f55a4df523b3ef836040516108df9190610b30565b60405180910390a35050565b6000600560008473ffffffffffffffffffffffffffffffffffffffff1673ffffffffffffffffffffffffffffffffffffffff16815260200190815260200160002060008373ffffffffffffffffffffffffffffffffffffffff1673ffffffffffffffffffffffffffffffffffffffff16815260200190815260200160002054905092915050565b60008135905061098181610d2f565b92915050565b60008135905061099681610d46565b92915050565b6000602082840312156109b2576109b1610d19565b5b60006109c084828501610972565b91505092915050565b600080604083850312156109e0576109df610d19565b5b60006109ee85828601610972565b92505060206109ff85828601610972565b9150509250929050565b600080600060608486031215610a2257610a21610d19565b5b6000610a3086828701610972565b9350506020610a4186828701610972565b9250506040610a5286828701610987565b9150509250925092565b60008060408385031215610a7357610a72610d19565b5b6000610a8185828601610972565b9250506020610a9285828601610987565b9150509250929050565b610aa581610c1a565b82525050565b6000610ab682610b74565b610ac08185610b7f565b9350610ad0818560208601610c56565b610ad981610d1e565b840191505092915050565b610aed81610c4c565b82525050565b6000602082019050610b086000830184610a9c565b92915050565b60006020820190508181036000830152610b288184610aab565b905092915050565b6000602082019050610b456000830184610ae4565b92915050565b6000604082019050610b606000830185610ae4565b610b6d6020830184610ae4565b9392505050565b600081519050919050565b600082825260208201905092915050565b6000610b9b82610c4c565b9150610ba683610c4c565b9250827fffffffffffffffffffffffffffffffffffffffffffffffffffffffffffffffff03821115610bdb57610bda610cbb565b5b828201905092915050565b6000610bf182610c4c565b9150610bfc83610c4c565b925082821015610c0f57610c0e610cbb565b5b828203905092915050565b6000610c2582610c2c565b9050919050565b600073ffffffffffffffffffffffffffffffffffffffff82169050919050565b6000819050919050565b60005b83811015610c74578082015181840152602081019050610c59565b83811115610c83576000848401525b50505050565b60006002820490506001821680610ca157607f821691505b60208210811415610cb557610cb4610cea565b5b50919050565b7f4e487b7100000000000000000000000000000000000000000000000000000000600052601160045260246000fd5b7f4e487b7100000000000000000000000000000000000000000000000000000000600052602260045260246000fd5b600080fd5b6000601f19601f8301169050919050565b610d3881610c1a565b8114610d4357600080fd5b50565b610d4f81610c4c565b8114610d5a57600080fd5b5056fea2646970667358221220d6613972ada3bcd6e4b2f612664504fc006d7a00b0ec54114928e3c874c6aced64736f6c63430008070033",
					"opcodes": "PUSH1 0x80 PUSH1 0x40 MSTORE CALLVALUE DUP1 ISZERO PUSH3 0x11 JUMPI PUSH1 0x0 DUP1 REVERT JUMPDEST POP CALLER PUSH1 0x1 PUSH1 0x0 PUSH2 0x100 EXP DUP2 SLOAD DUP2 PUSH20 0xFFFFFFFFFFFFFFFFFFFFFFFFFFFFFFFFFFFFFFFF MUL NOT AND SWAP1 DUP4 PUSH20 0xFFFFFFFFFFFFFFFFFFFFFFFFFFFFFFFFFFFFFFFF AND MUL OR SWAP1 SSTORE POP PUSH1 0x40 MLOAD DUP1 PUSH1 0x40 ADD PUSH1 0x40 MSTORE DUP1 PUSH1 0x9 DUP2 MSTORE PUSH1 0x20 ADD PUSH32 0x546F6B20546F6B656E0000000000000000000000000000000000000000000000 DUP2 MSTORE POP PUSH1 0x2 SWAP1 DUP1 MLOAD SWAP1 PUSH1 0x20 ADD SWAP1 PUSH3 0xA0 SWAP3 SWAP2 SWAP1 PUSH3 0x1AE JUMP JUMPDEST POP PUSH3 0xB6 PUSH4 0x3B9ACA00 PUSH3 0xBC PUSH1 0x20 SHL PUSH1 0x20 SHR JUMP JUMPDEST PUSH3 0x359 JUMP JUMPDEST PUSH1 0x1 PUSH1 0x0 SWAP1 SLOAD SWAP1 PUSH2 0x100 EXP SWAP1 DIV PUSH20 0xFFFFFFFFFFFFFFFFFFFFFFFFFFFFFFFFFFFFFFFF AND PUSH20 0xFFFFFFFFFFFFFFFFFFFFFFFFFFFFFFFFFFFFFFFF AND CALLER PUSH20 0xFFFFFFFFFFFFFFFFFFFFFFFFFFFFFFFFFFFFFFFF AND EQ PUSH3 0x117 JUMPI PUSH1 0x0 DUP1 REVERT JUMPDEST DUP1 PUSH1 0x4 PUSH1 0x0 PUSH1 0x1 PUSH1 0x0 SWAP1 SLOAD SWAP1 PUSH2 0x100 EXP SWAP1 DIV PUSH20 0xFFFFFFFFFFFFFFFFFFFFFFFFFFFFFFFFFFFFFFFF AND PUSH20 0xFFFFFFFFFFFFFFFFFFFFFFFFFFFFFFFFFFFFFFFF AND PUSH20 0xFFFFFFFFFFFFFFFFFFFFFFFFFFFFFFFFFFFFFFFF AND DUP2 MSTORE PUSH1 0x20 ADD SWAP1 DUP2 MSTORE PUSH1 0x20 ADD PUSH1 0x0 KECCAK256 PUSH1 0x0 DUP3 DUP3 SLOAD PUSH3 0x18A SWAP2 SWAP1 PUSH3 0x25E JUMP JUMPDEST SWAP3 POP POP DUP2 SWAP1 SSTORE POP DUP1 PUSH1 0x0 DUP1 DUP3 DUP3 SLOAD PUSH3 0x1A4 SWAP2 SWAP1 PUSH3 0x25E JUMP JUMPDEST SWAP3 POP POP DUP2 SWAP1 SSTORE POP POP JUMP JUMPDEST DUP3 DUP1 SLOAD PUSH3 0x1BC SWAP1 PUSH3 0x2C5 JUMP JUMPDEST SWAP1 PUSH1 0x0 MSTORE PUSH1 0x20 PUSH1 0x0 KECCAK256 SWAP1 PUSH1 0x1F ADD PUSH1 0x20 SWAP1 DIV DUP2 ADD SWAP3 DUP3 PUSH3 0x1E0 JUMPI PUSH1 0x0 DUP6 SSTORE PUSH3 0x22C JUMP JUMPDEST DUP3 PUSH1 0x1F LT PUSH3 0x1FB JUMPI DUP1 MLOAD PUSH1 0xFF NOT AND DUP4 DUP1 ADD OR DUP6 SSTORE PUSH3 0x22C JUMP JUMPDEST DUP3 DUP1 ADD PUSH1 0x1 ADD DUP6 SSTORE DUP3 ISZERO PUSH3 0x22C JUMPI SWAP2 DUP3 ADD JUMPDEST DUP3 DUP2 GT ISZERO PUSH3 0x22B JUMPI DUP3 MLOAD DUP3 SSTORE SWAP2 PUSH1 0x20 ADD SWAP2 SWAP1 PUSH1 0x1 ADD SWAP1 PUSH3 0x20E JUMP JUMPDEST JUMPDEST POP SWAP1 POP PUSH3 0x23B SWAP2 SWAP1 PUSH3 0x23F JUMP JUMPDEST POP SWAP1 JUMP JUMPDEST JUMPDEST DUP1 DUP3 GT ISZERO PUSH3 0x25A JUMPI PUSH1 0x0 DUP2 PUSH1 0x0 SWAP1 SSTORE POP PUSH1 0x1 ADD PUSH3 0x240 JUMP JUMPDEST POP SWAP1 JUMP JUMPDEST PUSH1 0x0 PUSH3 0x26B DUP3 PUSH3 0x2BB JUMP JUMPDEST SWAP2 POP PUSH3 0x278 DUP4 PUSH3 0x2BB JUMP JUMPDEST SWAP3 POP DUP3 PUSH32 0xFFFFFFFFFFFFFFFFFFFFFFFFFFFFFFFFFFFFFFFFFFFFFFFFFFFFFFFFFFFFFFFF SUB DUP3 GT ISZERO PUSH3 0x2B0 JUMPI PUSH3 0x2AF PUSH3 0x2FB JUMP JUMPDEST JUMPDEST DUP3 DUP3 ADD SWAP1 POP SWAP3 SWAP2 POP POP JUMP JUMPDEST PUSH1 0x0 DUP2 SWAP1 POP SWAP2 SWAP1 POP JUMP JUMPDEST PUSH1 0x0 PUSH1 0x2 DUP3 DIV SWAP1 POP PUSH1 0x1 DUP3 AND DUP1 PUSH3 0x2DE JUMPI PUSH1 0x7F DUP3 AND SWAP2 POP JUMPDEST PUSH1 0x20 DUP3 LT DUP2 EQ ISZERO PUSH3 0x2F5 JUMPI PUSH3 0x2F4 PUSH3 0x32A JUMP JUMPDEST JUMPDEST POP SWAP2 SWAP1 POP JUMP JUMPDEST PUSH32 0x4E487B7100000000000000000000000000000000000000000000000000000000 PUSH1 0x0 MSTORE PUSH1 0x11 PUSH1 0x4 MSTORE PUSH1 0x24 PUSH1 0x0 REVERT JUMPDEST PUSH32 0x4E487B7100000000000000000000000000000000000000000000000000000000 PUSH1 0x0 MSTORE PUSH1 0x22 PUSH1 0x4 MSTORE PUSH1 0x24 PUSH1 0x0 REVERT JUMPDEST PUSH2 0xD93 DUP1 PUSH3 0x369 PUSH1 0x0 CODECOPY PUSH1 0x0 RETURN INVALID PUSH1 0x80 PUSH1 0x40 MSTORE CALLVALUE DUP1 ISZERO PUSH2 0x10 JUMPI PUSH1 0x0 DUP1 REVERT JUMPDEST POP PUSH1 0x4 CALLDATASIZE LT PUSH2 0xB4 JUMPI PUSH1 0x0 CALLDATALOAD PUSH1 0xE0 SHR DUP1 PUSH4 0x313CE567 GT PUSH2 0x71 JUMPI DUP1 PUSH4 0x313CE567 EQ PUSH2 0x17B JUMPI DUP1 PUSH4 0x3EAAF86B EQ PUSH2 0x199 JUMPI DUP1 PUSH4 0x5C658165 EQ PUSH2 0x1B7 JUMPI DUP1 PUSH4 0x70A08231 EQ PUSH2 0x1E7 JUMPI DUP1 PUSH4 0xA9059CBB EQ PUSH2 0x217 JUMPI DUP1 PUSH4 0xDD62ED3E EQ PUSH2 0x233 JUMPI PUSH2 0xB4 JUMP JUMPDEST DUP1 PUSH4 0x6FDDE03 EQ PUSH2 0xB9 JUMPI DUP1 PUSH4 0x7546172 EQ PUSH2 0xD7 JUMPI DUP1 PUSH4 0x95EA7B3 EQ PUSH2 0xF5 JUMPI DUP1 PUSH4 0x18160DDD EQ PUSH2 0x111 JUMPI DUP1 PUSH4 0x23B872DD EQ PUSH2 0x12F JUMPI DUP1 PUSH4 0x27E235E3 EQ PUSH2 0x14B JUMPI JUMPDEST PUSH1 0x0 DUP1 REVERT JUMPDEST PUSH2 0xC1 PUSH2 0x263 JUMP JUMPDEST PUSH1 0x40 MLOAD PUSH2 0xCE SWAP2 SWAP1 PUSH2 0xB0E JUMP JUMPDEST PUSH1 0x40 MLOAD DUP1 SWAP2 SUB SWAP1 RETURN JUMPDEST PUSH2 0xDF PUSH2 0x2F1 JUMP JUMPDEST PUSH1 0x40 MLOAD PUSH2 0xEC SWAP2 SWAP1 PUSH2 0xAF3 JUMP JUMPDEST PUSH1 0x40 MLOAD DUP1 SWAP2 SUB SWAP1 RETURN JUMPDEST PUSH2 0x10F PUSH1 0x4 DUP1 CALLDATASIZE SUB DUP2 ADD SWAP1 PUSH2 0x10A SWAP2 SWAP1 PUSH2 0xA5C JUMP JUMPDEST PUSH2 0x317 JUMP JUMPDEST STOP JUMPDEST PUSH2 0x119 PUSH2 0x40F JUMP JUMPDEST PUSH1 0x40 MLOAD PUSH2 0x126 SWAP2 SWAP1 PUSH2 0xB30 JUMP JUMPDEST PUSH1 0x40 MLOAD DUP1 SWAP2 SUB SWAP1 RETURN JUMPDEST PUSH2 0x149 PUSH1 0x4 DUP1 CALLDATASIZE SUB DUP2 ADD SWAP1 PUSH2 0x144 SWAP2 SWAP1 PUSH2 0xA09 JUMP JUMPDEST PUSH2 0x418 JUMP JUMPDEST STOP JUMPDEST PUSH2 0x165 PUSH1 0x4 DUP1 CALLDATASIZE SUB DUP2 ADD SWAP1 PUSH2 0x160 SWAP2 SWAP1 PUSH2 0x99C JUMP JUMPDEST PUSH2 0x67F JUMP JUMPDEST PUSH1 0x40 MLOAD PUSH2 0x172 SWAP2 SWAP1 PUSH2 0xB30 JUMP JUMPDEST PUSH1 0x40 MLOAD DUP1 SWAP2 SUB SWAP1 RETURN JUMPDEST PUSH2 0x183 PUSH2 0x697 JUMP JUMPDEST PUSH1 0x40 MLOAD PUSH2 0x190 SWAP2 SWAP1 PUSH2 0xB30 JUMP JUMPDEST PUSH1 0x40 MLOAD DUP1 SWAP2 SUB SWAP1 RETURN JUMPDEST PUSH2 0x1A1 PUSH2 0x69D JUMP JUMPDEST PUSH1 0x40 MLOAD PUSH2 0x1AE SWAP2 SWAP1 PUSH2 0xB30 JUMP JUMPDEST PUSH1 0x40 MLOAD DUP1 SWAP2 SUB SWAP1 RETURN JUMPDEST PUSH2 0x1D1 PUSH1 0x4 DUP1 CALLDATASIZE SUB DUP2 ADD SWAP1 PUSH2 0x1CC SWAP2 SWAP1 PUSH2 0x9C9 JUMP JUMPDEST PUSH2 0x6A3 JUMP JUMPDEST PUSH1 0x40 MLOAD PUSH2 0x1DE SWAP2 SWAP1 PUSH2 0xB30 JUMP JUMPDEST PUSH1 0x40 MLOAD DUP1 SWAP2 SUB SWAP1 RETURN JUMPDEST PUSH2 0x201 PUSH1 0x4 DUP1 CALLDATASIZE SUB DUP2 ADD SWAP1 PUSH2 0x1FC SWAP2 SWAP1 PUSH2 0x99C JUMP JUMPDEST PUSH2 0x6C8 JUMP JUMPDEST PUSH1 0x40 MLOAD PUSH2 0x20E SWAP2 SWAP1 PUSH2 0xB30 JUMP JUMPDEST PUSH1 0x40 MLOAD DUP1 SWAP2 SUB SWAP1 RETURN JUMPDEST PUSH2 0x231 PUSH1 0x4 DUP1 CALLDATASIZE SUB DUP2 ADD SWAP1 PUSH2 0x22C SWAP2 SWAP1 PUSH2 0xA5C JUMP JUMPDEST PUSH2 0x711 JUMP JUMPDEST STOP JUMPDEST PUSH2 0x24D PUSH1 0x4 DUP1 CALLDATASIZE SUB DUP2 ADD SWAP1 PUSH2 0x248 SWAP2 SWAP1 PUSH2 0x9C9 JUMP JUMPDEST PUSH2 0x8EB JUMP JUMPDEST PUSH1 0x40 MLOAD PUSH2 0x25A SWAP2 SWAP1 PUSH2 0xB30 JUMP JUMPDEST PUSH1 0x40 MLOAD DUP1 SWAP2 SUB SWAP1 RETURN JUMPDEST PUSH1 0x2 DUP1 SLOAD PUSH2 0x270 SWAP1 PUSH2 0xC89 JUMP JUMPDEST DUP1 PUSH1 0x1F ADD PUSH1 0x20 DUP1 SWAP2 DIV MUL PUSH1 0x20 ADD PUSH1 0x40 MLOAD SWAP1 DUP2 ADD PUSH1 0x40 MSTORE DUP1 SWAP3 SWAP2 SWAP1 DUP2 DUP2 MSTORE PUSH1 0x20 ADD DUP3 DUP1 SLOAD PUSH2 0x29C SWAP1 PUSH2 0xC89 JUMP JUMPDEST DUP1 ISZERO PUSH2 0x2E9 JUMPI DUP1 PUSH1 0x1F LT PUSH2 0x2BE JUMPI PUSH2 0x100 DUP1 DUP4 SLOAD DIV MUL DUP4 MSTORE SWAP2 PUSH1 0x20 ADD SWAP2 PUSH2 0x2E9 JUMP JUMPDEST DUP3 ADD SWAP2 SWAP1 PUSH1 0x0 MSTORE PUSH1 0x20 PUSH1 0x0 KECCAK256 SWAP1 JUMPDEST DUP2 SLOAD DUP2 MSTORE SWAP1 PUSH1 0x1 ADD SWAP1 PUSH1 0x20 ADD DUP1 DUP4 GT PUSH2 0x2CC JUMPI DUP3 SWAP1 SUB PUSH1 0x1F AND DUP3 ADD SWAP2 JUMPDEST POP POP POP POP POP DUP2 JUMP JUMPDEST PUSH1 0x1 PUSH1 0x0 SWAP1 SLOAD SWAP1 PUSH2 0x100 EXP SWAP1 DIV PUSH20 0xFFFFFFFFFFFFFFFFFFFFFFFFFFFFFFFFFFFFFFFF AND DUP2 JUMP JUMPDEST PUSH1 0x0 DUP2 EQ ISZERO PUSH2 0x325 JUMPI PUSH1 0x0 DUP1 REVERT JUMPDEST DUP1 PUSH1 0x5 PUSH1 0x0 CALLER PUSH20 0xFFFFFFFFFFFFFFFFFFFFFFFFFFFFFFFFFFFFFFFF AND PUSH20 0xFFFFFFFFFFFFFFFFFFFFFFFFFFFFFFFFFFFFFFFF AND DUP2 MSTORE PUSH1 0x20 ADD SWAP1 DUP2 MSTORE PUSH1 0x20 ADD PUSH1 0x0 KECCAK256 PUSH1 0x0 DUP5 PUSH20 0xFFFFFFFFFFFFFFFFFFFFFFFFFFFFFFFFFFFFFFFF AND PUSH20 0xFFFFFFFFFFFFFFFFFFFFFFFFFFFFFFFFFFFFFFFF AND DUP2 MSTORE PUSH1 0x20 ADD SWAP1 DUP2 MSTORE PUSH1 0x20 ADD PUSH1 0x0 KECCAK256 DUP2 SWAP1 SSTORE POP DUP2 PUSH20 0xFFFFFFFFFFFFFFFFFFFFFFFFFFFFFFFFFFFFFFFF AND CALLER PUSH20 0xFFFFFFFFFFFFFFFFFFFFFFFFFFFFFFFFFFFFFFFF AND PUSH32 0x8C5BE1E5EBEC7D5BD14F71427D1E84F3DD0314C0F7B2291E5B200AC8C7C3B925 DUP4 PUSH1 0x40 MLOAD PUSH2 0x403 SWAP2 SWAP1 PUSH2 0xB30 JUMP JUMPDEST PUSH1 0x40 MLOAD DUP1 SWAP2 SUB SWAP1 LOG3 POP POP JUMP JUMPDEST PUSH1 0x0 DUP1 SLOAD SWAP1 POP SWAP1 JUMP JUMPDEST PUSH1 0x0 PUSH1 0x5 PUSH1 0x0 DUP6 PUSH20 0xFFFFFFFFFFFFFFFFFFFFFFFFFFFFFFFFFFFFFFFF AND PUSH20 0xFFFFFFFFFFFFFFFFFFFFFFFFFFFFFFFFFFFFFFFF AND DUP2 MSTORE PUSH1 0x20 ADD SWAP1 DUP2 MSTORE PUSH1 0x20 ADD PUSH1 0x0 KECCAK256 PUSH1 0x0 CALLER PUSH20 0xFFFFFFFFFFFFFFFFFFFFFFFFFFFFFFFFFFFFFFFF AND PUSH20 0xFFFFFFFFFFFFFFFFFFFFFFFFFFFFFFFFFFFFFFFF AND DUP2 MSTORE PUSH1 0x20 ADD SWAP1 DUP2 MSTORE PUSH1 0x20 ADD PUSH1 0x0 KECCAK256 SLOAD SWAP1 POP DUP2 DUP2 LT DUP1 PUSH2 0x4E5 JUMPI POP PUSH1 0x4 PUSH1 0x0 DUP6 PUSH20 0xFFFFFFFFFFFFFFFFFFFFFFFFFFFFFFFFFFFFFFFF AND PUSH20 0xFFFFFFFFFFFFFFFFFFFFFFFFFFFFFFFFFFFFFFFF AND DUP2 MSTORE PUSH1 0x20 ADD SWAP1 DUP2 MSTORE PUSH1 0x20 ADD PUSH1 0x0 KECCAK256 SLOAD DUP3 GT JUMPDEST ISZERO PUSH2 0x568 JUMPI DUP2 PUSH1 0x4 PUSH1 0x0 DUP7 PUSH20 0xFFFFFFFFFFFFFFFFFFFFFFFFFFFFFFFFFFFFFFFF AND PUSH20 0xFFFFFFFFFFFFFFFFFFFFFFFFFFFFFFFFFFFFFFFF AND DUP2 MSTORE PUSH1 0x20 ADD SWAP1 DUP2 MSTORE PUSH1 0x20 ADD PUSH1 0x0 KECCAK256 SLOAD PUSH1 0x40 MLOAD PUSH32 0xEC0AE9CF00000000000000000000000000000000000000000000000000000000 DUP2 MSTORE PUSH1 0x4 ADD PUSH2 0x55F SWAP3 SWAP2 SWAP1 PUSH2 0xB4B JUMP JUMPDEST PUSH1 0x40 MLOAD DUP1 SWAP2 SUB SWAP1 REVERT JUMPDEST DUP2 PUSH1 0x4 PUSH1 0x0 DUP7 PUSH20 0xFFFFFFFFFFFFFFFFFFFFFFFFFFFFFFFFFFFFFFFF AND PUSH20 0xFFFFFFFFFFFFFFFFFFFFFFFFFFFFFFFFFFFFFFFF AND DUP2 MSTORE PUSH1 0x20 ADD SWAP1 DUP2 MSTORE PUSH1 0x20 ADD PUSH1 0x0 KECCAK256 PUSH1 0x0 DUP3 DUP3 SLOAD PUSH2 0x5B7 SWAP2 SWAP1 PUSH2 0xBE6 JUMP JUMPDEST SWAP3 POP POP DUP2 SWAP1 SSTORE POP DUP2 PUSH1 0x4 PUSH1 0x0 DUP6 PUSH20 0xFFFFFFFFFFFFFFFFFFFFFFFFFFFFFFFFFFFFFFFF AND PUSH20 0xFFFFFFFFFFFFFFFFFFFFFFFFFFFFFFFFFFFFFFFF AND DUP2 MSTORE PUSH1 0x20 ADD SWAP1 DUP2 MSTORE PUSH1 0x20 ADD PUSH1 0x0 KECCAK256 PUSH1 0x0 DUP3 DUP3 SLOAD PUSH2 0x60D SWAP2 SWAP1 PUSH2 0xB90 JUMP JUMPDEST SWAP3 POP POP DUP2 SWAP1 SSTORE POP DUP3 PUSH20 0xFFFFFFFFFFFFFFFFFFFFFFFFFFFFFFFFFFFFFFFF AND DUP5 PUSH20 0xFFFFFFFFFFFFFFFFFFFFFFFFFFFFFFFFFFFFFFFF AND PUSH32 0xDDF252AD1BE2C89B69C2B068FC378DAA952BA7F163C4A11628F55A4DF523B3EF DUP5 PUSH1 0x40 MLOAD PUSH2 0x671 SWAP2 SWAP1 PUSH2 0xB30 JUMP JUMPDEST PUSH1 0x40 MLOAD DUP1 SWAP2 SUB SWAP1 LOG3 POP POP POP POP JUMP JUMPDEST PUSH1 0x4 PUSH1 0x20 MSTORE DUP1 PUSH1 0x0 MSTORE PUSH1 0x40 PUSH1 0x0 KECCAK256 PUSH1 0x0 SWAP2 POP SWAP1 POP SLOAD DUP2 JUMP JUMPDEST PUSH1 0x3 SLOAD DUP2 JUMP JUMPDEST PUSH1 0x0 SLOAD DUP2 JUMP JUMPDEST PUSH1 0x5 PUSH1 0x20 MSTORE DUP2 PUSH1 0x0 MSTORE PUSH1 0x40 PUSH1 0x0 KECCAK256 PUSH1 0x20 MSTORE DUP1 PUSH1 0x0 MSTORE PUSH1 0x40 PUSH1 0x0 KECCAK256 PUSH1 0x0 SWAP2 POP SWAP2 POP POP SLOAD DUP2 JUMP JUMPDEST PUSH1 0x0 PUSH1 0x4 PUSH1 0x0 DUP4 PUSH20 0xFFFFFFFFFFFFFFFFFFFFFFFFFFFFFFFFFFFFFFFF AND PUSH20 0xFFFFFFFFFFFFFFFFFFFFFFFFFFFFFFFFFFFFFFFF AND DUP2 MSTORE PUSH1 0x20 ADD SWAP1 DUP2 MSTORE PUSH1 0x20 ADD PUSH1 0x0 KECCAK256 SLOAD SWAP1 POP SWAP2 SWAP1 POP JUMP JUMPDEST PUSH1 0x4 PUSH1 0x0 CALLER PUSH20 0xFFFFFFFFFFFFFFFFFFFFFFFFFFFFFFFFFFFFFFFF AND PUSH20 0xFFFFFFFFFFFFFFFFFFFFFFFFFFFFFFFFFFFFFFFF AND DUP2 MSTORE PUSH1 0x20 ADD SWAP1 DUP2 MSTORE PUSH1 0x20 ADD PUSH1 0x0 KECCAK256 SLOAD DUP2 GT ISZERO PUSH2 0x7D6 JUMPI DUP1 PUSH1 0x4 PUSH1 0x0 CALLER PUSH20 0xFFFFFFFFFFFFFFFFFFFFFFFFFFFFFFFFFFFFFFFF AND PUSH20 0xFFFFFFFFFFFFFFFFFFFFFFFFFFFFFFFFFFFFFFFF AND DUP2 MSTORE PUSH1 0x20 ADD SWAP1 DUP2 MSTORE PUSH1 0x20 ADD PUSH1 0x0 KECCAK256 SLOAD PUSH1 0x40 MLOAD PUSH32 0xEC0AE9CF00000000000000000000000000000000000000000000000000000000 DUP2 MSTORE PUSH1 0x4 ADD PUSH2 0x7CD SWAP3 SWAP2 SWAP1 PUSH2 0xB4B JUMP JUMPDEST PUSH1 0x40 MLOAD DUP1 SWAP2 SUB SWAP1 REVERT JUMPDEST DUP1 PUSH1 0x4 PUSH1 0x0 CALLER PUSH20 0xFFFFFFFFFFFFFFFFFFFFFFFFFFFFFFFFFFFFFFFF AND PUSH20 0xFFFFFFFFFFFFFFFFFFFFFFFFFFFFFFFFFFFFFFFF AND DUP2 MSTORE PUSH1 0x20 ADD SWAP1 DUP2 MSTORE PUSH1 0x20 ADD PUSH1 0x0 KECCAK256 PUSH1 0x0 DUP3 DUP3 SLOAD PUSH2 0x825 SWAP2 SWAP1 PUSH2 0xBE6 JUMP JUMPDEST SWAP3 POP POP DUP2 SWAP1 SSTORE POP DUP1 PUSH1 0x4 PUSH1 0x0 DUP5 PUSH20 0xFFFFFFFFFFFFFFFFFFFFFFFFFFFFFFFFFFFFFFFF AND PUSH20 0xFFFFFFFFFFFFFFFFFFFFFFFFFFFFFFFFFFFFFFFF AND DUP2 MSTORE PUSH1 0x20 ADD SWAP1 DUP2 MSTORE PUSH1 0x20 ADD PUSH1 0x0 KECCAK256 PUSH1 0x0 DUP3 DUP3 SLOAD PUSH2 0x87B SWAP2 SWAP1 PUSH2 0xB90 JUMP JUMPDEST SWAP3 POP POP DUP2 SWAP1 SSTORE POP DUP2 PUSH20 0xFFFFFFFFFFFFFFFFFFFFFFFFFFFFFFFFFFFFFFFF AND CALLER PUSH20 0xFFFFFFFFFFFFFFFFFFFFFFFFFFFFFFFFFFFFFFFF AND PUSH32 0xDDF252AD1BE2C89B69C2B068FC378DAA952BA7F163C4A11628F55A4DF523B3EF DUP4 PUSH1 0x40 MLOAD PUSH2 0x8DF SWAP2 SWAP1 PUSH2 0xB30 JUMP JUMPDEST PUSH1 0x40 MLOAD DUP1 SWAP2 SUB SWAP1 LOG3 POP POP JUMP JUMPDEST PUSH1 0x0 PUSH1 0x5 PUSH1 0x0 DUP5 PUSH20 0xFFFFFFFFFFFFFFFFFFFFFFFFFFFFFFFFFFFFFFFF AND PUSH20 0xFFFFFFFFFFFFFFFFFFFFFFFFFFFFFFFFFFFFFFFF AND DUP2 MSTORE PUSH1 0x20 ADD SWAP1 DUP2 MSTORE PUSH1 0x20 ADD PUSH1 0x0 KECCAK256 PUSH1 0x0 DUP4 PUSH20 0xFFFFFFFFFFFFFFFFFFFFFFFFFFFFFFFFFFFFFFFF AND PUSH20 0xFFFFFFFFFFFFFFFFFFFFFFFFFFFFFFFFFFFFFFFF AND DUP2 MSTORE PUSH1 0x20 ADD SWAP1 DUP2 MSTORE PUSH1 0x20 ADD PUSH1 0x0 KECCAK256 SLOAD SWAP1 POP SWAP3 SWAP2 POP POP JUMP JUMPDEST PUSH1 0x0 DUP2 CALLDATALOAD SWAP1 POP PUSH2 0x981 DUP2 PUSH2 0xD2F JUMP JUMPDEST SWAP3 SWAP2 POP POP JUMP JUMPDEST PUSH1 0x0 DUP2 CALLDATALOAD SWAP1 POP PUSH2 0x996 DUP2 PUSH2 0xD46 JUMP JUMPDEST SWAP3 SWAP2 POP POP JUMP JUMPDEST PUSH1 0x0 PUSH1 0x20 DUP3 DUP5 SUB SLT ISZERO PUSH2 0x9B2 JUMPI PUSH2 0x9B1 PUSH2 0xD19 JUMP JUMPDEST JUMPDEST PUSH1 0x0 PUSH2 0x9C0 DUP5 DUP3 DUP6 ADD PUSH2 0x972 JUMP JUMPDEST SWAP2 POP POP SWAP3 SWAP2 POP POP JUMP JUMPDEST PUSH1 0x0 DUP1 PUSH1 0x40 DUP4 DUP6 SUB SLT ISZERO PUSH2 0x9E0 JUMPI PUSH2 0x9DF PUSH2 0xD19 JUMP JUMPDEST JUMPDEST PUSH1 0x0 PUSH2 0x9EE DUP6 DUP3 DUP7 ADD PUSH2 0x972 JUMP JUMPDEST SWAP3 POP POP PUSH1 0x20 PUSH2 0x9FF DUP6 DUP3 DUP7 ADD PUSH2 0x972 JUMP JUMPDEST SWAP2 POP POP SWAP3 POP SWAP3 SWAP1 POP JUMP JUMPDEST PUSH1 0x0 DUP1 PUSH1 0x0 PUSH1 0x60 DUP5 DUP7 SUB SLT ISZERO PUSH2 0xA22 JUMPI PUSH2 0xA21 PUSH2 0xD19 JUMP JUMPDEST JUMPDEST PUSH1 0x0 PUSH2 0xA30 DUP7 DUP3 DUP8 ADD PUSH2 0x972 JUMP JUMPDEST SWAP4 POP POP PUSH1 0x20 PUSH2 0xA41 DUP7 DUP3 DUP8 ADD PUSH2 0x972 JUMP JUMPDEST SWAP3 POP POP PUSH1 0x40 PUSH2 0xA52 DUP7 DUP3 DUP8 ADD PUSH2 0x987 JUMP JUMPDEST SWAP2 POP POP SWAP3 POP SWAP3 POP SWAP3 JUMP JUMPDEST PUSH1 0x0 DUP1 PUSH1 0x40 DUP4 DUP6 SUB SLT ISZERO PUSH2 0xA73 JUMPI PUSH2 0xA72 PUSH2 0xD19 JUMP JUMPDEST JUMPDEST PUSH1 0x0 PUSH2 0xA81 DUP6 DUP3 DUP7 ADD PUSH2 0x972 JUMP JUMPDEST SWAP3 POP POP PUSH1 0x20 PUSH2 0xA92 DUP6 DUP3 DUP7 ADD PUSH2 0x987 JUMP JUMPDEST SWAP2 POP POP SWAP3 POP SWAP3 SWAP1 POP JUMP JUMPDEST PUSH2 0xAA5 DUP2 PUSH2 0xC1A JUMP JUMPDEST DUP3 MSTORE POP POP JUMP JUMPDEST PUSH1 0x0 PUSH2 0xAB6 DUP3 PUSH2 0xB74 JUMP JUMPDEST PUSH2 0xAC0 DUP2 DUP6 PUSH2 0xB7F JUMP JUMPDEST SWAP4 POP PUSH2 0xAD0 DUP2 DUP6 PUSH1 0x20 DUP7 ADD PUSH2 0xC56 JUMP JUMPDEST PUSH2 0xAD9 DUP2 PUSH2 0xD1E JUMP JUMPDEST DUP5 ADD SWAP2 POP POP SWAP3 SWAP2 POP POP JUMP JUMPDEST PUSH2 0xAED DUP2 PUSH2 0xC4C JUMP JUMPDEST DUP3 MSTORE POP POP JUMP JUMPDEST PUSH1 0x0 PUSH1 0x20 DUP3 ADD SWAP1 POP PUSH2 0xB08 PUSH1 0x0 DUP4 ADD DUP5 PUSH2 0xA9C JUMP JUMPDEST SWAP3 SWAP2 POP POP JUMP JUMPDEST PUSH1 0x0 PUSH1 0x20 DUP3 ADD SWAP1 POP DUP2 DUP2 SUB PUSH1 0x0 DUP4 ADD MSTORE PUSH2 0xB28 DUP2 DUP5 PUSH2 0xAAB JUMP JUMPDEST SWAP1 POP SWAP3 SWAP2 POP POP JUMP JUMPDEST PUSH1 0x0 PUSH1 0x20 DUP3 ADD SWAP1 POP PUSH2 0xB45 PUSH1 0x0 DUP4 ADD DUP5 PUSH2 0xAE4 JUMP JUMPDEST SWAP3 SWAP2 POP POP JUMP JUMPDEST PUSH1 0x0 PUSH1 0x40 DUP3 ADD SWAP1 POP PUSH2 0xB60 PUSH1 0x0 DUP4 ADD DUP6 PUSH2 0xAE4 JUMP JUMPDEST PUSH2 0xB6D PUSH1 0x20 DUP4 ADD DUP5 PUSH2 0xAE4 JUMP JUMPDEST SWAP4 SWAP3 POP POP POP JUMP JUMPDEST PUSH1 0x0 DUP2 MLOAD SWAP1 POP SWAP2 SWAP1 POP JUMP JUMPDEST PUSH1 0x0 DUP3 DUP3 MSTORE PUSH1 0x20 DUP3 ADD SWAP1 POP SWAP3 SWAP2 POP POP JUMP JUMPDEST PUSH1 0x0 PUSH2 0xB9B DUP3 PUSH2 0xC4C JUMP JUMPDEST SWAP2 POP PUSH2 0xBA6 DUP4 PUSH2 0xC4C JUMP JUMPDEST SWAP3 POP DUP3 PUSH32 0xFFFFFFFFFFFFFFFFFFFFFFFFFFFFFFFFFFFFFFFFFFFFFFFFFFFFFFFFFFFFFFFF SUB DUP3 GT ISZERO PUSH2 0xBDB JUMPI PUSH2 0xBDA PUSH2 0xCBB JUMP JUMPDEST JUMPDEST DUP3 DUP3 ADD SWAP1 POP SWAP3 SWAP2 POP POP JUMP JUMPDEST PUSH1 0x0 PUSH2 0xBF1 DUP3 PUSH2 0xC4C JUMP JUMPDEST SWAP2 POP PUSH2 0xBFC DUP4 PUSH2 0xC4C JUMP JUMPDEST SWAP3 POP DUP3 DUP3 LT ISZERO PUSH2 0xC0F JUMPI PUSH2 0xC0E PUSH2 0xCBB JUMP JUMPDEST JUMPDEST DUP3 DUP3 SUB SWAP1 POP SWAP3 SWAP2 POP POP JUMP JUMPDEST PUSH1 0x0 PUSH2 0xC25 DUP3 PUSH2 0xC2C JUMP JUMPDEST SWAP1 POP SWAP2 SWAP1 POP JUMP JUMPDEST PUSH1 0x0 PUSH20 0xFFFFFFFFFFFFFFFFFFFFFFFFFFFFFFFFFFFFFFFF DUP3 AND SWAP1 POP SWAP2 SWAP1 POP JUMP JUMPDEST PUSH1 0x0 DUP2 SWAP1 POP SWAP2 SWAP1 POP JUMP JUMPDEST PUSH1 0x0 JUMPDEST DUP4 DUP2 LT ISZERO PUSH2 0xC74 JUMPI DUP1 DUP3 ADD MLOAD DUP2 DUP5 ADD MSTORE PUSH1 0x20 DUP2 ADD SWAP1 POP PUSH2 0xC59 JUMP JUMPDEST DUP4 DUP2 GT ISZERO PUSH2 0xC83 JUMPI PUSH1 0x0 DUP5 DUP5 ADD MSTORE JUMPDEST POP POP POP POP JUMP JUMPDEST PUSH1 0x0 PUSH1 0x2 DUP3 DIV SWAP1 POP PUSH1 0x1 DUP3 AND DUP1 PUSH2 0xCA1 JUMPI PUSH1 0x7F DUP3 AND SWAP2 POP JUMPDEST PUSH1 0x20 DUP3 LT DUP2 EQ ISZERO PUSH2 0xCB5 JUMPI PUSH2 0xCB4 PUSH2 0xCEA JUMP JUMPDEST JUMPDEST POP SWAP2 SWAP1 POP JUMP JUMPDEST PUSH32 0x4E487B7100000000000000000000000000000000000000000000000000000000 PUSH1 0x0 MSTORE PUSH1 0x11 PUSH1 0x4 MSTORE PUSH1 0x24 PUSH1 0x0 REVERT JUMPDEST PUSH32 0x4E487B7100000000000000000000000000000000000000000000000000000000 PUSH1 0x0 MSTORE PUSH1 0x22 PUSH1 0x4 MSTORE PUSH1 0x24 PUSH1 0x0 REVERT JUMPDEST PUSH1 0x0 DUP1 REVERT JUMPDEST PUSH1 0x0 PUSH1 0x1F NOT PUSH1 0x1F DUP4 ADD AND SWAP1 POP SWAP2 SWAP1 POP JUMP JUMPDEST PUSH2 0xD38 DUP2 PUSH2 0xC1A JUMP JUMPDEST DUP2 EQ PUSH2 0xD43 JUMPI PUSH1 0x0 DUP1 REVERT JUMPDEST POP JUMP JUMPDEST PUSH2 0xD4F DUP2 PUSH2 0xC4C JUMP JUMPDEST DUP2 EQ PUSH2 0xD5A JUMPI PUSH1 0x0 DUP1 REVERT JUMPDEST POP JUMP INVALID LOG2 PUSH5 0x6970667358 0x22 SLT KECCAK256 0xD6 PUSH2 0x3972 0xAD LOG3 0xBC 0xD6 0xE4 0xB2 0xF6 SLT PUSH7 0x4504FC006D7A00 0xB0 0xEC SLOAD GT 0x49 0x28 0xE3 0xC8 PUSH21 0xC6ACED64736F6C6343000807003300000000000000 "
				},
				"gasEstimates": {
					"creation": {
						"codeDepositCost": "695000",
						"executionCost": "infinite",
						"totalCost": "infinite"
					},
					"external": {
						"_totalSupply()": "2451",
						"allowance(address,address)": "infinite",
						"allowed(address,address)": "infinite",
						"approve(address,uint256)": "infinite",
						"balanceOf(address)": "2907",
						"balances(address)": "2925",
						"decimals()": "2429",
						"minter()": "2537",
						"name()": "infinite",
						"totalSupply()": "2504",
						"transfer(address,uint256)": "infinite",
						"transferFrom(address,address,uint256)": "infinite"
					},
					"internal": {
						"mint(uint256)": "infinite"
					}
				},
				"methodIdentifiers": {
					"_totalSupply()": "3eaaf86b",
					"allowance(address,address)": "dd62ed3e",
					"allowed(address,address)": "5c658165",
					"approve(address,uint256)": "095ea7b3",
					"balanceOf(address)": "70a08231",
					"balances(address)": "27e235e3",
					"decimals()": "313ce567",
					"minter()": "07546172",
					"name()": "06fdde03",
					"totalSupply()": "18160ddd",
					"transfer(address,uint256)": "a9059cbb",
					"transferFrom(address,address,uint256)": "23b872dd"
				}
			},
			"storageLayout": {
				"storage": [
					{
						"astId": 66,
						"contract": "gitpopu/solidity/Napolite/contracts/token.sol:token",
						"label": "_totalSupply",
						"offset": 0,
						"slot": "0",
						"type": "t_uint256"
					},
					{
						"astId": 68,
						"contract": "gitpopu/solidity/Napolite/contracts/token.sol:token",
						"label": "minter",
						"offset": 0,
						"slot": "1",
						"type": "t_address"
					},
					{
						"astId": 70,
						"contract": "gitpopu/solidity/Napolite/contracts/token.sol:token",
						"label": "name",
						"offset": 0,
						"slot": "2",
						"type": "t_string_storage"
					},
					{
						"astId": 72,
						"contract": "gitpopu/solidity/Napolite/contracts/token.sol:token",
						"label": "decimals",
						"offset": 0,
						"slot": "3",
						"type": "t_uint256"
					},
					{
						"astId": 76,
						"contract": "gitpopu/solidity/Napolite/contracts/token.sol:token",
						"label": "balances",
						"offset": 0,
						"slot": "4",
						"type": "t_mapping(t_address,t_uint256)"
					},
					{
						"astId": 82,
						"contract": "gitpopu/solidity/Napolite/contracts/token.sol:token",
						"label": "allowed",
						"offset": 0,
						"slot": "5",
						"type": "t_mapping(t_address,t_mapping(t_address,t_uint256))"
					}
				],
				"types": {
					"t_address": {
						"encoding": "inplace",
						"label": "address",
						"numberOfBytes": "20"
					},
					"t_mapping(t_address,t_mapping(t_address,t_uint256))": {
						"encoding": "mapping",
						"key": "t_address",
						"label": "mapping(address => mapping(address => uint256))",
						"numberOfBytes": "32",
						"value": "t_mapping(t_address,t_uint256)"
					},
					"t_mapping(t_address,t_uint256)": {
						"encoding": "mapping",
						"key": "t_address",
						"label": "mapping(address => uint256)",
						"numberOfBytes": "32",
						"value": "t_uint256"
					},
					"t_string_storage": {
						"encoding": "bytes",
						"label": "string",
						"numberOfBytes": "32"
					},
					"t_uint256": {
						"encoding": "inplace",
						"label": "uint256",
						"numberOfBytes": "32"
					}
				}
			},
			"userdoc": {
				"kind": "user",
				"methods": {},
				"version": 1
			}
		}
	}
}