{
	"gitpopu/solidity/Napolite/contracts/token.sol": {
		"token": {
			"abi": [
				{
					"inputs": [],
					"stateMutability": "nonpayable",
					"type": "constructor"
				},
				{
					"inputs": [
						{
							"internalType": "uint256",
							"name": "requested",
							"type": "uint256"
						},
						{
							"internalType": "uint256",
							"name": "available",
							"type": "uint256"
						}
					],
					"name": "InsuficientBalance",
					"type": "error"
				},
				{
					"anonymous": false,
					"inputs": [
						{
							"indexed": true,
							"internalType": "address",
							"name": "owner",
							"type": "address"
						},
						{
							"indexed": true,
							"internalType": "address",
							"name": "spender",
							"type": "address"
						},
						{
							"indexed": false,
							"internalType": "uint256",
							"name": "value",
							"type": "uint256"
						}
					],
					"name": "Approval",
					"type": "event"
				},
				{
					"anonymous": false,
					"inputs": [
						{
							"indexed": true,
							"internalType": "address",
							"name": "from",
							"type": "address"
						},
						{
							"indexed": true,
							"internalType": "address",
							"name": "to",
							"type": "address"
						},
						{
							"indexed": false,
							"internalType": "uint256",
							"name": "value",
							"type": "uint256"
						}
					],
					"name": "Transfer",
					"type": "event"
				},
				{
					"inputs": [],
					"name": "Owner",
					"outputs": [
						{
							"internalType": "address",
							"name": "",
							"type": "address"
						}
					],
					"stateMutability": "view",
					"type": "function"
				},
				{
					"inputs": [],
					"name": "_name",
					"outputs": [
						{
							"internalType": "string",
							"name": "",
							"type": "string"
						}
					],
					"stateMutability": "view",
					"type": "function"
				},
				{
					"inputs": [],
					"name": "_symbol",
					"outputs": [
						{
							"internalType": "string",
							"name": "",
							"type": "string"
						}
					],
					"stateMutability": "view",
					"type": "function"
				},
				{
					"inputs": [],
					"name": "_totalSupply",
					"outputs": [
						{
							"internalType": "uint256",
							"name": "",
							"type": "uint256"
						}
					],
					"stateMutability": "view",
					"type": "function"
				},
				{
					"inputs": [
						{
							"internalType": "address",
							"name": "owner",
							"type": "address"
						},
						{
							"internalType": "address",
							"name": "spender",
							"type": "address"
						}
					],
					"name": "allowance",
					"outputs": [
						{
							"internalType": "uint256",
							"name": "",
							"type": "uint256"
						}
					],
					"stateMutability": "view",
					"type": "function"
				},
				{
					"inputs": [
						{
							"internalType": "address",
							"name": "",
							"type": "address"
						},
						{
							"internalType": "address",
							"name": "",
							"type": "address"
						}
					],
					"name": "allowed",
					"outputs": [
						{
							"internalType": "uint256",
							"name": "",
							"type": "uint256"
						}
					],
					"stateMutability": "view",
					"type": "function"
				},
				{
					"inputs": [
						{
							"internalType": "address",
							"name": "spender",
							"type": "address"
						},
						{
							"internalType": "uint256",
							"name": "amount",
							"type": "uint256"
						}
					],
					"name": "approve",
					"outputs": [],
					"stateMutability": "nonpayable",
					"type": "function"
				},
				{
					"inputs": [
						{
							"internalType": "address",
							"name": "who",
							"type": "address"
						}
					],
					"name": "balanceOf",
					"outputs": [
						{
							"internalType": "uint256",
							"name": "",
							"type": "uint256"
						}
					],
					"stateMutability": "view",
					"type": "function"
				},
				{
					"inputs": [
						{
							"internalType": "address",
							"name": "",
							"type": "address"
						}
					],
					"name": "balances",
					"outputs": [
						{
							"internalType": "uint256",
							"name": "",
							"type": "uint256"
						}
					],
					"stateMutability": "view",
					"type": "function"
				},
				{
					"inputs": [],
					"name": "contractOwner",
					"outputs": [
						{
							"internalType": "address",
							"name": "",
							"type": "address"
						}
					],
					"stateMutability": "view",
					"type": "function"
				},
				{
					"inputs": [],
					"name": "decimals",
					"outputs": [
						{
							"internalType": "uint256",
							"name": "",
							"type": "uint256"
						}
					],
					"stateMutability": "view",
					"type": "function"
				},
				{
					"inputs": [],
					"name": "name",
					"outputs": [
						{
							"internalType": "string",
							"name": "",
							"type": "string"
						}
					],
					"stateMutability": "view",
					"type": "function"
				},
				{
					"inputs": [],
					"name": "symbol",
					"outputs": [
						{
							"internalType": "string",
							"name": "",
							"type": "string"
						}
					],
					"stateMutability": "view",
					"type": "function"
				},
				{
					"inputs": [],
					"name": "totalSupply",
					"outputs": [
						{
							"internalType": "uint256",
							"name": "",
							"type": "uint256"
						}
					],
					"stateMutability": "view",
					"type": "function"
				},
				{
					"inputs": [
						{
							"internalType": "address",
							"name": "receiver",
							"type": "address"
						},
						{
							"internalType": "uint256",
							"name": "amount",
							"type": "uint256"
						}
					],
					"name": "transfer",
					"outputs": [],
					"stateMutability": "nonpayable",
					"type": "function"
				},
				{
					"inputs": [
						{
							"internalType": "address",
							"name": "from",
							"type": "address"
						},
						{
							"internalType": "address",
							"name": "to",
							"type": "address"
						},
						{
							"internalType": "uint256",
							"name": "amount",
							"type": "uint256"
						}
					],
					"name": "transferFrom",
					"outputs": [],
					"stateMutability": "nonpayable",
					"type": "function"
				},
				{
					"inputs": [
						{
							"internalType": "address",
							"name": "newOwner",
							"type": "address"
						}
					],
					"name": "transferOwnership",
					"outputs": [],
					"stateMutability": "nonpayable",
					"type": "function"
				}
			],
			"devdoc": {
				"kind": "dev",
				"methods": {},
				"version": 1
			},
			"evm": {
				"assembly": "    /* \"gitpopu/solidity/Napolite/contracts/token.sol\":884:3661  contract token is ERC20, Ownable {... */\n  mstore(0x40, 0x80)\n    /* \"gitpopu/solidity/Napolite/contracts/token.sol\":1184:1318  constructor() {... */\n  callvalue\n  dup1\n  iszero\n  tag_1\n  jumpi\n  0x00\n  dup1\n  revert\ntag_1:\n  pop\n    /* \"gitpopu/solidity/Napolite/contracts/token.sol\":1224:1234  msg.sender */\n  caller\n    /* \"gitpopu/solidity/Napolite/contracts/token.sol\":1208:1221  contractOwner */\n  0x01\n  0x00\n    /* \"gitpopu/solidity/Napolite/contracts/token.sol\":1208:1234  contractOwner = msg.sender */\n  0x0100\n  exp\n  dup2\n  sload\n  dup2\n  0xffffffffffffffffffffffffffffffffffffffff\n  mul\n  not\n  and\n  swap1\n  dup4\n  0xffffffffffffffffffffffffffffffffffffffff\n  and\n  mul\n  or\n  swap1\n  sstore\n  pop\n    /* \"gitpopu/solidity/Napolite/contracts/token.sol\":1244:1260  _name=\"Napolite\" */\n  mload(0x40)\n  dup1\n  0x40\n  add\n  0x40\n  mstore\n  dup1\n  0x08\n  dup2\n  mstore\n  0x20\n  add\n  0x4e61706f6c697465000000000000000000000000000000000000000000000000\n  dup2\n  mstore\n  pop\n    /* \"gitpopu/solidity/Napolite/contracts/token.sol\":1244:1249  _name */\n  0x02\n    /* \"gitpopu/solidity/Napolite/contracts/token.sol\":1244:1260  _name=\"Napolite\" */\n  swap1\n  dup1\n  mload\n  swap1\n  0x20\n  add\n  swap1\n  tag_4\n  swap3\n  swap2\n  swap1\n  tag_5\n  jump\t// in\ntag_4:\n  pop\n    /* \"gitpopu/solidity/Napolite/contracts/token.sol\":1270:1285  _symbol = \"Nap\" */\n  mload(0x40)\n  dup1\n  0x40\n  add\n  0x40\n  mstore\n  dup1\n  0x03\n  dup2\n  mstore\n  0x20\n  add\n  0x4e61700000000000000000000000000000000000000000000000000000000000\n  dup2\n  mstore\n  pop\n    /* \"gitpopu/solidity/Napolite/contracts/token.sol\":1270:1277  _symbol */\n  0x03\n    /* \"gitpopu/solidity/Napolite/contracts/token.sol\":1270:1285  _symbol = \"Nap\" */\n  swap1\n  dup1\n  mload\n  swap1\n  0x20\n  add\n  swap1\n  tag_6\n  swap3\n  swap2\n  swap1\n  tag_5\n  jump\t// in\ntag_6:\n  pop\n    /* \"gitpopu/solidity/Napolite/contracts/token.sol\":1295:1311  mint(1000000000) */\n  tag_7\n    /* \"gitpopu/solidity/Napolite/contracts/token.sol\":1300:1310  1000000000 */\n  0x3b9aca00\n    /* \"gitpopu/solidity/Napolite/contracts/token.sol\":1295:1299  mint */\n  shl(0x20, tag_8)\n    /* \"gitpopu/solidity/Napolite/contracts/token.sol\":1295:1311  mint(1000000000) */\n  0x20\n  shr\n  jump\t// in\ntag_7:\n    /* \"gitpopu/solidity/Napolite/contracts/token.sol\":884:3661  contract token is ERC20, Ownable {... */\n  jump(tag_9)\n    /* \"gitpopu/solidity/Napolite/contracts/token.sol\":1325:1491  function mint(uint256 amount) private {... */\ntag_8:\n    /* \"gitpopu/solidity/Napolite/contracts/token.sol\":1395:1408  contractOwner */\n  0x01\n  0x00\n  swap1\n  sload\n  swap1\n  0x0100\n  exp\n  swap1\n  div\n  0xffffffffffffffffffffffffffffffffffffffff\n  and\n    /* \"gitpopu/solidity/Napolite/contracts/token.sol\":1381:1408  msg.sender == contractOwner */\n  0xffffffffffffffffffffffffffffffffffffffff\n  and\n    /* \"gitpopu/solidity/Napolite/contracts/token.sol\":1381:1391  msg.sender */\n  caller\n    /* \"gitpopu/solidity/Napolite/contracts/token.sol\":1381:1408  msg.sender == contractOwner */\n  0xffffffffffffffffffffffffffffffffffffffff\n  and\n  eq\n    /* \"gitpopu/solidity/Napolite/contracts/token.sol\":1373:1409  require(msg.sender == contractOwner) */\n  tag_11\n  jumpi\n  0x00\n  dup1\n  revert\ntag_11:\n    /* \"gitpopu/solidity/Napolite/contracts/token.sol\":1446:1452  amount */\n  dup1\n    /* \"gitpopu/solidity/Napolite/contracts/token.sol\":1419:1427  balances */\n  0x05\n    /* \"gitpopu/solidity/Napolite/contracts/token.sol\":1419:1442  balances[contractOwner] */\n  0x00\n    /* \"gitpopu/solidity/Napolite/contracts/token.sol\":1428:1441  contractOwner */\n  0x01\n  0x00\n  swap1\n  sload\n  swap1\n  0x0100\n  exp\n  swap1\n  div\n  0xffffffffffffffffffffffffffffffffffffffff\n  and\n    /* \"gitpopu/solidity/Napolite/contracts/token.sol\":1419:1442  balances[contractOwner] */\n  0xffffffffffffffffffffffffffffffffffffffff\n  and\n  0xffffffffffffffffffffffffffffffffffffffff\n  and\n  dup2\n  mstore\n  0x20\n  add\n  swap1\n  dup2\n  mstore\n  0x20\n  add\n  0x00\n  keccak256\n  0x00\n    /* \"gitpopu/solidity/Napolite/contracts/token.sol\":1419:1452  balances[contractOwner] += amount */\n  dup3\n  dup3\n  sload\n  tag_12\n  swap2\n  swap1\n  tag_13\n  jump\t// in\ntag_12:\n  swap3\n  pop\n  pop\n  dup2\n  swap1\n  sstore\n  pop\n    /* \"gitpopu/solidity/Napolite/contracts/token.sol\":1478:1484  amount */\n  dup1\n    /* \"gitpopu/solidity/Napolite/contracts/token.sol\":1462:1474  _totalSupply */\n  0x00\n  dup1\n    /* \"gitpopu/solidity/Napolite/contracts/token.sol\":1462:1484  _totalSupply += amount */\n  dup3\n  dup3\n  sload\n  tag_14\n  swap2\n  swap1\n  tag_13\n  jump\t// in\ntag_14:\n  swap3\n  pop\n  pop\n  dup2\n  swap1\n  sstore\n  pop\n    /* \"gitpopu/solidity/Napolite/contracts/token.sol\":1325:1491  function mint(uint256 amount) private {... */\n  pop\n  jump\t// out\n    /* \"gitpopu/solidity/Napolite/contracts/token.sol\":884:3661  contract token is ERC20, Ownable {... */\ntag_5:\n  dup3\n  dup1\n  sload\n  tag_15\n  swap1\n  tag_16\n  jump\t// in\ntag_15:\n  swap1\n  0x00\n  mstore\n  keccak256(0x00, 0x20)\n  swap1\n  0x1f\n  add\n  0x20\n  swap1\n  div\n  dup2\n  add\n  swap3\n  dup3\n  tag_18\n  jumpi\n  0x00\n  dup6\n  sstore\n  jump(tag_17)\ntag_18:\n  dup3\n  0x1f\n  lt\n  tag_19\n  jumpi\n  dup1\n  mload\n  not(0xff)\n  and\n  dup4\n  dup1\n  add\n  or\n  dup6\n  sstore\n  jump(tag_17)\ntag_19:\n  dup3\n  dup1\n  add\n  0x01\n  add\n  dup6\n  sstore\n  dup3\n  iszero\n  tag_17\n  jumpi\n  swap2\n  dup3\n  add\ntag_20:\n  dup3\n  dup2\n  gt\n  iszero\n  tag_21\n  jumpi\n  dup3\n  mload\n  dup3\n  sstore\n  swap2\n  0x20\n  add\n  swap2\n  swap1\n  0x01\n  add\n  swap1\n  jump(tag_20)\ntag_21:\ntag_17:\n  pop\n  swap1\n  pop\n  tag_22\n  swap2\n  swap1\n  tag_23\n  jump\t// in\ntag_22:\n  pop\n  swap1\n  jump\t// out\ntag_23:\ntag_24:\n  dup1\n  dup3\n  gt\n  iszero\n  tag_25\n  jumpi\n  0x00\n  dup2\n  0x00\n  swap1\n  sstore\n  pop\n  0x01\n  add\n  jump(tag_24)\ntag_25:\n  pop\n  swap1\n  jump\t// out\n    /* \"#utility.yul\":7:312   */\ntag_13:\n    /* \"#utility.yul\":47:50   */\n  0x00\n    /* \"#utility.yul\":66:86   */\n  tag_28\n    /* \"#utility.yul\":84:85   */\n  dup3\n    /* \"#utility.yul\":66:86   */\n  tag_29\n  jump\t// in\ntag_28:\n    /* \"#utility.yul\":61:86   */\n  swap2\n  pop\n    /* \"#utility.yul\":100:120   */\n  tag_30\n    /* \"#utility.yul\":118:119   */\n  dup4\n    /* \"#utility.yul\":100:120   */\n  tag_29\n  jump\t// in\ntag_30:\n    /* \"#utility.yul\":95:120   */\n  swap3\n  pop\n    /* \"#utility.yul\":254:255   */\n  dup3\n    /* \"#utility.yul\":186:252   */\n  0xffffffffffffffffffffffffffffffffffffffffffffffffffffffffffffffff\n    /* \"#utility.yul\":182:256   */\n  sub\n    /* \"#utility.yul\":179:180   */\n  dup3\n    /* \"#utility.yul\":176:257   */\n  gt\n    /* \"#utility.yul\":173:280   */\n  iszero\n  tag_31\n  jumpi\n    /* \"#utility.yul\":260:278   */\n  tag_32\n  tag_33\n  jump\t// in\ntag_32:\n    /* \"#utility.yul\":173:280   */\ntag_31:\n    /* \"#utility.yul\":304:305   */\n  dup3\n    /* \"#utility.yul\":301:302   */\n  dup3\n    /* \"#utility.yul\":297:306   */\n  add\n    /* \"#utility.yul\":290:306   */\n  swap1\n  pop\n    /* \"#utility.yul\":7:312   */\n  swap3\n  swap2\n  pop\n  pop\n  jump\t// out\n    /* \"#utility.yul\":318:395   */\ntag_29:\n    /* \"#utility.yul\":355:362   */\n  0x00\n    /* \"#utility.yul\":384:389   */\n  dup2\n    /* \"#utility.yul\":373:389   */\n  swap1\n  pop\n    /* \"#utility.yul\":318:395   */\n  swap2\n  swap1\n  pop\n  jump\t// out\n    /* \"#utility.yul\":401:721   */\ntag_16:\n    /* \"#utility.yul\":445:451   */\n  0x00\n    /* \"#utility.yul\":482:483   */\n  0x02\n    /* \"#utility.yul\":476:480   */\n  dup3\n    /* \"#utility.yul\":472:484   */\n  div\n    /* \"#utility.yul\":462:484   */\n  swap1\n  pop\n    /* \"#utility.yul\":529:530   */\n  0x01\n    /* \"#utility.yul\":523:527   */\n  dup3\n    /* \"#utility.yul\":519:531   */\n  and\n    /* \"#utility.yul\":550:568   */\n  dup1\n    /* \"#utility.yul\":540:621   */\n  tag_36\n  jumpi\n    /* \"#utility.yul\":606:610   */\n  0x7f\n    /* \"#utility.yul\":598:604   */\n  dup3\n    /* \"#utility.yul\":594:611   */\n  and\n    /* \"#utility.yul\":584:611   */\n  swap2\n  pop\n    /* \"#utility.yul\":540:621   */\ntag_36:\n    /* \"#utility.yul\":668:670   */\n  0x20\n    /* \"#utility.yul\":660:666   */\n  dup3\n    /* \"#utility.yul\":657:671   */\n  lt\n    /* \"#utility.yul\":637:655   */\n  dup2\n    /* \"#utility.yul\":634:672   */\n  eq\n    /* \"#utility.yul\":631:715   */\n  iszero\n  tag_37\n  jumpi\n    /* \"#utility.yul\":687:705   */\n  tag_38\n  tag_39\n  jump\t// in\ntag_38:\n    /* \"#utility.yul\":631:715   */\ntag_37:\n    /* \"#utility.yul\":452:721   */\n  pop\n    /* \"#utility.yul\":401:721   */\n  swap2\n  swap1\n  pop\n  jump\t// out\n    /* \"#utility.yul\":727:907   */\ntag_33:\n    /* \"#utility.yul\":775:852   */\n  0x4e487b7100000000000000000000000000000000000000000000000000000000\n    /* \"#utility.yul\":772:773   */\n  0x00\n    /* \"#utility.yul\":765:853   */\n  mstore\n    /* \"#utility.yul\":872:876   */\n  0x11\n    /* \"#utility.yul\":869:870   */\n  0x04\n    /* \"#utility.yul\":862:877   */\n  mstore\n    /* \"#utility.yul\":896:900   */\n  0x24\n    /* \"#utility.yul\":893:894   */\n  0x00\n    /* \"#utility.yul\":886:901   */\n  revert\n    /* \"#utility.yul\":913:1093   */\ntag_39:\n    /* \"#utility.yul\":961:1038   */\n  0x4e487b7100000000000000000000000000000000000000000000000000000000\n    /* \"#utility.yul\":958:959   */\n  0x00\n    /* \"#utility.yul\":951:1039   */\n  mstore\n    /* \"#utility.yul\":1058:1062   */\n  0x22\n    /* \"#utility.yul\":1055:1056   */\n  0x04\n    /* \"#utility.yul\":1048:1063   */\n  mstore\n    /* \"#utility.yul\":1082:1086   */\n  0x24\n    /* \"#utility.yul\":1079:1080   */\n  0x00\n    /* \"#utility.yul\":1072:1087   */\n  revert\n    /* \"gitpopu/solidity/Napolite/contracts/token.sol\":884:3661  contract token is ERC20, Ownable {... */\ntag_9:\n  dataSize(sub_0)\n  dup1\n  dataOffset(sub_0)\n  0x00\n  codecopy\n  0x00\n  return\nstop\n\nsub_0: assembly {\n        /* \"gitpopu/solidity/Napolite/contracts/token.sol\":884:3661  contract token is ERC20, Ownable {... */\n      mstore(0x40, 0x80)\n      callvalue\n      dup1\n      iszero\n      tag_1\n      jumpi\n      0x00\n      dup1\n      revert\n    tag_1:\n      pop\n      jumpi(tag_2, lt(calldatasize, 0x04))\n      shr(0xe0, calldataload(0x00))\n      dup1\n      0x70a08231\n      gt\n      tag_20\n      jumpi\n      dup1\n      0xb4a99a4e\n      gt\n      tag_21\n      jumpi\n      dup1\n      0xb4a99a4e\n      eq\n      tag_15\n      jumpi\n      dup1\n      0xce606ee0\n      eq\n      tag_16\n      jumpi\n      dup1\n      0xd28d8852\n      eq\n      tag_17\n      jumpi\n      dup1\n      0xdd62ed3e\n      eq\n      tag_18\n      jumpi\n      dup1\n      0xf2fde38b\n      eq\n      tag_19\n      jumpi\n      jump(tag_2)\n    tag_21:\n      dup1\n      0x70a08231\n      eq\n      tag_11\n      jumpi\n      dup1\n      0x95d89b41\n      eq\n      tag_12\n      jumpi\n      dup1\n      0xa9059cbb\n      eq\n      tag_13\n      jumpi\n      dup1\n      0xb09f1266\n      eq\n      tag_14\n      jumpi\n      jump(tag_2)\n    tag_20:\n      dup1\n      0x27e235e3\n      gt\n      tag_22\n      jumpi\n      dup1\n      0x27e235e3\n      eq\n      tag_7\n      jumpi\n      dup1\n      0x313ce567\n      eq\n      tag_8\n      jumpi\n      dup1\n      0x3eaaf86b\n      eq\n      tag_9\n      jumpi\n      dup1\n      0x5c658165\n      eq\n      tag_10\n      jumpi\n      jump(tag_2)\n    tag_22:\n      dup1\n      0x06fdde03\n      eq\n      tag_3\n      jumpi\n      dup1\n      0x095ea7b3\n      eq\n      tag_4\n      jumpi\n      dup1\n      0x18160ddd\n      eq\n      tag_5\n      jumpi\n      dup1\n      0x23b872dd\n      eq\n      tag_6\n      jumpi\n    tag_2:\n      0x00\n      dup1\n      revert\n        /* \"gitpopu/solidity/Napolite/contracts/token.sol\":1497:1585  function name() public view override returns(string memory){... */\n    tag_3:\n      tag_23\n      tag_24\n      jump\t// in\n    tag_23:\n      mload(0x40)\n      tag_25\n      swap2\n      swap1\n      tag_26\n      jump\t// in\n    tag_25:\n      mload(0x40)\n      dup1\n      swap2\n      sub\n      swap1\n      return\n        /* \"gitpopu/solidity/Napolite/contracts/token.sol\":3055:3223  function approve(address spender, uint amount) public override{... */\n    tag_4:\n      tag_27\n      0x04\n      dup1\n      calldatasize\n      sub\n      dup2\n      add\n      swap1\n      tag_28\n      swap2\n      swap1\n      tag_29\n      jump\t// in\n    tag_28:\n      tag_30\n      jump\t// in\n    tag_27:\n      stop\n        /* \"gitpopu/solidity/Napolite/contracts/token.sol\":2847:2940  function totalSupply() public view override returns(uint){... */\n    tag_5:\n      tag_31\n      tag_32\n      jump\t// in\n    tag_31:\n      mload(0x40)\n      tag_33\n      swap2\n      swap1\n      tag_34\n      jump\t// in\n    tag_33:\n      mload(0x40)\n      dup1\n      swap2\n      sub\n      swap1\n      return\n        /* \"gitpopu/solidity/Napolite/contracts/token.sol\":2252:2841  function transferFrom(address from, address to, uint amount) public override{... */\n    tag_6:\n      tag_35\n      0x04\n      dup1\n      calldatasize\n      sub\n      dup2\n      add\n      swap1\n      tag_36\n      swap2\n      swap1\n      tag_37\n      jump\t// in\n    tag_36:\n      tag_38\n      jump\t// in\n    tag_35:\n      stop\n        /* \"gitpopu/solidity/Napolite/contracts/token.sol\":1066:1109  mapping(address => uint256) public balances */\n    tag_7:\n      tag_39\n      0x04\n      dup1\n      calldatasize\n      sub\n      dup2\n      add\n      swap1\n      tag_40\n      swap2\n      swap1\n      tag_41\n      jump\t// in\n    tag_40:\n      tag_42\n      jump\t// in\n    tag_39:\n      mload(0x40)\n      tag_43\n      swap2\n      swap1\n      tag_34\n      jump\t// in\n    tag_43:\n      mload(0x40)\n      dup1\n      swap2\n      sub\n      swap1\n      return\n        /* \"gitpopu/solidity/Napolite/contracts/token.sol\":1039:1059  uint public decimals */\n    tag_8:\n      tag_44\n      tag_45\n      jump\t// in\n    tag_44:\n      mload(0x40)\n      tag_46\n      swap2\n      swap1\n      tag_34\n      jump\t// in\n    tag_46:\n      mload(0x40)\n      dup1\n      swap2\n      sub\n      swap1\n      return\n        /* \"gitpopu/solidity/Napolite/contracts/token.sol\":923:947  uint public _totalSupply */\n    tag_9:\n      tag_47\n      tag_48\n      jump\t// in\n    tag_47:\n      mload(0x40)\n      tag_49\n      swap2\n      swap1\n      tag_34\n      jump\t// in\n    tag_49:\n      mload(0x40)\n      dup1\n      swap2\n      sub\n      swap1\n      return\n        /* \"gitpopu/solidity/Napolite/contracts/token.sol\":1115:1176  mapping (address => mapping (address => uint)) public allowed */\n    tag_10:\n      tag_50\n      0x04\n      dup1\n      calldatasize\n      sub\n      dup2\n      add\n      swap1\n      tag_51\n      swap2\n      swap1\n      tag_52\n      jump\t// in\n    tag_51:\n      tag_53\n      jump\t// in\n    tag_50:\n      mload(0x40)\n      tag_54\n      swap2\n      swap1\n      tag_34\n      jump\t// in\n    tag_54:\n      mload(0x40)\n      dup1\n      swap2\n      sub\n      swap1\n      return\n        /* \"gitpopu/solidity/Napolite/contracts/token.sol\":2946:3049  function balanceOf(address who) public view override returns(uint){... */\n    tag_11:\n      tag_55\n      0x04\n      dup1\n      calldatasize\n      sub\n      dup2\n      add\n      swap1\n      tag_56\n      swap2\n      swap1\n      tag_41\n      jump\t// in\n    tag_56:\n      tag_57\n      jump\t// in\n    tag_55:\n      mload(0x40)\n      tag_58\n      swap2\n      swap1\n      tag_34\n      jump\t// in\n    tag_58:\n      mload(0x40)\n      dup1\n      swap2\n      sub\n      swap1\n      return\n        /* \"gitpopu/solidity/Napolite/contracts/token.sol\":1591:1683  function symbol() public view override returns(string memory){... */\n    tag_12:\n      tag_59\n      tag_60\n      jump\t// in\n    tag_59:\n      mload(0x40)\n      tag_61\n      swap2\n      swap1\n      tag_26\n      jump\t// in\n    tag_61:\n      mload(0x40)\n      dup1\n      swap2\n      sub\n      swap1\n      return\n        /* \"gitpopu/solidity/Napolite/contracts/token.sol\":1759:2246  function transfer(address receiver, uint256 amount) public override{... */\n    tag_13:\n      tag_62\n      0x04\n      dup1\n      calldatasize\n      sub\n      dup2\n      add\n      swap1\n      tag_63\n      swap2\n      swap1\n      tag_29\n      jump\t// in\n    tag_63:\n      tag_64\n      jump\t// in\n    tag_62:\n      stop\n        /* \"gitpopu/solidity/Napolite/contracts/token.sol\":1012:1033  string public _symbol */\n    tag_14:\n      tag_65\n      tag_66\n      jump\t// in\n    tag_65:\n      mload(0x40)\n      tag_67\n      swap2\n      swap1\n      tag_26\n      jump\t// in\n    tag_67:\n      mload(0x40)\n      dup1\n      swap2\n      sub\n      swap1\n      return\n        /* \"gitpopu/solidity/Napolite/contracts/token.sol\":3371:3463  function Owner() public view override returns (address){... */\n    tag_15:\n      tag_68\n      tag_69\n      jump\t// in\n    tag_68:\n      mload(0x40)\n      tag_70\n      swap2\n      swap1\n      tag_71\n      jump\t// in\n    tag_70:\n      mload(0x40)\n      dup1\n      swap2\n      sub\n      swap1\n      return\n        /* \"gitpopu/solidity/Napolite/contracts/token.sol\":953:981  address public contractOwner */\n    tag_16:\n      tag_72\n      tag_73\n      jump\t// in\n    tag_72:\n      mload(0x40)\n      tag_74\n      swap2\n      swap1\n      tag_71\n      jump\t// in\n    tag_74:\n      mload(0x40)\n      dup1\n      swap2\n      sub\n      swap1\n      return\n        /* \"gitpopu/solidity/Napolite/contracts/token.sol\":987:1006  string public _name */\n    tag_17:\n      tag_75\n      tag_76\n      jump\t// in\n    tag_75:\n      mload(0x40)\n      tag_77\n      swap2\n      swap1\n      tag_26\n      jump\t// in\n    tag_77:\n      mload(0x40)\n      dup1\n      swap2\n      sub\n      swap1\n      return\n        /* \"gitpopu/solidity/Napolite/contracts/token.sol\":3229:3365  function allowance(address owner, address spender) public view override returns(uint256) {... */\n    tag_18:\n      tag_78\n      0x04\n      dup1\n      calldatasize\n      sub\n      dup2\n      add\n      swap1\n      tag_79\n      swap2\n      swap1\n      tag_52\n      jump\t// in\n    tag_79:\n      tag_80\n      jump\t// in\n    tag_78:\n      mload(0x40)\n      tag_81\n      swap2\n      swap1\n      tag_34\n      jump\t// in\n    tag_81:\n      mload(0x40)\n      dup1\n      swap2\n      sub\n      swap1\n      return\n        /* \"gitpopu/solidity/Napolite/contracts/token.sol\":3469:3658  function transferOwnership(address newOwner) public override{... */\n    tag_19:\n      tag_82\n      0x04\n      dup1\n      calldatasize\n      sub\n      dup2\n      add\n      swap1\n      tag_83\n      swap2\n      swap1\n      tag_41\n      jump\t// in\n    tag_83:\n      tag_84\n      jump\t// in\n    tag_82:\n      stop\n        /* \"gitpopu/solidity/Napolite/contracts/token.sol\":1497:1585  function name() public view override returns(string memory){... */\n    tag_24:\n        /* \"gitpopu/solidity/Napolite/contracts/token.sol\":1542:1555  string memory */\n      0x60\n        /* \"gitpopu/solidity/Napolite/contracts/token.sol\":1573:1578  _name */\n      0x02\n        /* \"gitpopu/solidity/Napolite/contracts/token.sol\":1566:1578  return _name */\n      dup1\n      sload\n      tag_86\n      swap1\n      tag_87\n      jump\t// in\n    tag_86:\n      dup1\n      0x1f\n      add\n      0x20\n      dup1\n      swap2\n      div\n      mul\n      0x20\n      add\n      mload(0x40)\n      swap1\n      dup2\n      add\n      0x40\n      mstore\n      dup1\n      swap3\n      swap2\n      swap1\n      dup2\n      dup2\n      mstore\n      0x20\n      add\n      dup3\n      dup1\n      sload\n      tag_88\n      swap1\n      tag_87\n      jump\t// in\n    tag_88:\n      dup1\n      iszero\n      tag_89\n      jumpi\n      dup1\n      0x1f\n      lt\n      tag_90\n      jumpi\n      0x0100\n      dup1\n      dup4\n      sload\n      div\n      mul\n      dup4\n      mstore\n      swap2\n      0x20\n      add\n      swap2\n      jump(tag_89)\n    tag_90:\n      dup3\n      add\n      swap2\n      swap1\n      0x00\n      mstore\n      keccak256(0x00, 0x20)\n      swap1\n    tag_91:\n      dup2\n      sload\n      dup2\n      mstore\n      swap1\n      0x01\n      add\n      swap1\n      0x20\n      add\n      dup1\n      dup4\n      gt\n      tag_91\n      jumpi\n      dup3\n      swap1\n      sub\n      0x1f\n      and\n      dup3\n      add\n      swap2\n    tag_89:\n      pop\n      pop\n      pop\n      pop\n      pop\n      swap1\n      pop\n        /* \"gitpopu/solidity/Napolite/contracts/token.sol\":1497:1585  function name() public view override returns(string memory){... */\n      swap1\n      jump\t// out\n        /* \"gitpopu/solidity/Napolite/contracts/token.sol\":3055:3223  function approve(address spender, uint amount) public override{... */\n    tag_30:\n        /* \"gitpopu/solidity/Napolite/contracts/token.sol\":3158:3164  amount */\n      dup1\n        /* \"gitpopu/solidity/Napolite/contracts/token.sol\":3127:3134  allowed */\n      0x06\n        /* \"gitpopu/solidity/Napolite/contracts/token.sol\":3127:3146  allowed[msg.sender] */\n      0x00\n        /* \"gitpopu/solidity/Napolite/contracts/token.sol\":3135:3145  msg.sender */\n      caller\n        /* \"gitpopu/solidity/Napolite/contracts/token.sol\":3127:3146  allowed[msg.sender] */\n      0xffffffffffffffffffffffffffffffffffffffff\n      and\n      0xffffffffffffffffffffffffffffffffffffffff\n      and\n      dup2\n      mstore\n      0x20\n      add\n      swap1\n      dup2\n      mstore\n      0x20\n      add\n      0x00\n      keccak256\n        /* \"gitpopu/solidity/Napolite/contracts/token.sol\":3127:3155  allowed[msg.sender][spender] */\n      0x00\n        /* \"gitpopu/solidity/Napolite/contracts/token.sol\":3147:3154  spender */\n      dup5\n        /* \"gitpopu/solidity/Napolite/contracts/token.sol\":3127:3155  allowed[msg.sender][spender] */\n      0xffffffffffffffffffffffffffffffffffffffff\n      and\n      0xffffffffffffffffffffffffffffffffffffffff\n      and\n      dup2\n      mstore\n      0x20\n      add\n      swap1\n      dup2\n      mstore\n      0x20\n      add\n      0x00\n      keccak256\n        /* \"gitpopu/solidity/Napolite/contracts/token.sol\":3127:3164  allowed[msg.sender][spender] = amount */\n      dup2\n      swap1\n      sstore\n      pop\n        /* \"gitpopu/solidity/Napolite/contracts/token.sol\":3200:3207  spender */\n      dup2\n        /* \"gitpopu/solidity/Napolite/contracts/token.sol\":3179:3216  Approval(msg.sender, spender, amount) */\n      0xffffffffffffffffffffffffffffffffffffffff\n      and\n        /* \"gitpopu/solidity/Napolite/contracts/token.sol\":3188:3198  msg.sender */\n      caller\n        /* \"gitpopu/solidity/Napolite/contracts/token.sol\":3179:3216  Approval(msg.sender, spender, amount) */\n      0xffffffffffffffffffffffffffffffffffffffff\n      and\n      0x8c5be1e5ebec7d5bd14f71427d1e84f3dd0314c0f7b2291e5b200ac8c7c3b925\n        /* \"gitpopu/solidity/Napolite/contracts/token.sol\":3209:3215  amount */\n      dup4\n        /* \"gitpopu/solidity/Napolite/contracts/token.sol\":3179:3216  Approval(msg.sender, spender, amount) */\n      mload(0x40)\n      tag_93\n      swap2\n      swap1\n      tag_34\n      jump\t// in\n    tag_93:\n      mload(0x40)\n      dup1\n      swap2\n      sub\n      swap1\n      log3\n        /* \"gitpopu/solidity/Napolite/contracts/token.sol\":3055:3223  function approve(address spender, uint amount) public override{... */\n      pop\n      pop\n      jump\t// out\n        /* \"gitpopu/solidity/Napolite/contracts/token.sol\":2847:2940  function totalSupply() public view override returns(uint){... */\n    tag_32:\n        /* \"gitpopu/solidity/Napolite/contracts/token.sol\":2899:2903  uint */\n      0x00\n        /* \"gitpopu/solidity/Napolite/contracts/token.sol\":2921:2933  _totalSupply */\n      dup1\n      sload\n        /* \"gitpopu/solidity/Napolite/contracts/token.sol\":2914:2933  return _totalSupply */\n      swap1\n      pop\n        /* \"gitpopu/solidity/Napolite/contracts/token.sol\":2847:2940  function totalSupply() public view override returns(uint){... */\n      swap1\n      jump\t// out\n        /* \"gitpopu/solidity/Napolite/contracts/token.sol\":2252:2841  function transferFrom(address from, address to, uint amount) public override{... */\n    tag_38:\n        /* \"gitpopu/solidity/Napolite/contracts/token.sol\":2338:2358  uint allowanceAmount */\n      0x00\n        /* \"gitpopu/solidity/Napolite/contracts/token.sol\":2361:2368  allowed */\n      0x06\n        /* \"gitpopu/solidity/Napolite/contracts/token.sol\":2361:2374  allowed[from] */\n      0x00\n        /* \"gitpopu/solidity/Napolite/contracts/token.sol\":2369:2373  from */\n      dup6\n        /* \"gitpopu/solidity/Napolite/contracts/token.sol\":2361:2374  allowed[from] */\n      0xffffffffffffffffffffffffffffffffffffffff\n      and\n      0xffffffffffffffffffffffffffffffffffffffff\n      and\n      dup2\n      mstore\n      0x20\n      add\n      swap1\n      dup2\n      mstore\n      0x20\n      add\n      0x00\n      keccak256\n        /* \"gitpopu/solidity/Napolite/contracts/token.sol\":2361:2386  allowed[from][msg.sender] */\n      0x00\n        /* \"gitpopu/solidity/Napolite/contracts/token.sol\":2375:2385  msg.sender */\n      caller\n        /* \"gitpopu/solidity/Napolite/contracts/token.sol\":2361:2386  allowed[from][msg.sender] */\n      0xffffffffffffffffffffffffffffffffffffffff\n      and\n      0xffffffffffffffffffffffffffffffffffffffff\n      and\n      dup2\n      mstore\n      0x20\n      add\n      swap1\n      dup2\n      mstore\n      0x20\n      add\n      0x00\n      keccak256\n      sload\n        /* \"gitpopu/solidity/Napolite/contracts/token.sol\":2338:2386  uint allowanceAmount = allowed[from][msg.sender] */\n      swap1\n      pop\n        /* \"gitpopu/solidity/Napolite/contracts/token.sol\":2412:2414  to */\n      dup3\n        /* \"gitpopu/solidity/Napolite/contracts/token.sol\":2404:2414  from != to */\n      0xffffffffffffffffffffffffffffffffffffffff\n      and\n        /* \"gitpopu/solidity/Napolite/contracts/token.sol\":2404:2408  from */\n      dup5\n        /* \"gitpopu/solidity/Napolite/contracts/token.sol\":2404:2414  from != to */\n      0xffffffffffffffffffffffffffffffffffffffff\n      and\n      eq\n      iszero\n        /* \"gitpopu/solidity/Napolite/contracts/token.sol\":2396:2461  require(from != to, \"you cannot transfer tokens to same address\") */\n      tag_96\n      jumpi\n      mload(0x40)\n      0x08c379a000000000000000000000000000000000000000000000000000000000\n      dup2\n      mstore\n      0x04\n      add\n      tag_97\n      swap1\n      tag_98\n      jump\t// in\n    tag_97:\n      mload(0x40)\n      dup1\n      swap2\n      sub\n      swap1\n      revert\n    tag_96:\n        /* \"gitpopu/solidity/Napolite/contracts/token.sol\":2497:2503  amount */\n      dup2\n        /* \"gitpopu/solidity/Napolite/contracts/token.sol\":2479:2494  allowanceAmount */\n      dup2\n        /* \"gitpopu/solidity/Napolite/contracts/token.sol\":2479:2503  allowanceAmount < amount */\n      lt\n        /* \"gitpopu/solidity/Napolite/contracts/token.sol\":2471:2544  require(allowanceAmount < amount, \"Contract not allowed to spend amount\") */\n      tag_99\n      jumpi\n      mload(0x40)\n      0x08c379a000000000000000000000000000000000000000000000000000000000\n      dup2\n      mstore\n      0x04\n      add\n      tag_100\n      swap1\n      tag_101\n      jump\t// in\n    tag_100:\n      mload(0x40)\n      dup1\n      swap2\n      sub\n      swap1\n      revert\n    tag_99:\n        /* \"gitpopu/solidity/Napolite/contracts/token.sol\":2568:2576  balances */\n      0x05\n        /* \"gitpopu/solidity/Napolite/contracts/token.sol\":2568:2582  balances[from] */\n      0x00\n        /* \"gitpopu/solidity/Napolite/contracts/token.sol\":2577:2581  from */\n      dup6\n        /* \"gitpopu/solidity/Napolite/contracts/token.sol\":2568:2582  balances[from] */\n      0xffffffffffffffffffffffffffffffffffffffff\n      and\n      0xffffffffffffffffffffffffffffffffffffffff\n      and\n      dup2\n      mstore\n      0x20\n      add\n      swap1\n      dup2\n      mstore\n      0x20\n      add\n      0x00\n      keccak256\n      sload\n        /* \"gitpopu/solidity/Napolite/contracts/token.sol\":2559:2565  amount */\n      dup3\n        /* \"gitpopu/solidity/Napolite/contracts/token.sol\":2559:2582  amount > balances[from] */\n      gt\n        /* \"gitpopu/solidity/Napolite/contracts/token.sol\":2555:2728  if (amount > balances[from]) {... */\n      iszero\n      tag_102\n      jumpi\n        /* \"gitpopu/solidity/Napolite/contracts/token.sol\":2653:2659  amount */\n      dup2\n        /* \"gitpopu/solidity/Napolite/contracts/token.sol\":2688:2696  balances */\n      0x05\n        /* \"gitpopu/solidity/Napolite/contracts/token.sol\":2688:2702  balances[from] */\n      0x00\n        /* \"gitpopu/solidity/Napolite/contracts/token.sol\":2697:2701  from */\n      dup7\n        /* \"gitpopu/solidity/Napolite/contracts/token.sol\":2688:2702  balances[from] */\n      0xffffffffffffffffffffffffffffffffffffffff\n      and\n      0xffffffffffffffffffffffffffffffffffffffff\n      and\n      dup2\n      mstore\n      0x20\n      add\n      swap1\n      dup2\n      mstore\n      0x20\n      add\n      0x00\n      keccak256\n      sload\n        /* \"gitpopu/solidity/Napolite/contracts/token.sol\":2605:2717  InsuficientBalance({... */\n      mload(0x40)\n      0xec0ae9cf00000000000000000000000000000000000000000000000000000000\n      dup2\n      mstore\n      0x04\n      add\n      tag_103\n      swap3\n      swap2\n      swap1\n      tag_104\n      jump\t// in\n    tag_103:\n      mload(0x40)\n      dup1\n      swap2\n      sub\n      swap1\n      revert\n        /* \"gitpopu/solidity/Napolite/contracts/token.sol\":2555:2728  if (amount > balances[from]) {... */\n    tag_102:\n        /* \"gitpopu/solidity/Napolite/contracts/token.sol\":2755:2761  amount */\n      dup2\n        /* \"gitpopu/solidity/Napolite/contracts/token.sol\":2737:2745  balances */\n      0x05\n        /* \"gitpopu/solidity/Napolite/contracts/token.sol\":2737:2751  balances[from] */\n      0x00\n        /* \"gitpopu/solidity/Napolite/contracts/token.sol\":2746:2750  from */\n      dup7\n        /* \"gitpopu/solidity/Napolite/contracts/token.sol\":2737:2751  balances[from] */\n      0xffffffffffffffffffffffffffffffffffffffff\n      and\n      0xffffffffffffffffffffffffffffffffffffffff\n      and\n      dup2\n      mstore\n      0x20\n      add\n      swap1\n      dup2\n      mstore\n      0x20\n      add\n      0x00\n      keccak256\n      0x00\n        /* \"gitpopu/solidity/Napolite/contracts/token.sol\":2737:2761  balances[from] -= amount */\n      dup3\n      dup3\n      sload\n      tag_105\n      swap2\n      swap1\n      tag_106\n      jump\t// in\n    tag_105:\n      swap3\n      pop\n      pop\n      dup2\n      swap1\n      sstore\n      pop\n        /* \"gitpopu/solidity/Napolite/contracts/token.sol\":2787:2793  amount */\n      dup2\n        /* \"gitpopu/solidity/Napolite/contracts/token.sol\":2771:2779  balances */\n      0x05\n        /* \"gitpopu/solidity/Napolite/contracts/token.sol\":2771:2783  balances[to] */\n      0x00\n        /* \"gitpopu/solidity/Napolite/contracts/token.sol\":2780:2782  to */\n      dup6\n        /* \"gitpopu/solidity/Napolite/contracts/token.sol\":2771:2783  balances[to] */\n      0xffffffffffffffffffffffffffffffffffffffff\n      and\n      0xffffffffffffffffffffffffffffffffffffffff\n      and\n      dup2\n      mstore\n      0x20\n      add\n      swap1\n      dup2\n      mstore\n      0x20\n      add\n      0x00\n      keccak256\n      0x00\n        /* \"gitpopu/solidity/Napolite/contracts/token.sol\":2771:2793  balances[to] += amount */\n      dup3\n      dup3\n      sload\n      tag_107\n      swap2\n      swap1\n      tag_108\n      jump\t// in\n    tag_107:\n      swap3\n      pop\n      pop\n      dup2\n      swap1\n      sstore\n      pop\n        /* \"gitpopu/solidity/Napolite/contracts/token.sol\":2823:2825  to */\n      dup3\n        /* \"gitpopu/solidity/Napolite/contracts/token.sol\":2808:2834  Transfer(from, to, amount) */\n      0xffffffffffffffffffffffffffffffffffffffff\n      and\n        /* \"gitpopu/solidity/Napolite/contracts/token.sol\":2817:2821  from */\n      dup5\n        /* \"gitpopu/solidity/Napolite/contracts/token.sol\":2808:2834  Transfer(from, to, amount) */\n      0xffffffffffffffffffffffffffffffffffffffff\n      and\n      0xddf252ad1be2c89b69c2b068fc378daa952ba7f163c4a11628f55a4df523b3ef\n        /* \"gitpopu/solidity/Napolite/contracts/token.sol\":2827:2833  amount */\n      dup5\n        /* \"gitpopu/solidity/Napolite/contracts/token.sol\":2808:2834  Transfer(from, to, amount) */\n      mload(0x40)\n      tag_109\n      swap2\n      swap1\n      tag_34\n      jump\t// in\n    tag_109:\n      mload(0x40)\n      dup1\n      swap2\n      sub\n      swap1\n      log3\n        /* \"gitpopu/solidity/Napolite/contracts/token.sol\":2328:2841  {... */\n      pop\n        /* \"gitpopu/solidity/Napolite/contracts/token.sol\":2252:2841  function transferFrom(address from, address to, uint amount) public override{... */\n      pop\n      pop\n      pop\n      jump\t// out\n        /* \"gitpopu/solidity/Napolite/contracts/token.sol\":1066:1109  mapping(address => uint256) public balances */\n    tag_42:\n      mstore(0x20, 0x05)\n      dup1\n      0x00\n      mstore\n      keccak256(0x00, 0x40)\n      0x00\n      swap2\n      pop\n      swap1\n      pop\n      sload\n      dup2\n      jump\t// out\n        /* \"gitpopu/solidity/Napolite/contracts/token.sol\":1039:1059  uint public decimals */\n    tag_45:\n      sload(0x04)\n      dup2\n      jump\t// out\n        /* \"gitpopu/solidity/Napolite/contracts/token.sol\":923:947  uint public _totalSupply */\n    tag_48:\n      sload(0x00)\n      dup2\n      jump\t// out\n        /* \"gitpopu/solidity/Napolite/contracts/token.sol\":1115:1176  mapping (address => mapping (address => uint)) public allowed */\n    tag_53:\n      mstore(0x20, 0x06)\n      dup2\n      0x00\n      mstore\n      mstore(0x20, keccak256(0x00, 0x40))\n      dup1\n      0x00\n      mstore\n      keccak256(0x00, 0x40)\n      0x00\n      swap2\n      pop\n      swap2\n      pop\n      pop\n      sload\n      dup2\n      jump\t// out\n        /* \"gitpopu/solidity/Napolite/contracts/token.sol\":2946:3049  function balanceOf(address who) public view override returns(uint){... */\n    tag_57:\n        /* \"gitpopu/solidity/Napolite/contracts/token.sol\":3007:3011  uint */\n      0x00\n        /* \"gitpopu/solidity/Napolite/contracts/token.sol\":3029:3037  balances */\n      0x05\n        /* \"gitpopu/solidity/Napolite/contracts/token.sol\":3029:3042  balances[who] */\n      0x00\n        /* \"gitpopu/solidity/Napolite/contracts/token.sol\":3038:3041  who */\n      dup4\n        /* \"gitpopu/solidity/Napolite/contracts/token.sol\":3029:3042  balances[who] */\n      0xffffffffffffffffffffffffffffffffffffffff\n      and\n      0xffffffffffffffffffffffffffffffffffffffff\n      and\n      dup2\n      mstore\n      0x20\n      add\n      swap1\n      dup2\n      mstore\n      0x20\n      add\n      0x00\n      keccak256\n      sload\n        /* \"gitpopu/solidity/Napolite/contracts/token.sol\":3022:3042  return balances[who] */\n      swap1\n      pop\n        /* \"gitpopu/solidity/Napolite/contracts/token.sol\":2946:3049  function balanceOf(address who) public view override returns(uint){... */\n      swap2\n      swap1\n      pop\n      jump\t// out\n        /* \"gitpopu/solidity/Napolite/contracts/token.sol\":1591:1683  function symbol() public view override returns(string memory){... */\n    tag_60:\n        /* \"gitpopu/solidity/Napolite/contracts/token.sol\":1638:1651  string memory */\n      0x60\n        /* \"gitpopu/solidity/Napolite/contracts/token.sol\":1669:1676  _symbol */\n      0x03\n        /* \"gitpopu/solidity/Napolite/contracts/token.sol\":1662:1676  return _symbol */\n      dup1\n      sload\n      tag_112\n      swap1\n      tag_87\n      jump\t// in\n    tag_112:\n      dup1\n      0x1f\n      add\n      0x20\n      dup1\n      swap2\n      div\n      mul\n      0x20\n      add\n      mload(0x40)\n      swap1\n      dup2\n      add\n      0x40\n      mstore\n      dup1\n      swap3\n      swap2\n      swap1\n      dup2\n      dup2\n      mstore\n      0x20\n      add\n      dup3\n      dup1\n      sload\n      tag_113\n      swap1\n      tag_87\n      jump\t// in\n    tag_113:\n      dup1\n      iszero\n      tag_114\n      jumpi\n      dup1\n      0x1f\n      lt\n      tag_115\n      jumpi\n      0x0100\n      dup1\n      dup4\n      sload\n      div\n      mul\n      dup4\n      mstore\n      swap2\n      0x20\n      add\n      swap2\n      jump(tag_114)\n    tag_115:\n      dup3\n      add\n      swap2\n      swap1\n      0x00\n      mstore\n      keccak256(0x00, 0x20)\n      swap1\n    tag_116:\n      dup2\n      sload\n      dup2\n      mstore\n      swap1\n      0x01\n      add\n      swap1\n      0x20\n      add\n      dup1\n      dup4\n      gt\n      tag_116\n      jumpi\n      dup3\n      swap1\n      sub\n      0x1f\n      and\n      dup3\n      add\n      swap2\n    tag_114:\n      pop\n      pop\n      pop\n      pop\n      pop\n      swap1\n      pop\n        /* \"gitpopu/solidity/Napolite/contracts/token.sol\":1591:1683  function symbol() public view override returns(string memory){... */\n      swap1\n      jump\t// out\n        /* \"gitpopu/solidity/Napolite/contracts/token.sol\":1759:2246  function transfer(address receiver, uint256 amount) public override{... */\n    tag_64:\n        /* \"gitpopu/solidity/Napolite/contracts/token.sol\":1858:1866  receiver */\n      dup2\n        /* \"gitpopu/solidity/Napolite/contracts/token.sol\":1844:1866  msg.sender != receiver */\n      0xffffffffffffffffffffffffffffffffffffffff\n      and\n        /* \"gitpopu/solidity/Napolite/contracts/token.sol\":1844:1854  msg.sender */\n      caller\n        /* \"gitpopu/solidity/Napolite/contracts/token.sol\":1844:1866  msg.sender != receiver */\n      0xffffffffffffffffffffffffffffffffffffffff\n      and\n      eq\n      iszero\n        /* \"gitpopu/solidity/Napolite/contracts/token.sol\":1836:1913  require(msg.sender != receiver, \"you cannot transfer tokens to same address\") */\n      tag_118\n      jumpi\n      mload(0x40)\n      0x08c379a000000000000000000000000000000000000000000000000000000000\n      dup2\n      mstore\n      0x04\n      add\n      tag_119\n      swap1\n      tag_98\n      jump\t// in\n    tag_119:\n      mload(0x40)\n      dup1\n      swap2\n      sub\n      swap1\n      revert\n    tag_118:\n        /* \"gitpopu/solidity/Napolite/contracts/token.sol\":1936:1944  balances */\n      0x05\n        /* \"gitpopu/solidity/Napolite/contracts/token.sol\":1936:1956  balances[msg.sender] */\n      0x00\n        /* \"gitpopu/solidity/Napolite/contracts/token.sol\":1945:1955  msg.sender */\n      caller\n        /* \"gitpopu/solidity/Napolite/contracts/token.sol\":1936:1956  balances[msg.sender] */\n      0xffffffffffffffffffffffffffffffffffffffff\n      and\n      0xffffffffffffffffffffffffffffffffffffffff\n      and\n      dup2\n      mstore\n      0x20\n      add\n      swap1\n      dup2\n      mstore\n      0x20\n      add\n      0x00\n      keccak256\n      sload\n        /* \"gitpopu/solidity/Napolite/contracts/token.sol\":1927:1933  amount */\n      dup2\n        /* \"gitpopu/solidity/Napolite/contracts/token.sol\":1927:1956  amount > balances[msg.sender] */\n      gt\n        /* \"gitpopu/solidity/Napolite/contracts/token.sol\":1923:2108  if (amount > balances[msg.sender]) {... */\n      iszero\n      tag_120\n      jumpi\n        /* \"gitpopu/solidity/Napolite/contracts/token.sol\":2027:2033  amount */\n      dup1\n        /* \"gitpopu/solidity/Napolite/contracts/token.sol\":2062:2070  balances */\n      0x05\n        /* \"gitpopu/solidity/Napolite/contracts/token.sol\":2062:2082  balances[msg.sender] */\n      0x00\n        /* \"gitpopu/solidity/Napolite/contracts/token.sol\":2071:2081  msg.sender */\n      caller\n        /* \"gitpopu/solidity/Napolite/contracts/token.sol\":2062:2082  balances[msg.sender] */\n      0xffffffffffffffffffffffffffffffffffffffff\n      and\n      0xffffffffffffffffffffffffffffffffffffffff\n      and\n      dup2\n      mstore\n      0x20\n      add\n      swap1\n      dup2\n      mstore\n      0x20\n      add\n      0x00\n      keccak256\n      sload\n        /* \"gitpopu/solidity/Napolite/contracts/token.sol\":1979:2097  InsuficientBalance({... */\n      mload(0x40)\n      0xec0ae9cf00000000000000000000000000000000000000000000000000000000\n      dup2\n      mstore\n      0x04\n      add\n      tag_121\n      swap3\n      swap2\n      swap1\n      tag_104\n      jump\t// in\n    tag_121:\n      mload(0x40)\n      dup1\n      swap2\n      sub\n      swap1\n      revert\n        /* \"gitpopu/solidity/Napolite/contracts/token.sol\":1923:2108  if (amount > balances[msg.sender]) {... */\n    tag_120:\n        /* \"gitpopu/solidity/Napolite/contracts/token.sol\":2142:2148  amount */\n      dup1\n        /* \"gitpopu/solidity/Napolite/contracts/token.sol\":2118:2126  balances */\n      0x05\n        /* \"gitpopu/solidity/Napolite/contracts/token.sol\":2118:2138  balances[msg.sender] */\n      0x00\n        /* \"gitpopu/solidity/Napolite/contracts/token.sol\":2127:2137  msg.sender */\n      caller\n        /* \"gitpopu/solidity/Napolite/contracts/token.sol\":2118:2138  balances[msg.sender] */\n      0xffffffffffffffffffffffffffffffffffffffff\n      and\n      0xffffffffffffffffffffffffffffffffffffffff\n      and\n      dup2\n      mstore\n      0x20\n      add\n      swap1\n      dup2\n      mstore\n      0x20\n      add\n      0x00\n      keccak256\n      0x00\n        /* \"gitpopu/solidity/Napolite/contracts/token.sol\":2118:2148  balances[msg.sender] -= amount */\n      dup3\n      dup3\n      sload\n      tag_122\n      swap2\n      swap1\n      tag_106\n      jump\t// in\n    tag_122:\n      swap3\n      pop\n      pop\n      dup2\n      swap1\n      sstore\n      pop\n        /* \"gitpopu/solidity/Napolite/contracts/token.sol\":2180:2186  amount */\n      dup1\n        /* \"gitpopu/solidity/Napolite/contracts/token.sol\":2158:2166  balances */\n      0x05\n        /* \"gitpopu/solidity/Napolite/contracts/token.sol\":2158:2176  balances[receiver] */\n      0x00\n        /* \"gitpopu/solidity/Napolite/contracts/token.sol\":2167:2175  receiver */\n      dup5\n        /* \"gitpopu/solidity/Napolite/contracts/token.sol\":2158:2176  balances[receiver] */\n      0xffffffffffffffffffffffffffffffffffffffff\n      and\n      0xffffffffffffffffffffffffffffffffffffffff\n      and\n      dup2\n      mstore\n      0x20\n      add\n      swap1\n      dup2\n      mstore\n      0x20\n      add\n      0x00\n      keccak256\n      0x00\n        /* \"gitpopu/solidity/Napolite/contracts/token.sol\":2158:2186  balances[receiver] += amount */\n      dup3\n      dup3\n      sload\n      tag_123\n      swap2\n      swap1\n      tag_108\n      jump\t// in\n    tag_123:\n      swap3\n      pop\n      pop\n      dup2\n      swap1\n      sstore\n      pop\n        /* \"gitpopu/solidity/Napolite/contracts/token.sol\":2222:2230  receiver */\n      dup2\n        /* \"gitpopu/solidity/Napolite/contracts/token.sol\":2201:2239  Transfer(msg.sender, receiver, amount) */\n      0xffffffffffffffffffffffffffffffffffffffff\n      and\n        /* \"gitpopu/solidity/Napolite/contracts/token.sol\":2210:2220  msg.sender */\n      caller\n        /* \"gitpopu/solidity/Napolite/contracts/token.sol\":2201:2239  Transfer(msg.sender, receiver, amount) */\n      0xffffffffffffffffffffffffffffffffffffffff\n      and\n      0xddf252ad1be2c89b69c2b068fc378daa952ba7f163c4a11628f55a4df523b3ef\n        /* \"gitpopu/solidity/Napolite/contracts/token.sol\":2232:2238  amount */\n      dup4\n        /* \"gitpopu/solidity/Napolite/contracts/token.sol\":2201:2239  Transfer(msg.sender, receiver, amount) */\n      mload(0x40)\n      tag_124\n      swap2\n      swap1\n      tag_34\n      jump\t// in\n    tag_124:\n      mload(0x40)\n      dup1\n      swap2\n      sub\n      swap1\n      log3\n        /* \"gitpopu/solidity/Napolite/contracts/token.sol\":1759:2246  function transfer(address receiver, uint256 amount) public override{... */\n      pop\n      pop\n      jump\t// out\n        /* \"gitpopu/solidity/Napolite/contracts/token.sol\":1012:1033  string public _symbol */\n    tag_66:\n      0x03\n      dup1\n      sload\n      tag_125\n      swap1\n      tag_87\n      jump\t// in\n    tag_125:\n      dup1\n      0x1f\n      add\n      0x20\n      dup1\n      swap2\n      div\n      mul\n      0x20\n      add\n      mload(0x40)\n      swap1\n      dup2\n      add\n      0x40\n      mstore\n      dup1\n      swap3\n      swap2\n      swap1\n      dup2\n      dup2\n      mstore\n      0x20\n      add\n      dup3\n      dup1\n      sload\n      tag_126\n      swap1\n      tag_87\n      jump\t// in\n    tag_126:\n      dup1\n      iszero\n      tag_127\n      jumpi\n      dup1\n      0x1f\n      lt\n      tag_128\n      jumpi\n      0x0100\n      dup1\n      dup4\n      sload\n      div\n      mul\n      dup4\n      mstore\n      swap2\n      0x20\n      add\n      swap2\n      jump(tag_127)\n    tag_128:\n      dup3\n      add\n      swap2\n      swap1\n      0x00\n      mstore\n      keccak256(0x00, 0x20)\n      swap1\n    tag_129:\n      dup2\n      sload\n      dup2\n      mstore\n      swap1\n      0x01\n      add\n      swap1\n      0x20\n      add\n      dup1\n      dup4\n      gt\n      tag_129\n      jumpi\n      dup3\n      swap1\n      sub\n      0x1f\n      and\n      dup3\n      add\n      swap2\n    tag_127:\n      pop\n      pop\n      pop\n      pop\n      pop\n      dup2\n      jump\t// out\n        /* \"gitpopu/solidity/Napolite/contracts/token.sol\":3371:3463  function Owner() public view override returns (address){... */\n    tag_69:\n        /* \"gitpopu/solidity/Napolite/contracts/token.sol\":3418:3425  address */\n      0x00\n        /* \"gitpopu/solidity/Napolite/contracts/token.sol\":3443:3456  contractOwner */\n      0x01\n      0x00\n      swap1\n      sload\n      swap1\n      0x0100\n      exp\n      swap1\n      div\n      0xffffffffffffffffffffffffffffffffffffffff\n      and\n        /* \"gitpopu/solidity/Napolite/contracts/token.sol\":3436:3456  return contractOwner */\n      swap1\n      pop\n        /* \"gitpopu/solidity/Napolite/contracts/token.sol\":3371:3463  function Owner() public view override returns (address){... */\n      swap1\n      jump\t// out\n        /* \"gitpopu/solidity/Napolite/contracts/token.sol\":953:981  address public contractOwner */\n    tag_73:\n      0x01\n      0x00\n      swap1\n      sload\n      swap1\n      0x0100\n      exp\n      swap1\n      div\n      0xffffffffffffffffffffffffffffffffffffffff\n      and\n      dup2\n      jump\t// out\n        /* \"gitpopu/solidity/Napolite/contracts/token.sol\":987:1006  string public _name */\n    tag_76:\n      0x02\n      dup1\n      sload\n      tag_131\n      swap1\n      tag_87\n      jump\t// in\n    tag_131:\n      dup1\n      0x1f\n      add\n      0x20\n      dup1\n      swap2\n      div\n      mul\n      0x20\n      add\n      mload(0x40)\n      swap1\n      dup2\n      add\n      0x40\n      mstore\n      dup1\n      swap3\n      swap2\n      swap1\n      dup2\n      dup2\n      mstore\n      0x20\n      add\n      dup3\n      dup1\n      sload\n      tag_132\n      swap1\n      tag_87\n      jump\t// in\n    tag_132:\n      dup1\n      iszero\n      tag_133\n      jumpi\n      dup1\n      0x1f\n      lt\n      tag_134\n      jumpi\n      0x0100\n      dup1\n      dup4\n      sload\n      div\n      mul\n      dup4\n      mstore\n      swap2\n      0x20\n      add\n      swap2\n      jump(tag_133)\n    tag_134:\n      dup3\n      add\n      swap2\n      swap1\n      0x00\n      mstore\n      keccak256(0x00, 0x20)\n      swap1\n    tag_135:\n      dup2\n      sload\n      dup2\n      mstore\n      swap1\n      0x01\n      add\n      swap1\n      0x20\n      add\n      dup1\n      dup4\n      gt\n      tag_135\n      jumpi\n      dup3\n      swap1\n      sub\n      0x1f\n      and\n      dup3\n      add\n      swap2\n    tag_133:\n      pop\n      pop\n      pop\n      pop\n      pop\n      dup2\n      jump\t// out\n        /* \"gitpopu/solidity/Napolite/contracts/token.sol\":3229:3365  function allowance(address owner, address spender) public view override returns(uint256) {... */\n    tag_80:\n        /* \"gitpopu/solidity/Napolite/contracts/token.sol\":3309:3316  uint256 */\n      0x00\n        /* \"gitpopu/solidity/Napolite/contracts/token.sol\":3335:3342  allowed */\n      0x06\n        /* \"gitpopu/solidity/Napolite/contracts/token.sol\":3335:3349  allowed[owner] */\n      0x00\n        /* \"gitpopu/solidity/Napolite/contracts/token.sol\":3343:3348  owner */\n      dup5\n        /* \"gitpopu/solidity/Napolite/contracts/token.sol\":3335:3349  allowed[owner] */\n      0xffffffffffffffffffffffffffffffffffffffff\n      and\n      0xffffffffffffffffffffffffffffffffffffffff\n      and\n      dup2\n      mstore\n      0x20\n      add\n      swap1\n      dup2\n      mstore\n      0x20\n      add\n      0x00\n      keccak256\n        /* \"gitpopu/solidity/Napolite/contracts/token.sol\":3335:3358  allowed[owner][spender] */\n      0x00\n        /* \"gitpopu/solidity/Napolite/contracts/token.sol\":3350:3357  spender */\n      dup4\n        /* \"gitpopu/solidity/Napolite/contracts/token.sol\":3335:3358  allowed[owner][spender] */\n      0xffffffffffffffffffffffffffffffffffffffff\n      and\n      0xffffffffffffffffffffffffffffffffffffffff\n      and\n      dup2\n      mstore\n      0x20\n      add\n      swap1\n      dup2\n      mstore\n      0x20\n      add\n      0x00\n      keccak256\n      sload\n        /* \"gitpopu/solidity/Napolite/contracts/token.sol\":3328:3358  return allowed[owner][spender] */\n      swap1\n      pop\n        /* \"gitpopu/solidity/Napolite/contracts/token.sol\":3229:3365  function allowance(address owner, address spender) public view override returns(uint256) {... */\n      swap3\n      swap2\n      pop\n      pop\n      jump\t// out\n        /* \"gitpopu/solidity/Napolite/contracts/token.sol\":3469:3658  function transferOwnership(address newOwner) public override{... */\n    tag_84:\n        /* \"gitpopu/solidity/Napolite/contracts/token.sol\":3561:3574  contractOwner */\n      0x01\n      0x00\n      swap1\n      sload\n      swap1\n      0x0100\n      exp\n      swap1\n      div\n      0xffffffffffffffffffffffffffffffffffffffff\n      and\n        /* \"gitpopu/solidity/Napolite/contracts/token.sol\":3547:3574  msg.sender == contractOwner */\n      0xffffffffffffffffffffffffffffffffffffffff\n      and\n        /* \"gitpopu/solidity/Napolite/contracts/token.sol\":3547:3557  msg.sender */\n      caller\n        /* \"gitpopu/solidity/Napolite/contracts/token.sol\":3547:3574  msg.sender == contractOwner */\n      0xffffffffffffffffffffffffffffffffffffffff\n      and\n      eq\n        /* \"gitpopu/solidity/Napolite/contracts/token.sol\":3539:3617  require(msg.sender == contractOwner, \"you are not the owner of this contract\") */\n      tag_138\n      jumpi\n      mload(0x40)\n      0x08c379a000000000000000000000000000000000000000000000000000000000\n      dup2\n      mstore\n      0x04\n      add\n      tag_139\n      swap1\n      tag_140\n      jump\t// in\n    tag_139:\n      mload(0x40)\n      dup1\n      swap2\n      sub\n      swap1\n      revert\n    tag_138:\n        /* \"gitpopu/solidity/Napolite/contracts/token.sol\":3643:3651  newOwner */\n      dup1\n        /* \"gitpopu/solidity/Napolite/contracts/token.sol\":3627:3640  contractOwner */\n      0x01\n      0x00\n        /* \"gitpopu/solidity/Napolite/contracts/token.sol\":3627:3651  contractOwner = newOwner */\n      0x0100\n      exp\n      dup2\n      sload\n      dup2\n      0xffffffffffffffffffffffffffffffffffffffff\n      mul\n      not\n      and\n      swap1\n      dup4\n      0xffffffffffffffffffffffffffffffffffffffff\n      and\n      mul\n      or\n      swap1\n      sstore\n      pop\n        /* \"gitpopu/solidity/Napolite/contracts/token.sol\":3469:3658  function transferOwnership(address newOwner) public override{... */\n      pop\n      jump\t// out\n        /* \"#utility.yul\":7:146   */\n    tag_142:\n        /* \"#utility.yul\":53:58   */\n      0x00\n        /* \"#utility.yul\":91:97   */\n      dup2\n        /* \"#utility.yul\":78:98   */\n      calldataload\n        /* \"#utility.yul\":69:98   */\n      swap1\n      pop\n        /* \"#utility.yul\":107:140   */\n      tag_144\n        /* \"#utility.yul\":134:139   */\n      dup2\n        /* \"#utility.yul\":107:140   */\n      tag_145\n      jump\t// in\n    tag_144:\n        /* \"#utility.yul\":7:146   */\n      swap3\n      swap2\n      pop\n      pop\n      jump\t// out\n        /* \"#utility.yul\":152:291   */\n    tag_146:\n        /* \"#utility.yul\":198:203   */\n      0x00\n        /* \"#utility.yul\":236:242   */\n      dup2\n        /* \"#utility.yul\":223:243   */\n      calldataload\n        /* \"#utility.yul\":214:243   */\n      swap1\n      pop\n        /* \"#utility.yul\":252:285   */\n      tag_148\n        /* \"#utility.yul\":279:284   */\n      dup2\n        /* \"#utility.yul\":252:285   */\n      tag_149\n      jump\t// in\n    tag_148:\n        /* \"#utility.yul\":152:291   */\n      swap3\n      swap2\n      pop\n      pop\n      jump\t// out\n        /* \"#utility.yul\":297:626   */\n    tag_41:\n        /* \"#utility.yul\":356:362   */\n      0x00\n        /* \"#utility.yul\":405:407   */\n      0x20\n        /* \"#utility.yul\":393:402   */\n      dup3\n        /* \"#utility.yul\":384:391   */\n      dup5\n        /* \"#utility.yul\":380:403   */\n      sub\n        /* \"#utility.yul\":376:408   */\n      slt\n        /* \"#utility.yul\":373:492   */\n      iszero\n      tag_151\n      jumpi\n        /* \"#utility.yul\":411:490   */\n      tag_152\n      tag_153\n      jump\t// in\n    tag_152:\n        /* \"#utility.yul\":373:492   */\n    tag_151:\n        /* \"#utility.yul\":531:532   */\n      0x00\n        /* \"#utility.yul\":556:609   */\n      tag_154\n        /* \"#utility.yul\":601:608   */\n      dup5\n        /* \"#utility.yul\":592:598   */\n      dup3\n        /* \"#utility.yul\":581:590   */\n      dup6\n        /* \"#utility.yul\":577:599   */\n      add\n        /* \"#utility.yul\":556:609   */\n      tag_142\n      jump\t// in\n    tag_154:\n        /* \"#utility.yul\":546:609   */\n      swap2\n      pop\n        /* \"#utility.yul\":502:619   */\n      pop\n        /* \"#utility.yul\":297:626   */\n      swap3\n      swap2\n      pop\n      pop\n      jump\t// out\n        /* \"#utility.yul\":632:1106   */\n    tag_52:\n        /* \"#utility.yul\":700:706   */\n      0x00\n        /* \"#utility.yul\":708:714   */\n      dup1\n        /* \"#utility.yul\":757:759   */\n      0x40\n        /* \"#utility.yul\":745:754   */\n      dup4\n        /* \"#utility.yul\":736:743   */\n      dup6\n        /* \"#utility.yul\":732:755   */\n      sub\n        /* \"#utility.yul\":728:760   */\n      slt\n        /* \"#utility.yul\":725:844   */\n      iszero\n      tag_156\n      jumpi\n        /* \"#utility.yul\":763:842   */\n      tag_157\n      tag_153\n      jump\t// in\n    tag_157:\n        /* \"#utility.yul\":725:844   */\n    tag_156:\n        /* \"#utility.yul\":883:884   */\n      0x00\n        /* \"#utility.yul\":908:961   */\n      tag_158\n        /* \"#utility.yul\":953:960   */\n      dup6\n        /* \"#utility.yul\":944:950   */\n      dup3\n        /* \"#utility.yul\":933:942   */\n      dup7\n        /* \"#utility.yul\":929:951   */\n      add\n        /* \"#utility.yul\":908:961   */\n      tag_142\n      jump\t// in\n    tag_158:\n        /* \"#utility.yul\":898:961   */\n      swap3\n      pop\n        /* \"#utility.yul\":854:971   */\n      pop\n        /* \"#utility.yul\":1010:1012   */\n      0x20\n        /* \"#utility.yul\":1036:1089   */\n      tag_159\n        /* \"#utility.yul\":1081:1088   */\n      dup6\n        /* \"#utility.yul\":1072:1078   */\n      dup3\n        /* \"#utility.yul\":1061:1070   */\n      dup7\n        /* \"#utility.yul\":1057:1079   */\n      add\n        /* \"#utility.yul\":1036:1089   */\n      tag_142\n      jump\t// in\n    tag_159:\n        /* \"#utility.yul\":1026:1089   */\n      swap2\n      pop\n        /* \"#utility.yul\":981:1099   */\n      pop\n        /* \"#utility.yul\":632:1106   */\n      swap3\n      pop\n      swap3\n      swap1\n      pop\n      jump\t// out\n        /* \"#utility.yul\":1112:1731   */\n    tag_37:\n        /* \"#utility.yul\":1189:1195   */\n      0x00\n        /* \"#utility.yul\":1197:1203   */\n      dup1\n        /* \"#utility.yul\":1205:1211   */\n      0x00\n        /* \"#utility.yul\":1254:1256   */\n      0x60\n        /* \"#utility.yul\":1242:1251   */\n      dup5\n        /* \"#utility.yul\":1233:1240   */\n      dup7\n        /* \"#utility.yul\":1229:1252   */\n      sub\n        /* \"#utility.yul\":1225:1257   */\n      slt\n        /* \"#utility.yul\":1222:1341   */\n      iszero\n      tag_161\n      jumpi\n        /* \"#utility.yul\":1260:1339   */\n      tag_162\n      tag_153\n      jump\t// in\n    tag_162:\n        /* \"#utility.yul\":1222:1341   */\n    tag_161:\n        /* \"#utility.yul\":1380:1381   */\n      0x00\n        /* \"#utility.yul\":1405:1458   */\n      tag_163\n        /* \"#utility.yul\":1450:1457   */\n      dup7\n        /* \"#utility.yul\":1441:1447   */\n      dup3\n        /* \"#utility.yul\":1430:1439   */\n      dup8\n        /* \"#utility.yul\":1426:1448   */\n      add\n        /* \"#utility.yul\":1405:1458   */\n      tag_142\n      jump\t// in\n    tag_163:\n        /* \"#utility.yul\":1395:1458   */\n      swap4\n      pop\n        /* \"#utility.yul\":1351:1468   */\n      pop\n        /* \"#utility.yul\":1507:1509   */\n      0x20\n        /* \"#utility.yul\":1533:1586   */\n      tag_164\n        /* \"#utility.yul\":1578:1585   */\n      dup7\n        /* \"#utility.yul\":1569:1575   */\n      dup3\n        /* \"#utility.yul\":1558:1567   */\n      dup8\n        /* \"#utility.yul\":1554:1576   */\n      add\n        /* \"#utility.yul\":1533:1586   */\n      tag_142\n      jump\t// in\n    tag_164:\n        /* \"#utility.yul\":1523:1586   */\n      swap3\n      pop\n        /* \"#utility.yul\":1478:1596   */\n      pop\n        /* \"#utility.yul\":1635:1637   */\n      0x40\n        /* \"#utility.yul\":1661:1714   */\n      tag_165\n        /* \"#utility.yul\":1706:1713   */\n      dup7\n        /* \"#utility.yul\":1697:1703   */\n      dup3\n        /* \"#utility.yul\":1686:1695   */\n      dup8\n        /* \"#utility.yul\":1682:1704   */\n      add\n        /* \"#utility.yul\":1661:1714   */\n      tag_146\n      jump\t// in\n    tag_165:\n        /* \"#utility.yul\":1651:1714   */\n      swap2\n      pop\n        /* \"#utility.yul\":1606:1724   */\n      pop\n        /* \"#utility.yul\":1112:1731   */\n      swap3\n      pop\n      swap3\n      pop\n      swap3\n      jump\t// out\n        /* \"#utility.yul\":1737:2211   */\n    tag_29:\n        /* \"#utility.yul\":1805:1811   */\n      0x00\n        /* \"#utility.yul\":1813:1819   */\n      dup1\n        /* \"#utility.yul\":1862:1864   */\n      0x40\n        /* \"#utility.yul\":1850:1859   */\n      dup4\n        /* \"#utility.yul\":1841:1848   */\n      dup6\n        /* \"#utility.yul\":1837:1860   */\n      sub\n        /* \"#utility.yul\":1833:1865   */\n      slt\n        /* \"#utility.yul\":1830:1949   */\n      iszero\n      tag_167\n      jumpi\n        /* \"#utility.yul\":1868:1947   */\n      tag_168\n      tag_153\n      jump\t// in\n    tag_168:\n        /* \"#utility.yul\":1830:1949   */\n    tag_167:\n        /* \"#utility.yul\":1988:1989   */\n      0x00\n        /* \"#utility.yul\":2013:2066   */\n      tag_169\n        /* \"#utility.yul\":2058:2065   */\n      dup6\n        /* \"#utility.yul\":2049:2055   */\n      dup3\n        /* \"#utility.yul\":2038:2047   */\n      dup7\n        /* \"#utility.yul\":2034:2056   */\n      add\n        /* \"#utility.yul\":2013:2066   */\n      tag_142\n      jump\t// in\n    tag_169:\n        /* \"#utility.yul\":2003:2066   */\n      swap3\n      pop\n        /* \"#utility.yul\":1959:2076   */\n      pop\n        /* \"#utility.yul\":2115:2117   */\n      0x20\n        /* \"#utility.yul\":2141:2194   */\n      tag_170\n        /* \"#utility.yul\":2186:2193   */\n      dup6\n        /* \"#utility.yul\":2177:2183   */\n      dup3\n        /* \"#utility.yul\":2166:2175   */\n      dup7\n        /* \"#utility.yul\":2162:2184   */\n      add\n        /* \"#utility.yul\":2141:2194   */\n      tag_146\n      jump\t// in\n    tag_170:\n        /* \"#utility.yul\":2131:2194   */\n      swap2\n      pop\n        /* \"#utility.yul\":2086:2204   */\n      pop\n        /* \"#utility.yul\":1737:2211   */\n      swap3\n      pop\n      swap3\n      swap1\n      pop\n      jump\t// out\n        /* \"#utility.yul\":2217:2335   */\n    tag_171:\n        /* \"#utility.yul\":2304:2328   */\n      tag_173\n        /* \"#utility.yul\":2322:2327   */\n      dup2\n        /* \"#utility.yul\":2304:2328   */\n      tag_174\n      jump\t// in\n    tag_173:\n        /* \"#utility.yul\":2299:2302   */\n      dup3\n        /* \"#utility.yul\":2292:2329   */\n      mstore\n        /* \"#utility.yul\":2217:2335   */\n      pop\n      pop\n      jump\t// out\n        /* \"#utility.yul\":2341:2705   */\n    tag_175:\n        /* \"#utility.yul\":2429:2432   */\n      0x00\n        /* \"#utility.yul\":2457:2496   */\n      tag_177\n        /* \"#utility.yul\":2490:2495   */\n      dup3\n        /* \"#utility.yul\":2457:2496   */\n      tag_178\n      jump\t// in\n    tag_177:\n        /* \"#utility.yul\":2512:2583   */\n      tag_179\n        /* \"#utility.yul\":2576:2582   */\n      dup2\n        /* \"#utility.yul\":2571:2574   */\n      dup6\n        /* \"#utility.yul\":2512:2583   */\n      tag_180\n      jump\t// in\n    tag_179:\n        /* \"#utility.yul\":2505:2583   */\n      swap4\n      pop\n        /* \"#utility.yul\":2592:2644   */\n      tag_181\n        /* \"#utility.yul\":2637:2643   */\n      dup2\n        /* \"#utility.yul\":2632:2635   */\n      dup6\n        /* \"#utility.yul\":2625:2629   */\n      0x20\n        /* \"#utility.yul\":2618:2623   */\n      dup7\n        /* \"#utility.yul\":2614:2630   */\n      add\n        /* \"#utility.yul\":2592:2644   */\n      tag_182\n      jump\t// in\n    tag_181:\n        /* \"#utility.yul\":2669:2698   */\n      tag_183\n        /* \"#utility.yul\":2691:2697   */\n      dup2\n        /* \"#utility.yul\":2669:2698   */\n      tag_184\n      jump\t// in\n    tag_183:\n        /* \"#utility.yul\":2664:2667   */\n      dup5\n        /* \"#utility.yul\":2660:2699   */\n      add\n        /* \"#utility.yul\":2653:2699   */\n      swap2\n      pop\n        /* \"#utility.yul\":2433:2705   */\n      pop\n        /* \"#utility.yul\":2341:2705   */\n      swap3\n      swap2\n      pop\n      pop\n      jump\t// out\n        /* \"#utility.yul\":2711:3077   */\n    tag_185:\n        /* \"#utility.yul\":2853:2856   */\n      0x00\n        /* \"#utility.yul\":2874:2941   */\n      tag_187\n        /* \"#utility.yul\":2938:2940   */\n      0x2a\n        /* \"#utility.yul\":2933:2936   */\n      dup4\n        /* \"#utility.yul\":2874:2941   */\n      tag_180\n      jump\t// in\n    tag_187:\n        /* \"#utility.yul\":2867:2941   */\n      swap2\n      pop\n        /* \"#utility.yul\":2950:3043   */\n      tag_188\n        /* \"#utility.yul\":3039:3042   */\n      dup3\n        /* \"#utility.yul\":2950:3043   */\n      tag_189\n      jump\t// in\n    tag_188:\n        /* \"#utility.yul\":3068:3070   */\n      0x40\n        /* \"#utility.yul\":3063:3066   */\n      dup3\n        /* \"#utility.yul\":3059:3071   */\n      add\n        /* \"#utility.yul\":3052:3071   */\n      swap1\n      pop\n        /* \"#utility.yul\":2711:3077   */\n      swap2\n      swap1\n      pop\n      jump\t// out\n        /* \"#utility.yul\":3083:3449   */\n    tag_190:\n        /* \"#utility.yul\":3225:3228   */\n      0x00\n        /* \"#utility.yul\":3246:3313   */\n      tag_192\n        /* \"#utility.yul\":3310:3312   */\n      0x26\n        /* \"#utility.yul\":3305:3308   */\n      dup4\n        /* \"#utility.yul\":3246:3313   */\n      tag_180\n      jump\t// in\n    tag_192:\n        /* \"#utility.yul\":3239:3313   */\n      swap2\n      pop\n        /* \"#utility.yul\":3322:3415   */\n      tag_193\n        /* \"#utility.yul\":3411:3414   */\n      dup3\n        /* \"#utility.yul\":3322:3415   */\n      tag_194\n      jump\t// in\n    tag_193:\n        /* \"#utility.yul\":3440:3442   */\n      0x40\n        /* \"#utility.yul\":3435:3438   */\n      dup3\n        /* \"#utility.yul\":3431:3443   */\n      add\n        /* \"#utility.yul\":3424:3443   */\n      swap1\n      pop\n        /* \"#utility.yul\":3083:3449   */\n      swap2\n      swap1\n      pop\n      jump\t// out\n        /* \"#utility.yul\":3455:3821   */\n    tag_195:\n        /* \"#utility.yul\":3597:3600   */\n      0x00\n        /* \"#utility.yul\":3618:3685   */\n      tag_197\n        /* \"#utility.yul\":3682:3684   */\n      0x24\n        /* \"#utility.yul\":3677:3680   */\n      dup4\n        /* \"#utility.yul\":3618:3685   */\n      tag_180\n      jump\t// in\n    tag_197:\n        /* \"#utility.yul\":3611:3685   */\n      swap2\n      pop\n        /* \"#utility.yul\":3694:3787   */\n      tag_198\n        /* \"#utility.yul\":3783:3786   */\n      dup3\n        /* \"#utility.yul\":3694:3787   */\n      tag_199\n      jump\t// in\n    tag_198:\n        /* \"#utility.yul\":3812:3814   */\n      0x40\n        /* \"#utility.yul\":3807:3810   */\n      dup3\n        /* \"#utility.yul\":3803:3815   */\n      add\n        /* \"#utility.yul\":3796:3815   */\n      swap1\n      pop\n        /* \"#utility.yul\":3455:3821   */\n      swap2\n      swap1\n      pop\n      jump\t// out\n        /* \"#utility.yul\":3827:3945   */\n    tag_200:\n        /* \"#utility.yul\":3914:3938   */\n      tag_202\n        /* \"#utility.yul\":3932:3937   */\n      dup2\n        /* \"#utility.yul\":3914:3938   */\n      tag_203\n      jump\t// in\n    tag_202:\n        /* \"#utility.yul\":3909:3912   */\n      dup3\n        /* \"#utility.yul\":3902:3939   */\n      mstore\n        /* \"#utility.yul\":3827:3945   */\n      pop\n      pop\n      jump\t// out\n        /* \"#utility.yul\":3951:4173   */\n    tag_71:\n        /* \"#utility.yul\":4044:4048   */\n      0x00\n        /* \"#utility.yul\":4082:4084   */\n      0x20\n        /* \"#utility.yul\":4071:4080   */\n      dup3\n        /* \"#utility.yul\":4067:4085   */\n      add\n        /* \"#utility.yul\":4059:4085   */\n      swap1\n      pop\n        /* \"#utility.yul\":4095:4166   */\n      tag_205\n        /* \"#utility.yul\":4163:4164   */\n      0x00\n        /* \"#utility.yul\":4152:4161   */\n      dup4\n        /* \"#utility.yul\":4148:4165   */\n      add\n        /* \"#utility.yul\":4139:4145   */\n      dup5\n        /* \"#utility.yul\":4095:4166   */\n      tag_171\n      jump\t// in\n    tag_205:\n        /* \"#utility.yul\":3951:4173   */\n      swap3\n      swap2\n      pop\n      pop\n      jump\t// out\n        /* \"#utility.yul\":4179:4492   */\n    tag_26:\n        /* \"#utility.yul\":4292:4296   */\n      0x00\n        /* \"#utility.yul\":4330:4332   */\n      0x20\n        /* \"#utility.yul\":4319:4328   */\n      dup3\n        /* \"#utility.yul\":4315:4333   */\n      add\n        /* \"#utility.yul\":4307:4333   */\n      swap1\n      pop\n        /* \"#utility.yul\":4379:4388   */\n      dup2\n        /* \"#utility.yul\":4373:4377   */\n      dup2\n        /* \"#utility.yul\":4369:4389   */\n      sub\n        /* \"#utility.yul\":4365:4366   */\n      0x00\n        /* \"#utility.yul\":4354:4363   */\n      dup4\n        /* \"#utility.yul\":4350:4367   */\n      add\n        /* \"#utility.yul\":4343:4390   */\n      mstore\n        /* \"#utility.yul\":4407:4485   */\n      tag_207\n        /* \"#utility.yul\":4480:4484   */\n      dup2\n        /* \"#utility.yul\":4471:4477   */\n      dup5\n        /* \"#utility.yul\":4407:4485   */\n      tag_175\n      jump\t// in\n    tag_207:\n        /* \"#utility.yul\":4399:4485   */\n      swap1\n      pop\n        /* \"#utility.yul\":4179:4492   */\n      swap3\n      swap2\n      pop\n      pop\n      jump\t// out\n        /* \"#utility.yul\":4498:4917   */\n    tag_98:\n        /* \"#utility.yul\":4664:4668   */\n      0x00\n        /* \"#utility.yul\":4702:4704   */\n      0x20\n        /* \"#utility.yul\":4691:4700   */\n      dup3\n        /* \"#utility.yul\":4687:4705   */\n      add\n        /* \"#utility.yul\":4679:4705   */\n      swap1\n      pop\n        /* \"#utility.yul\":4751:4760   */\n      dup2\n        /* \"#utility.yul\":4745:4749   */\n      dup2\n        /* \"#utility.yul\":4741:4761   */\n      sub\n        /* \"#utility.yul\":4737:4738   */\n      0x00\n        /* \"#utility.yul\":4726:4735   */\n      dup4\n        /* \"#utility.yul\":4722:4739   */\n      add\n        /* \"#utility.yul\":4715:4762   */\n      mstore\n        /* \"#utility.yul\":4779:4910   */\n      tag_209\n        /* \"#utility.yul\":4905:4909   */\n      dup2\n        /* \"#utility.yul\":4779:4910   */\n      tag_185\n      jump\t// in\n    tag_209:\n        /* \"#utility.yul\":4771:4910   */\n      swap1\n      pop\n        /* \"#utility.yul\":4498:4917   */\n      swap2\n      swap1\n      pop\n      jump\t// out\n        /* \"#utility.yul\":4923:5342   */\n    tag_140:\n        /* \"#utility.yul\":5089:5093   */\n      0x00\n        /* \"#utility.yul\":5127:5129   */\n      0x20\n        /* \"#utility.yul\":5116:5125   */\n      dup3\n        /* \"#utility.yul\":5112:5130   */\n      add\n        /* \"#utility.yul\":5104:5130   */\n      swap1\n      pop\n        /* \"#utility.yul\":5176:5185   */\n      dup2\n        /* \"#utility.yul\":5170:5174   */\n      dup2\n        /* \"#utility.yul\":5166:5186   */\n      sub\n        /* \"#utility.yul\":5162:5163   */\n      0x00\n        /* \"#utility.yul\":5151:5160   */\n      dup4\n        /* \"#utility.yul\":5147:5164   */\n      add\n        /* \"#utility.yul\":5140:5187   */\n      mstore\n        /* \"#utility.yul\":5204:5335   */\n      tag_211\n        /* \"#utility.yul\":5330:5334   */\n      dup2\n        /* \"#utility.yul\":5204:5335   */\n      tag_190\n      jump\t// in\n    tag_211:\n        /* \"#utility.yul\":5196:5335   */\n      swap1\n      pop\n        /* \"#utility.yul\":4923:5342   */\n      swap2\n      swap1\n      pop\n      jump\t// out\n        /* \"#utility.yul\":5348:5767   */\n    tag_101:\n        /* \"#utility.yul\":5514:5518   */\n      0x00\n        /* \"#utility.yul\":5552:5554   */\n      0x20\n        /* \"#utility.yul\":5541:5550   */\n      dup3\n        /* \"#utility.yul\":5537:5555   */\n      add\n        /* \"#utility.yul\":5529:5555   */\n      swap1\n      pop\n        /* \"#utility.yul\":5601:5610   */\n      dup2\n        /* \"#utility.yul\":5595:5599   */\n      dup2\n        /* \"#utility.yul\":5591:5611   */\n      sub\n        /* \"#utility.yul\":5587:5588   */\n      0x00\n        /* \"#utility.yul\":5576:5585   */\n      dup4\n        /* \"#utility.yul\":5572:5589   */\n      add\n        /* \"#utility.yul\":5565:5612   */\n      mstore\n        /* \"#utility.yul\":5629:5760   */\n      tag_213\n        /* \"#utility.yul\":5755:5759   */\n      dup2\n        /* \"#utility.yul\":5629:5760   */\n      tag_195\n      jump\t// in\n    tag_213:\n        /* \"#utility.yul\":5621:5760   */\n      swap1\n      pop\n        /* \"#utility.yul\":5348:5767   */\n      swap2\n      swap1\n      pop\n      jump\t// out\n        /* \"#utility.yul\":5773:5995   */\n    tag_34:\n        /* \"#utility.yul\":5866:5870   */\n      0x00\n        /* \"#utility.yul\":5904:5906   */\n      0x20\n        /* \"#utility.yul\":5893:5902   */\n      dup3\n        /* \"#utility.yul\":5889:5907   */\n      add\n        /* \"#utility.yul\":5881:5907   */\n      swap1\n      pop\n        /* \"#utility.yul\":5917:5988   */\n      tag_215\n        /* \"#utility.yul\":5985:5986   */\n      0x00\n        /* \"#utility.yul\":5974:5983   */\n      dup4\n        /* \"#utility.yul\":5970:5987   */\n      add\n        /* \"#utility.yul\":5961:5967   */\n      dup5\n        /* \"#utility.yul\":5917:5988   */\n      tag_200\n      jump\t// in\n    tag_215:\n        /* \"#utility.yul\":5773:5995   */\n      swap3\n      swap2\n      pop\n      pop\n      jump\t// out\n        /* \"#utility.yul\":6001:6333   */\n    tag_104:\n        /* \"#utility.yul\":6122:6126   */\n      0x00\n        /* \"#utility.yul\":6160:6162   */\n      0x40\n        /* \"#utility.yul\":6149:6158   */\n      dup3\n        /* \"#utility.yul\":6145:6163   */\n      add\n        /* \"#utility.yul\":6137:6163   */\n      swap1\n      pop\n        /* \"#utility.yul\":6173:6244   */\n      tag_217\n        /* \"#utility.yul\":6241:6242   */\n      0x00\n        /* \"#utility.yul\":6230:6239   */\n      dup4\n        /* \"#utility.yul\":6226:6243   */\n      add\n        /* \"#utility.yul\":6217:6223   */\n      dup6\n        /* \"#utility.yul\":6173:6244   */\n      tag_200\n      jump\t// in\n    tag_217:\n        /* \"#utility.yul\":6254:6326   */\n      tag_218\n        /* \"#utility.yul\":6322:6324   */\n      0x20\n        /* \"#utility.yul\":6311:6320   */\n      dup4\n        /* \"#utility.yul\":6307:6325   */\n      add\n        /* \"#utility.yul\":6298:6304   */\n      dup5\n        /* \"#utility.yul\":6254:6326   */\n      tag_200\n      jump\t// in\n    tag_218:\n        /* \"#utility.yul\":6001:6333   */\n      swap4\n      swap3\n      pop\n      pop\n      pop\n      jump\t// out\n        /* \"#utility.yul\":6420:6519   */\n    tag_178:\n        /* \"#utility.yul\":6472:6478   */\n      0x00\n        /* \"#utility.yul\":6506:6511   */\n      dup2\n        /* \"#utility.yul\":6500:6512   */\n      mload\n        /* \"#utility.yul\":6490:6512   */\n      swap1\n      pop\n        /* \"#utility.yul\":6420:6519   */\n      swap2\n      swap1\n      pop\n      jump\t// out\n        /* \"#utility.yul\":6525:6694   */\n    tag_180:\n        /* \"#utility.yul\":6609:6620   */\n      0x00\n        /* \"#utility.yul\":6643:6649   */\n      dup3\n        /* \"#utility.yul\":6638:6641   */\n      dup3\n        /* \"#utility.yul\":6631:6650   */\n      mstore\n        /* \"#utility.yul\":6683:6687   */\n      0x20\n        /* \"#utility.yul\":6678:6681   */\n      dup3\n        /* \"#utility.yul\":6674:6688   */\n      add\n        /* \"#utility.yul\":6659:6688   */\n      swap1\n      pop\n        /* \"#utility.yul\":6525:6694   */\n      swap3\n      swap2\n      pop\n      pop\n      jump\t// out\n        /* \"#utility.yul\":6700:7005   */\n    tag_108:\n        /* \"#utility.yul\":6740:6743   */\n      0x00\n        /* \"#utility.yul\":6759:6779   */\n      tag_224\n        /* \"#utility.yul\":6777:6778   */\n      dup3\n        /* \"#utility.yul\":6759:6779   */\n      tag_203\n      jump\t// in\n    tag_224:\n        /* \"#utility.yul\":6754:6779   */\n      swap2\n      pop\n        /* \"#utility.yul\":6793:6813   */\n      tag_225\n        /* \"#utility.yul\":6811:6812   */\n      dup4\n        /* \"#utility.yul\":6793:6813   */\n      tag_203\n      jump\t// in\n    tag_225:\n        /* \"#utility.yul\":6788:6813   */\n      swap3\n      pop\n        /* \"#utility.yul\":6947:6948   */\n      dup3\n        /* \"#utility.yul\":6879:6945   */\n      0xffffffffffffffffffffffffffffffffffffffffffffffffffffffffffffffff\n        /* \"#utility.yul\":6875:6949   */\n      sub\n        /* \"#utility.yul\":6872:6873   */\n      dup3\n        /* \"#utility.yul\":6869:6950   */\n      gt\n        /* \"#utility.yul\":6866:6973   */\n      iszero\n      tag_226\n      jumpi\n        /* \"#utility.yul\":6953:6971   */\n      tag_227\n      tag_228\n      jump\t// in\n    tag_227:\n        /* \"#utility.yul\":6866:6973   */\n    tag_226:\n        /* \"#utility.yul\":6997:6998   */\n      dup3\n        /* \"#utility.yul\":6994:6995   */\n      dup3\n        /* \"#utility.yul\":6990:6999   */\n      add\n        /* \"#utility.yul\":6983:6999   */\n      swap1\n      pop\n        /* \"#utility.yul\":6700:7005   */\n      swap3\n      swap2\n      pop\n      pop\n      jump\t// out\n        /* \"#utility.yul\":7011:7202   */\n    tag_106:\n        /* \"#utility.yul\":7051:7055   */\n      0x00\n        /* \"#utility.yul\":7071:7091   */\n      tag_230\n        /* \"#utility.yul\":7089:7090   */\n      dup3\n        /* \"#utility.yul\":7071:7091   */\n      tag_203\n      jump\t// in\n    tag_230:\n        /* \"#utility.yul\":7066:7091   */\n      swap2\n      pop\n        /* \"#utility.yul\":7105:7125   */\n      tag_231\n        /* \"#utility.yul\":7123:7124   */\n      dup4\n        /* \"#utility.yul\":7105:7125   */\n      tag_203\n      jump\t// in\n    tag_231:\n        /* \"#utility.yul\":7100:7125   */\n      swap3\n      pop\n        /* \"#utility.yul\":7144:7145   */\n      dup3\n        /* \"#utility.yul\":7141:7142   */\n      dup3\n        /* \"#utility.yul\":7138:7146   */\n      lt\n        /* \"#utility.yul\":7135:7169   */\n      iszero\n      tag_232\n      jumpi\n        /* \"#utility.yul\":7149:7167   */\n      tag_233\n      tag_228\n      jump\t// in\n    tag_233:\n        /* \"#utility.yul\":7135:7169   */\n    tag_232:\n        /* \"#utility.yul\":7194:7195   */\n      dup3\n        /* \"#utility.yul\":7191:7192   */\n      dup3\n        /* \"#utility.yul\":7187:7196   */\n      sub\n        /* \"#utility.yul\":7179:7196   */\n      swap1\n      pop\n        /* \"#utility.yul\":7011:7202   */\n      swap3\n      swap2\n      pop\n      pop\n      jump\t// out\n        /* \"#utility.yul\":7208:7304   */\n    tag_174:\n        /* \"#utility.yul\":7245:7252   */\n      0x00\n        /* \"#utility.yul\":7274:7298   */\n      tag_235\n        /* \"#utility.yul\":7292:7297   */\n      dup3\n        /* \"#utility.yul\":7274:7298   */\n      tag_236\n      jump\t// in\n    tag_235:\n        /* \"#utility.yul\":7263:7298   */\n      swap1\n      pop\n        /* \"#utility.yul\":7208:7304   */\n      swap2\n      swap1\n      pop\n      jump\t// out\n        /* \"#utility.yul\":7310:7436   */\n    tag_236:\n        /* \"#utility.yul\":7347:7354   */\n      0x00\n        /* \"#utility.yul\":7387:7429   */\n      0xffffffffffffffffffffffffffffffffffffffff\n        /* \"#utility.yul\":7380:7385   */\n      dup3\n        /* \"#utility.yul\":7376:7430   */\n      and\n        /* \"#utility.yul\":7365:7430   */\n      swap1\n      pop\n        /* \"#utility.yul\":7310:7436   */\n      swap2\n      swap1\n      pop\n      jump\t// out\n        /* \"#utility.yul\":7442:7519   */\n    tag_203:\n        /* \"#utility.yul\":7479:7486   */\n      0x00\n        /* \"#utility.yul\":7508:7513   */\n      dup2\n        /* \"#utility.yul\":7497:7513   */\n      swap1\n      pop\n        /* \"#utility.yul\":7442:7519   */\n      swap2\n      swap1\n      pop\n      jump\t// out\n        /* \"#utility.yul\":7525:7832   */\n    tag_182:\n        /* \"#utility.yul\":7593:7594   */\n      0x00\n        /* \"#utility.yul\":7603:7716   */\n    tag_240:\n        /* \"#utility.yul\":7617:7623   */\n      dup4\n        /* \"#utility.yul\":7614:7615   */\n      dup2\n        /* \"#utility.yul\":7611:7624   */\n      lt\n        /* \"#utility.yul\":7603:7716   */\n      iszero\n      tag_242\n      jumpi\n        /* \"#utility.yul\":7702:7703   */\n      dup1\n        /* \"#utility.yul\":7697:7700   */\n      dup3\n        /* \"#utility.yul\":7693:7704   */\n      add\n        /* \"#utility.yul\":7687:7705   */\n      mload\n        /* \"#utility.yul\":7683:7684   */\n      dup2\n        /* \"#utility.yul\":7678:7681   */\n      dup5\n        /* \"#utility.yul\":7674:7685   */\n      add\n        /* \"#utility.yul\":7667:7706   */\n      mstore\n        /* \"#utility.yul\":7639:7641   */\n      0x20\n        /* \"#utility.yul\":7636:7637   */\n      dup2\n        /* \"#utility.yul\":7632:7642   */\n      add\n        /* \"#utility.yul\":7627:7642   */\n      swap1\n      pop\n        /* \"#utility.yul\":7603:7716   */\n      jump(tag_240)\n    tag_242:\n        /* \"#utility.yul\":7734:7740   */\n      dup4\n        /* \"#utility.yul\":7731:7732   */\n      dup2\n        /* \"#utility.yul\":7728:7741   */\n      gt\n        /* \"#utility.yul\":7725:7826   */\n      iszero\n      tag_243\n      jumpi\n        /* \"#utility.yul\":7814:7815   */\n      0x00\n        /* \"#utility.yul\":7805:7811   */\n      dup5\n        /* \"#utility.yul\":7800:7803   */\n      dup5\n        /* \"#utility.yul\":7796:7812   */\n      add\n        /* \"#utility.yul\":7789:7816   */\n      mstore\n        /* \"#utility.yul\":7725:7826   */\n    tag_243:\n        /* \"#utility.yul\":7574:7832   */\n      pop\n        /* \"#utility.yul\":7525:7832   */\n      pop\n      pop\n      pop\n      jump\t// out\n        /* \"#utility.yul\":7838:8158   */\n    tag_87:\n        /* \"#utility.yul\":7882:7888   */\n      0x00\n        /* \"#utility.yul\":7919:7920   */\n      0x02\n        /* \"#utility.yul\":7913:7917   */\n      dup3\n        /* \"#utility.yul\":7909:7921   */\n      div\n        /* \"#utility.yul\":7899:7921   */\n      swap1\n      pop\n        /* \"#utility.yul\":7966:7967   */\n      0x01\n        /* \"#utility.yul\":7960:7964   */\n      dup3\n        /* \"#utility.yul\":7956:7968   */\n      and\n        /* \"#utility.yul\":7987:8005   */\n      dup1\n        /* \"#utility.yul\":7977:8058   */\n      tag_245\n      jumpi\n        /* \"#utility.yul\":8043:8047   */\n      0x7f\n        /* \"#utility.yul\":8035:8041   */\n      dup3\n        /* \"#utility.yul\":8031:8048   */\n      and\n        /* \"#utility.yul\":8021:8048   */\n      swap2\n      pop\n        /* \"#utility.yul\":7977:8058   */\n    tag_245:\n        /* \"#utility.yul\":8105:8107   */\n      0x20\n        /* \"#utility.yul\":8097:8103   */\n      dup3\n        /* \"#utility.yul\":8094:8108   */\n      lt\n        /* \"#utility.yul\":8074:8092   */\n      dup2\n        /* \"#utility.yul\":8071:8109   */\n      eq\n        /* \"#utility.yul\":8068:8152   */\n      iszero\n      tag_246\n      jumpi\n        /* \"#utility.yul\":8124:8142   */\n      tag_247\n      tag_248\n      jump\t// in\n    tag_247:\n        /* \"#utility.yul\":8068:8152   */\n    tag_246:\n        /* \"#utility.yul\":7889:8158   */\n      pop\n        /* \"#utility.yul\":7838:8158   */\n      swap2\n      swap1\n      pop\n      jump\t// out\n        /* \"#utility.yul\":8164:8344   */\n    tag_228:\n        /* \"#utility.yul\":8212:8289   */\n      0x4e487b7100000000000000000000000000000000000000000000000000000000\n        /* \"#utility.yul\":8209:8210   */\n      0x00\n        /* \"#utility.yul\":8202:8290   */\n      mstore\n        /* \"#utility.yul\":8309:8313   */\n      0x11\n        /* \"#utility.yul\":8306:8307   */\n      0x04\n        /* \"#utility.yul\":8299:8314   */\n      mstore\n        /* \"#utility.yul\":8333:8337   */\n      0x24\n        /* \"#utility.yul\":8330:8331   */\n      0x00\n        /* \"#utility.yul\":8323:8338   */\n      revert\n        /* \"#utility.yul\":8350:8530   */\n    tag_248:\n        /* \"#utility.yul\":8398:8475   */\n      0x4e487b7100000000000000000000000000000000000000000000000000000000\n        /* \"#utility.yul\":8395:8396   */\n      0x00\n        /* \"#utility.yul\":8388:8476   */\n      mstore\n        /* \"#utility.yul\":8495:8499   */\n      0x22\n        /* \"#utility.yul\":8492:8493   */\n      0x04\n        /* \"#utility.yul\":8485:8500   */\n      mstore\n        /* \"#utility.yul\":8519:8523   */\n      0x24\n        /* \"#utility.yul\":8516:8517   */\n      0x00\n        /* \"#utility.yul\":8509:8524   */\n      revert\n        /* \"#utility.yul\":8659:8776   */\n    tag_153:\n        /* \"#utility.yul\":8768:8769   */\n      0x00\n        /* \"#utility.yul\":8765:8766   */\n      dup1\n        /* \"#utility.yul\":8758:8770   */\n      revert\n        /* \"#utility.yul\":8782:8884   */\n    tag_184:\n        /* \"#utility.yul\":8823:8829   */\n      0x00\n        /* \"#utility.yul\":8874:8876   */\n      0x1f\n        /* \"#utility.yul\":8870:8877   */\n      not\n        /* \"#utility.yul\":8865:8867   */\n      0x1f\n        /* \"#utility.yul\":8858:8863   */\n      dup4\n        /* \"#utility.yul\":8854:8868   */\n      add\n        /* \"#utility.yul\":8850:8878   */\n      and\n        /* \"#utility.yul\":8840:8878   */\n      swap1\n      pop\n        /* \"#utility.yul\":8782:8884   */\n      swap2\n      swap1\n      pop\n      jump\t// out\n        /* \"#utility.yul\":8890:9119   */\n    tag_189:\n        /* \"#utility.yul\":9030:9064   */\n      0x796f752063616e6e6f74207472616e7366657220746f6b656e7320746f207361\n        /* \"#utility.yul\":9026:9027   */\n      0x00\n        /* \"#utility.yul\":9018:9024   */\n      dup3\n        /* \"#utility.yul\":9014:9028   */\n      add\n        /* \"#utility.yul\":9007:9065   */\n      mstore\n        /* \"#utility.yul\":9099:9111   */\n      0x6d65206164647265737300000000000000000000000000000000000000000000\n        /* \"#utility.yul\":9094:9096   */\n      0x20\n        /* \"#utility.yul\":9086:9092   */\n      dup3\n        /* \"#utility.yul\":9082:9097   */\n      add\n        /* \"#utility.yul\":9075:9112   */\n      mstore\n        /* \"#utility.yul\":8890:9119   */\n      pop\n      jump\t// out\n        /* \"#utility.yul\":9125:9350   */\n    tag_194:\n        /* \"#utility.yul\":9265:9299   */\n      0x796f7520617265206e6f7420746865206f776e6572206f66207468697320636f\n        /* \"#utility.yul\":9261:9262   */\n      0x00\n        /* \"#utility.yul\":9253:9259   */\n      dup3\n        /* \"#utility.yul\":9249:9263   */\n      add\n        /* \"#utility.yul\":9242:9300   */\n      mstore\n        /* \"#utility.yul\":9334:9342   */\n      0x6e74726163740000000000000000000000000000000000000000000000000000\n        /* \"#utility.yul\":9329:9331   */\n      0x20\n        /* \"#utility.yul\":9321:9327   */\n      dup3\n        /* \"#utility.yul\":9317:9332   */\n      add\n        /* \"#utility.yul\":9310:9343   */\n      mstore\n        /* \"#utility.yul\":9125:9350   */\n      pop\n      jump\t// out\n        /* \"#utility.yul\":9356:9579   */\n    tag_199:\n        /* \"#utility.yul\":9496:9530   */\n      0x436f6e7472616374206e6f7420616c6c6f77656420746f207370656e6420616d\n        /* \"#utility.yul\":9492:9493   */\n      0x00\n        /* \"#utility.yul\":9484:9490   */\n      dup3\n        /* \"#utility.yul\":9480:9494   */\n      add\n        /* \"#utility.yul\":9473:9531   */\n      mstore\n        /* \"#utility.yul\":9565:9571   */\n      0x6f756e7400000000000000000000000000000000000000000000000000000000\n        /* \"#utility.yul\":9560:9562   */\n      0x20\n        /* \"#utility.yul\":9552:9558   */\n      dup3\n        /* \"#utility.yul\":9548:9563   */\n      add\n        /* \"#utility.yul\":9541:9572   */\n      mstore\n        /* \"#utility.yul\":9356:9579   */\n      pop\n      jump\t// out\n        /* \"#utility.yul\":9585:9707   */\n    tag_145:\n        /* \"#utility.yul\":9658:9682   */\n      tag_259\n        /* \"#utility.yul\":9676:9681   */\n      dup2\n        /* \"#utility.yul\":9658:9682   */\n      tag_174\n      jump\t// in\n    tag_259:\n        /* \"#utility.yul\":9651:9656   */\n      dup2\n        /* \"#utility.yul\":9648:9683   */\n      eq\n        /* \"#utility.yul\":9638:9701   */\n      tag_260\n      jumpi\n        /* \"#utility.yul\":9697:9698   */\n      0x00\n        /* \"#utility.yul\":9694:9695   */\n      dup1\n        /* \"#utility.yul\":9687:9699   */\n      revert\n        /* \"#utility.yul\":9638:9701   */\n    tag_260:\n        /* \"#utility.yul\":9585:9707   */\n      pop\n      jump\t// out\n        /* \"#utility.yul\":9713:9835   */\n    tag_149:\n        /* \"#utility.yul\":9786:9810   */\n      tag_262\n        /* \"#utility.yul\":9804:9809   */\n      dup2\n        /* \"#utility.yul\":9786:9810   */\n      tag_203\n      jump\t// in\n    tag_262:\n        /* \"#utility.yul\":9779:9784   */\n      dup2\n        /* \"#utility.yul\":9776:9811   */\n      eq\n        /* \"#utility.yul\":9766:9829   */\n      tag_263\n      jumpi\n        /* \"#utility.yul\":9825:9826   */\n      0x00\n        /* \"#utility.yul\":9822:9823   */\n      dup1\n        /* \"#utility.yul\":9815:9827   */\n      revert\n        /* \"#utility.yul\":9766:9829   */\n    tag_263:\n        /* \"#utility.yul\":9713:9835   */\n      pop\n      jump\t// out\n\n    auxdata: 0xa2646970667358221220842bffd29397030c8d12f282fab3e4fea49b79cddecb3e2314d4b4873bd58bf864736f6c63430008070033\n}\n",
				"bytecode": {
					"linkReferences": {},
					"object": "60806040523480156200001157600080fd5b5033600160006101000a81548173ffffffffffffffffffffffffffffffffffffffff021916908373ffffffffffffffffffffffffffffffffffffffff1602179055506040518060400160405280600881526020017f4e61706f6c69746500000000000000000000000000000000000000000000000081525060029080519060200190620000a0929190620001fc565b506040518060400160405280600381526020017f4e6170000000000000000000000000000000000000000000000000000000000081525060039080519060200190620000ee929190620001fc565b5062000104633b9aca006200010a60201b60201c565b620003a7565b600160009054906101000a900473ffffffffffffffffffffffffffffffffffffffff1673ffffffffffffffffffffffffffffffffffffffff163373ffffffffffffffffffffffffffffffffffffffff16146200016557600080fd5b8060056000600160009054906101000a900473ffffffffffffffffffffffffffffffffffffffff1673ffffffffffffffffffffffffffffffffffffffff1673ffffffffffffffffffffffffffffffffffffffff1681526020019081526020016000206000828254620001d89190620002ac565b9250508190555080600080828254620001f29190620002ac565b9250508190555050565b8280546200020a9062000313565b90600052602060002090601f0160209004810192826200022e57600085556200027a565b82601f106200024957805160ff19168380011785556200027a565b828001600101855582156200027a579182015b82811115620002795782518255916020019190600101906200025c565b5b5090506200028991906200028d565b5090565b5b80821115620002a85760008160009055506001016200028e565b5090565b6000620002b98262000309565b9150620002c68362000309565b9250827fffffffffffffffffffffffffffffffffffffffffffffffffffffffffffffffff03821115620002fe57620002fd62000349565b5b828201905092915050565b6000819050919050565b600060028204905060018216806200032c57607f821691505b6020821081141562000343576200034262000378565b5b50919050565b7f4e487b7100000000000000000000000000000000000000000000000000000000600052601160045260246000fd5b7f4e487b7100000000000000000000000000000000000000000000000000000000600052602260045260246000fd5b6113ec80620003b76000396000f3fe608060405234801561001057600080fd5b506004361061010b5760003560e01c806370a08231116100a2578063b4a99a4e11610071578063b4a99a4e146102a8578063ce606ee0146102c6578063d28d8852146102e4578063dd62ed3e14610302578063f2fde38b146103325761010b565b806370a082311461022057806395d89b4114610250578063a9059cbb1461026e578063b09f12661461028a5761010b565b806327e235e3116100de57806327e235e314610184578063313ce567146101b45780633eaaf86b146101d25780635c658165146101f05761010b565b806306fdde0314610110578063095ea7b31461012e57806318160ddd1461014a57806323b872dd14610168575b600080fd5b61011861034e565b604051610125919061101a565b60405180910390f35b61014860048036038101906101439190610eff565b6103e0565b005b6101526104ca565b60405161015f919061109c565b60405180910390f35b610182600480360381019061017d9190610eac565b6104d3565b005b61019e60048036038101906101999190610e3f565b6107e1565b6040516101ab919061109c565b60405180910390f35b6101bc6107f9565b6040516101c9919061109c565b60405180910390f35b6101da6107ff565b6040516101e7919061109c565b60405180910390f35b61020a60048036038101906102059190610e6c565b610805565b604051610217919061109c565b60405180910390f35b61023a60048036038101906102359190610e3f565b61082a565b604051610247919061109c565b60405180910390f35b610258610873565b604051610265919061101a565b60405180910390f35b61028860048036038101906102839190610eff565b610905565b005b610292610b4e565b60405161029f919061101a565b60405180910390f35b6102b0610bdc565b6040516102bd9190610fff565b60405180910390f35b6102ce610c06565b6040516102db9190610fff565b60405180910390f35b6102ec610c2c565b6040516102f9919061101a565b60405180910390f35b61031c60048036038101906103179190610e6c565b610cba565b604051610329919061109c565b60405180910390f35b61034c60048036038101906103479190610e3f565b610d41565b005b60606002805461035d906111f5565b80601f0160208091040260200160405190810160405280929190818152602001828054610389906111f5565b80156103d65780601f106103ab576101008083540402835291602001916103d6565b820191906000526020600020905b8154815290600101906020018083116103b957829003601f168201915b5050505050905090565b80600660003373ffffffffffffffffffffffffffffffffffffffff1673ffffffffffffffffffffffffffffffffffffffff16815260200190815260200160002060008473ffffffffffffffffffffffffffffffffffffffff1673ffffffffffffffffffffffffffffffffffffffff168152602001908152602001600020819055508173ffffffffffffffffffffffffffffffffffffffff163373ffffffffffffffffffffffffffffffffffffffff167f8c5be1e5ebec7d5bd14f71427d1e84f3dd0314c0f7b2291e5b200ac8c7c3b925836040516104be919061109c565b60405180910390a35050565b60008054905090565b6000600660008573ffffffffffffffffffffffffffffffffffffffff1673ffffffffffffffffffffffffffffffffffffffff16815260200190815260200160002060003373ffffffffffffffffffffffffffffffffffffffff1673ffffffffffffffffffffffffffffffffffffffff1681526020019081526020016000205490508273ffffffffffffffffffffffffffffffffffffffff168473ffffffffffffffffffffffffffffffffffffffff1614156105c3576040517f08c379a00000000000000000000000000000000000000000000000000000000081526004016105ba9061103c565b60405180910390fd5b818110610605576040517f08c379a00000000000000000000000000000000000000000000000000000000081526004016105fc9061107c565b60405180910390fd5b600560008573ffffffffffffffffffffffffffffffffffffffff1673ffffffffffffffffffffffffffffffffffffffff168152602001908152602001600020548211156106ca5781600560008673ffffffffffffffffffffffffffffffffffffffff1673ffffffffffffffffffffffffffffffffffffffff168152602001908152602001600020546040517fec0ae9cf0000000000000000000000000000000000000000000000000000000081526004016106c19291906110b7565b60405180910390fd5b81600560008673ffffffffffffffffffffffffffffffffffffffff1673ffffffffffffffffffffffffffffffffffffffff16815260200190815260200160002060008282546107199190611152565b9250508190555081600560008573ffffffffffffffffffffffffffffffffffffffff1673ffffffffffffffffffffffffffffffffffffffff168152602001908152602001600020600082825461076f91906110fc565b925050819055508273ffffffffffffffffffffffffffffffffffffffff168473ffffffffffffffffffffffffffffffffffffffff167fddf252ad1be2c89b69c2b068fc378daa952ba7f163c4a11628f55a4df523b3ef846040516107d3919061109c565b60405180910390a350505050565b60056020528060005260406000206000915090505481565b60045481565b60005481565b6006602052816000526040600020602052806000526040600020600091509150505481565b6000600560008373ffffffffffffffffffffffffffffffffffffffff1673ffffffffffffffffffffffffffffffffffffffff168152602001908152602001600020549050919050565b606060038054610882906111f5565b80601f01602080910402602001604051908101604052809291908181526020018280546108ae906111f5565b80156108fb5780601f106108d0576101008083540402835291602001916108fb565b820191906000526020600020905b8154815290600101906020018083116108de57829003601f168201915b5050505050905090565b8173ffffffffffffffffffffffffffffffffffffffff163373ffffffffffffffffffffffffffffffffffffffff161415610974576040517f08c379a000000000000000000000000000000000000000000000000000000000815260040161096b9061103c565b60405180910390fd5b600560003373ffffffffffffffffffffffffffffffffffffffff1673ffffffffffffffffffffffffffffffffffffffff16815260200190815260200160002054811115610a395780600560003373ffffffffffffffffffffffffffffffffffffffff1673ffffffffffffffffffffffffffffffffffffffff168152602001908152602001600020546040517fec0ae9cf000000000000000000000000000000000000000000000000000000008152600401610a309291906110b7565b60405180910390fd5b80600560003373ffffffffffffffffffffffffffffffffffffffff1673ffffffffffffffffffffffffffffffffffffffff1681526020019081526020016000206000828254610a889190611152565b9250508190555080600560008473ffffffffffffffffffffffffffffffffffffffff1673ffffffffffffffffffffffffffffffffffffffff1681526020019081526020016000206000828254610ade91906110fc565b925050819055508173ffffffffffffffffffffffffffffffffffffffff163373ffffffffffffffffffffffffffffffffffffffff167fddf252ad1be2c89b69c2b068fc378daa952ba7f163c4a11628f55a4df523b3ef83604051610b42919061109c565b60405180910390a35050565b60038054610b5b906111f5565b80601f0160208091040260200160405190810160405280929190818152602001828054610b87906111f5565b8015610bd45780601f10610ba957610100808354040283529160200191610bd4565b820191906000526020600020905b815481529060010190602001808311610bb757829003601f168201915b505050505081565b6000600160009054906101000a900473ffffffffffffffffffffffffffffffffffffffff16905090565b600160009054906101000a900473ffffffffffffffffffffffffffffffffffffffff1681565b60028054610c39906111f5565b80601f0160208091040260200160405190810160405280929190818152602001828054610c65906111f5565b8015610cb25780601f10610c8757610100808354040283529160200191610cb2565b820191906000526020600020905b815481529060010190602001808311610c9557829003601f168201915b505050505081565b6000600660008473ffffffffffffffffffffffffffffffffffffffff1673ffffffffffffffffffffffffffffffffffffffff16815260200190815260200160002060008373ffffffffffffffffffffffffffffffffffffffff1673ffffffffffffffffffffffffffffffffffffffff16815260200190815260200160002054905092915050565b600160009054906101000a900473ffffffffffffffffffffffffffffffffffffffff1673ffffffffffffffffffffffffffffffffffffffff163373ffffffffffffffffffffffffffffffffffffffff1614610dd1576040517f08c379a0000000000000000000000000000000000000000000000000000000008152600401610dc89061105c565b60405180910390fd5b80600160006101000a81548173ffffffffffffffffffffffffffffffffffffffff021916908373ffffffffffffffffffffffffffffffffffffffff16021790555050565b600081359050610e2481611388565b92915050565b600081359050610e398161139f565b92915050565b600060208284031215610e5557610e54611285565b5b6000610e6384828501610e15565b91505092915050565b60008060408385031215610e8357610e82611285565b5b6000610e9185828601610e15565b9250506020610ea285828601610e15565b9150509250929050565b600080600060608486031215610ec557610ec4611285565b5b6000610ed386828701610e15565b9350506020610ee486828701610e15565b9250506040610ef586828701610e2a565b9150509250925092565b60008060408385031215610f1657610f15611285565b5b6000610f2485828601610e15565b9250506020610f3585828601610e2a565b9150509250929050565b610f4881611186565b82525050565b6000610f59826110e0565b610f6381856110eb565b9350610f738185602086016111c2565b610f7c8161128a565b840191505092915050565b6000610f94602a836110eb565b9150610f9f8261129b565b604082019050919050565b6000610fb76026836110eb565b9150610fc2826112ea565b604082019050919050565b6000610fda6024836110eb565b9150610fe582611339565b604082019050919050565b610ff9816111b8565b82525050565b60006020820190506110146000830184610f3f565b92915050565b600060208201905081810360008301526110348184610f4e565b905092915050565b6000602082019050818103600083015261105581610f87565b9050919050565b6000602082019050818103600083015261107581610faa565b9050919050565b6000602082019050818103600083015261109581610fcd565b9050919050565b60006020820190506110b16000830184610ff0565b92915050565b60006040820190506110cc6000830185610ff0565b6110d96020830184610ff0565b9392505050565b600081519050919050565b600082825260208201905092915050565b6000611107826111b8565b9150611112836111b8565b9250827fffffffffffffffffffffffffffffffffffffffffffffffffffffffffffffffff0382111561114757611146611227565b5b828201905092915050565b600061115d826111b8565b9150611168836111b8565b92508282101561117b5761117a611227565b5b828203905092915050565b600061119182611198565b9050919050565b600073ffffffffffffffffffffffffffffffffffffffff82169050919050565b6000819050919050565b60005b838110156111e05780820151818401526020810190506111c5565b838111156111ef576000848401525b50505050565b6000600282049050600182168061120d57607f821691505b6020821081141561122157611220611256565b5b50919050565b7f4e487b7100000000000000000000000000000000000000000000000000000000600052601160045260246000fd5b7f4e487b7100000000000000000000000000000000000000000000000000000000600052602260045260246000fd5b600080fd5b6000601f19601f8301169050919050565b7f796f752063616e6e6f74207472616e7366657220746f6b656e7320746f20736160008201527f6d65206164647265737300000000000000000000000000000000000000000000602082015250565b7f796f7520617265206e6f7420746865206f776e6572206f66207468697320636f60008201527f6e74726163740000000000000000000000000000000000000000000000000000602082015250565b7f436f6e7472616374206e6f7420616c6c6f77656420746f207370656e6420616d60008201527f6f756e7400000000000000000000000000000000000000000000000000000000602082015250565b61139181611186565b811461139c57600080fd5b50565b6113a8816111b8565b81146113b357600080fd5b5056fea2646970667358221220842bffd29397030c8d12f282fab3e4fea49b79cddecb3e2314d4b4873bd58bf864736f6c63430008070033",
					"opcodes": "PUSH1 0x80 PUSH1 0x40 MSTORE CALLVALUE DUP1 ISZERO PUSH3 0x11 JUMPI PUSH1 0x0 DUP1 REVERT JUMPDEST POP CALLER PUSH1 0x1 PUSH1 0x0 PUSH2 0x100 EXP DUP2 SLOAD DUP2 PUSH20 0xFFFFFFFFFFFFFFFFFFFFFFFFFFFFFFFFFFFFFFFF MUL NOT AND SWAP1 DUP4 PUSH20 0xFFFFFFFFFFFFFFFFFFFFFFFFFFFFFFFFFFFFFFFF AND MUL OR SWAP1 SSTORE POP PUSH1 0x40 MLOAD DUP1 PUSH1 0x40 ADD PUSH1 0x40 MSTORE DUP1 PUSH1 0x8 DUP2 MSTORE PUSH1 0x20 ADD PUSH32 0x4E61706F6C697465000000000000000000000000000000000000000000000000 DUP2 MSTORE POP PUSH1 0x2 SWAP1 DUP1 MLOAD SWAP1 PUSH1 0x20 ADD SWAP1 PUSH3 0xA0 SWAP3 SWAP2 SWAP1 PUSH3 0x1FC JUMP JUMPDEST POP PUSH1 0x40 MLOAD DUP1 PUSH1 0x40 ADD PUSH1 0x40 MSTORE DUP1 PUSH1 0x3 DUP2 MSTORE PUSH1 0x20 ADD PUSH32 0x4E61700000000000000000000000000000000000000000000000000000000000 DUP2 MSTORE POP PUSH1 0x3 SWAP1 DUP1 MLOAD SWAP1 PUSH1 0x20 ADD SWAP1 PUSH3 0xEE SWAP3 SWAP2 SWAP1 PUSH3 0x1FC JUMP JUMPDEST POP PUSH3 0x104 PUSH4 0x3B9ACA00 PUSH3 0x10A PUSH1 0x20 SHL PUSH1 0x20 SHR JUMP JUMPDEST PUSH3 0x3A7 JUMP JUMPDEST PUSH1 0x1 PUSH1 0x0 SWAP1 SLOAD SWAP1 PUSH2 0x100 EXP SWAP1 DIV PUSH20 0xFFFFFFFFFFFFFFFFFFFFFFFFFFFFFFFFFFFFFFFF AND PUSH20 0xFFFFFFFFFFFFFFFFFFFFFFFFFFFFFFFFFFFFFFFF AND CALLER PUSH20 0xFFFFFFFFFFFFFFFFFFFFFFFFFFFFFFFFFFFFFFFF AND EQ PUSH3 0x165 JUMPI PUSH1 0x0 DUP1 REVERT JUMPDEST DUP1 PUSH1 0x5 PUSH1 0x0 PUSH1 0x1 PUSH1 0x0 SWAP1 SLOAD SWAP1 PUSH2 0x100 EXP SWAP1 DIV PUSH20 0xFFFFFFFFFFFFFFFFFFFFFFFFFFFFFFFFFFFFFFFF AND PUSH20 0xFFFFFFFFFFFFFFFFFFFFFFFFFFFFFFFFFFFFFFFF AND PUSH20 0xFFFFFFFFFFFFFFFFFFFFFFFFFFFFFFFFFFFFFFFF AND DUP2 MSTORE PUSH1 0x20 ADD SWAP1 DUP2 MSTORE PUSH1 0x20 ADD PUSH1 0x0 KECCAK256 PUSH1 0x0 DUP3 DUP3 SLOAD PUSH3 0x1D8 SWAP2 SWAP1 PUSH3 0x2AC JUMP JUMPDEST SWAP3 POP POP DUP2 SWAP1 SSTORE POP DUP1 PUSH1 0x0 DUP1 DUP3 DUP3 SLOAD PUSH3 0x1F2 SWAP2 SWAP1 PUSH3 0x2AC JUMP JUMPDEST SWAP3 POP POP DUP2 SWAP1 SSTORE POP POP JUMP JUMPDEST DUP3 DUP1 SLOAD PUSH3 0x20A SWAP1 PUSH3 0x313 JUMP JUMPDEST SWAP1 PUSH1 0x0 MSTORE PUSH1 0x20 PUSH1 0x0 KECCAK256 SWAP1 PUSH1 0x1F ADD PUSH1 0x20 SWAP1 DIV DUP2 ADD SWAP3 DUP3 PUSH3 0x22E JUMPI PUSH1 0x0 DUP6 SSTORE PUSH3 0x27A JUMP JUMPDEST DUP3 PUSH1 0x1F LT PUSH3 0x249 JUMPI DUP1 MLOAD PUSH1 0xFF NOT AND DUP4 DUP1 ADD OR DUP6 SSTORE PUSH3 0x27A JUMP JUMPDEST DUP3 DUP1 ADD PUSH1 0x1 ADD DUP6 SSTORE DUP3 ISZERO PUSH3 0x27A JUMPI SWAP2 DUP3 ADD JUMPDEST DUP3 DUP2 GT ISZERO PUSH3 0x279 JUMPI DUP3 MLOAD DUP3 SSTORE SWAP2 PUSH1 0x20 ADD SWAP2 SWAP1 PUSH1 0x1 ADD SWAP1 PUSH3 0x25C JUMP JUMPDEST JUMPDEST POP SWAP1 POP PUSH3 0x289 SWAP2 SWAP1 PUSH3 0x28D JUMP JUMPDEST POP SWAP1 JUMP JUMPDEST JUMPDEST DUP1 DUP3 GT ISZERO PUSH3 0x2A8 JUMPI PUSH1 0x0 DUP2 PUSH1 0x0 SWAP1 SSTORE POP PUSH1 0x1 ADD PUSH3 0x28E JUMP JUMPDEST POP SWAP1 JUMP JUMPDEST PUSH1 0x0 PUSH3 0x2B9 DUP3 PUSH3 0x309 JUMP JUMPDEST SWAP2 POP PUSH3 0x2C6 DUP4 PUSH3 0x309 JUMP JUMPDEST SWAP3 POP DUP3 PUSH32 0xFFFFFFFFFFFFFFFFFFFFFFFFFFFFFFFFFFFFFFFFFFFFFFFFFFFFFFFFFFFFFFFF SUB DUP3 GT ISZERO PUSH3 0x2FE JUMPI PUSH3 0x2FD PUSH3 0x349 JUMP JUMPDEST JUMPDEST DUP3 DUP3 ADD SWAP1 POP SWAP3 SWAP2 POP POP JUMP JUMPDEST PUSH1 0x0 DUP2 SWAP1 POP SWAP2 SWAP1 POP JUMP JUMPDEST PUSH1 0x0 PUSH1 0x2 DUP3 DIV SWAP1 POP PUSH1 0x1 DUP3 AND DUP1 PUSH3 0x32C JUMPI PUSH1 0x7F DUP3 AND SWAP2 POP JUMPDEST PUSH1 0x20 DUP3 LT DUP2 EQ ISZERO PUSH3 0x343 JUMPI PUSH3 0x342 PUSH3 0x378 JUMP JUMPDEST JUMPDEST POP SWAP2 SWAP1 POP JUMP JUMPDEST PUSH32 0x4E487B7100000000000000000000000000000000000000000000000000000000 PUSH1 0x0 MSTORE PUSH1 0x11 PUSH1 0x4 MSTORE PUSH1 0x24 PUSH1 0x0 REVERT JUMPDEST PUSH32 0x4E487B7100000000000000000000000000000000000000000000000000000000 PUSH1 0x0 MSTORE PUSH1 0x22 PUSH1 0x4 MSTORE PUSH1 0x24 PUSH1 0x0 REVERT JUMPDEST PUSH2 0x13EC DUP1 PUSH3 0x3B7 PUSH1 0x0 CODECOPY PUSH1 0x0 RETURN INVALID PUSH1 0x80 PUSH1 0x40 MSTORE CALLVALUE DUP1 ISZERO PUSH2 0x10 JUMPI PUSH1 0x0 DUP1 REVERT JUMPDEST POP PUSH1 0x4 CALLDATASIZE LT PUSH2 0x10B JUMPI PUSH1 0x0 CALLDATALOAD PUSH1 0xE0 SHR DUP1 PUSH4 0x70A08231 GT PUSH2 0xA2 JUMPI DUP1 PUSH4 0xB4A99A4E GT PUSH2 0x71 JUMPI DUP1 PUSH4 0xB4A99A4E EQ PUSH2 0x2A8 JUMPI DUP1 PUSH4 0xCE606EE0 EQ PUSH2 0x2C6 JUMPI DUP1 PUSH4 0xD28D8852 EQ PUSH2 0x2E4 JUMPI DUP1 PUSH4 0xDD62ED3E EQ PUSH2 0x302 JUMPI DUP1 PUSH4 0xF2FDE38B EQ PUSH2 0x332 JUMPI PUSH2 0x10B JUMP JUMPDEST DUP1 PUSH4 0x70A08231 EQ PUSH2 0x220 JUMPI DUP1 PUSH4 0x95D89B41 EQ PUSH2 0x250 JUMPI DUP1 PUSH4 0xA9059CBB EQ PUSH2 0x26E JUMPI DUP1 PUSH4 0xB09F1266 EQ PUSH2 0x28A JUMPI PUSH2 0x10B JUMP JUMPDEST DUP1 PUSH4 0x27E235E3 GT PUSH2 0xDE JUMPI DUP1 PUSH4 0x27E235E3 EQ PUSH2 0x184 JUMPI DUP1 PUSH4 0x313CE567 EQ PUSH2 0x1B4 JUMPI DUP1 PUSH4 0x3EAAF86B EQ PUSH2 0x1D2 JUMPI DUP1 PUSH4 0x5C658165 EQ PUSH2 0x1F0 JUMPI PUSH2 0x10B JUMP JUMPDEST DUP1 PUSH4 0x6FDDE03 EQ PUSH2 0x110 JUMPI DUP1 PUSH4 0x95EA7B3 EQ PUSH2 0x12E JUMPI DUP1 PUSH4 0x18160DDD EQ PUSH2 0x14A JUMPI DUP1 PUSH4 0x23B872DD EQ PUSH2 0x168 JUMPI JUMPDEST PUSH1 0x0 DUP1 REVERT JUMPDEST PUSH2 0x118 PUSH2 0x34E JUMP JUMPDEST PUSH1 0x40 MLOAD PUSH2 0x125 SWAP2 SWAP1 PUSH2 0x101A JUMP JUMPDEST PUSH1 0x40 MLOAD DUP1 SWAP2 SUB SWAP1 RETURN JUMPDEST PUSH2 0x148 PUSH1 0x4 DUP1 CALLDATASIZE SUB DUP2 ADD SWAP1 PUSH2 0x143 SWAP2 SWAP1 PUSH2 0xEFF JUMP JUMPDEST PUSH2 0x3E0 JUMP JUMPDEST STOP JUMPDEST PUSH2 0x152 PUSH2 0x4CA JUMP JUMPDEST PUSH1 0x40 MLOAD PUSH2 0x15F SWAP2 SWAP1 PUSH2 0x109C JUMP JUMPDEST PUSH1 0x40 MLOAD DUP1 SWAP2 SUB SWAP1 RETURN JUMPDEST PUSH2 0x182 PUSH1 0x4 DUP1 CALLDATASIZE SUB DUP2 ADD SWAP1 PUSH2 0x17D SWAP2 SWAP1 PUSH2 0xEAC JUMP JUMPDEST PUSH2 0x4D3 JUMP JUMPDEST STOP JUMPDEST PUSH2 0x19E PUSH1 0x4 DUP1 CALLDATASIZE SUB DUP2 ADD SWAP1 PUSH2 0x199 SWAP2 SWAP1 PUSH2 0xE3F JUMP JUMPDEST PUSH2 0x7E1 JUMP JUMPDEST PUSH1 0x40 MLOAD PUSH2 0x1AB SWAP2 SWAP1 PUSH2 0x109C JUMP JUMPDEST PUSH1 0x40 MLOAD DUP1 SWAP2 SUB SWAP1 RETURN JUMPDEST PUSH2 0x1BC PUSH2 0x7F9 JUMP JUMPDEST PUSH1 0x40 MLOAD PUSH2 0x1C9 SWAP2 SWAP1 PUSH2 0x109C JUMP JUMPDEST PUSH1 0x40 MLOAD DUP1 SWAP2 SUB SWAP1 RETURN JUMPDEST PUSH2 0x1DA PUSH2 0x7FF JUMP JUMPDEST PUSH1 0x40 MLOAD PUSH2 0x1E7 SWAP2 SWAP1 PUSH2 0x109C JUMP JUMPDEST PUSH1 0x40 MLOAD DUP1 SWAP2 SUB SWAP1 RETURN JUMPDEST PUSH2 0x20A PUSH1 0x4 DUP1 CALLDATASIZE SUB DUP2 ADD SWAP1 PUSH2 0x205 SWAP2 SWAP1 PUSH2 0xE6C JUMP JUMPDEST PUSH2 0x805 JUMP JUMPDEST PUSH1 0x40 MLOAD PUSH2 0x217 SWAP2 SWAP1 PUSH2 0x109C JUMP JUMPDEST PUSH1 0x40 MLOAD DUP1 SWAP2 SUB SWAP1 RETURN JUMPDEST PUSH2 0x23A PUSH1 0x4 DUP1 CALLDATASIZE SUB DUP2 ADD SWAP1 PUSH2 0x235 SWAP2 SWAP1 PUSH2 0xE3F JUMP JUMPDEST PUSH2 0x82A JUMP JUMPDEST PUSH1 0x40 MLOAD PUSH2 0x247 SWAP2 SWAP1 PUSH2 0x109C JUMP JUMPDEST PUSH1 0x40 MLOAD DUP1 SWAP2 SUB SWAP1 RETURN JUMPDEST PUSH2 0x258 PUSH2 0x873 JUMP JUMPDEST PUSH1 0x40 MLOAD PUSH2 0x265 SWAP2 SWAP1 PUSH2 0x101A JUMP JUMPDEST PUSH1 0x40 MLOAD DUP1 SWAP2 SUB SWAP1 RETURN JUMPDEST PUSH2 0x288 PUSH1 0x4 DUP1 CALLDATASIZE SUB DUP2 ADD SWAP1 PUSH2 0x283 SWAP2 SWAP1 PUSH2 0xEFF JUMP JUMPDEST PUSH2 0x905 JUMP JUMPDEST STOP JUMPDEST PUSH2 0x292 PUSH2 0xB4E JUMP JUMPDEST PUSH1 0x40 MLOAD PUSH2 0x29F SWAP2 SWAP1 PUSH2 0x101A JUMP JUMPDEST PUSH1 0x40 MLOAD DUP1 SWAP2 SUB SWAP1 RETURN JUMPDEST PUSH2 0x2B0 PUSH2 0xBDC JUMP JUMPDEST PUSH1 0x40 MLOAD PUSH2 0x2BD SWAP2 SWAP1 PUSH2 0xFFF JUMP JUMPDEST PUSH1 0x40 MLOAD DUP1 SWAP2 SUB SWAP1 RETURN JUMPDEST PUSH2 0x2CE PUSH2 0xC06 JUMP JUMPDEST PUSH1 0x40 MLOAD PUSH2 0x2DB SWAP2 SWAP1 PUSH2 0xFFF JUMP JUMPDEST PUSH1 0x40 MLOAD DUP1 SWAP2 SUB SWAP1 RETURN JUMPDEST PUSH2 0x2EC PUSH2 0xC2C JUMP JUMPDEST PUSH1 0x40 MLOAD PUSH2 0x2F9 SWAP2 SWAP1 PUSH2 0x101A JUMP JUMPDEST PUSH1 0x40 MLOAD DUP1 SWAP2 SUB SWAP1 RETURN JUMPDEST PUSH2 0x31C PUSH1 0x4 DUP1 CALLDATASIZE SUB DUP2 ADD SWAP1 PUSH2 0x317 SWAP2 SWAP1 PUSH2 0xE6C JUMP JUMPDEST PUSH2 0xCBA JUMP JUMPDEST PUSH1 0x40 MLOAD PUSH2 0x329 SWAP2 SWAP1 PUSH2 0x109C JUMP JUMPDEST PUSH1 0x40 MLOAD DUP1 SWAP2 SUB SWAP1 RETURN JUMPDEST PUSH2 0x34C PUSH1 0x4 DUP1 CALLDATASIZE SUB DUP2 ADD SWAP1 PUSH2 0x347 SWAP2 SWAP1 PUSH2 0xE3F JUMP JUMPDEST PUSH2 0xD41 JUMP JUMPDEST STOP JUMPDEST PUSH1 0x60 PUSH1 0x2 DUP1 SLOAD PUSH2 0x35D SWAP1 PUSH2 0x11F5 JUMP JUMPDEST DUP1 PUSH1 0x1F ADD PUSH1 0x20 DUP1 SWAP2 DIV MUL PUSH1 0x20 ADD PUSH1 0x40 MLOAD SWAP1 DUP2 ADD PUSH1 0x40 MSTORE DUP1 SWAP3 SWAP2 SWAP1 DUP2 DUP2 MSTORE PUSH1 0x20 ADD DUP3 DUP1 SLOAD PUSH2 0x389 SWAP1 PUSH2 0x11F5 JUMP JUMPDEST DUP1 ISZERO PUSH2 0x3D6 JUMPI DUP1 PUSH1 0x1F LT PUSH2 0x3AB JUMPI PUSH2 0x100 DUP1 DUP4 SLOAD DIV MUL DUP4 MSTORE SWAP2 PUSH1 0x20 ADD SWAP2 PUSH2 0x3D6 JUMP JUMPDEST DUP3 ADD SWAP2 SWAP1 PUSH1 0x0 MSTORE PUSH1 0x20 PUSH1 0x0 KECCAK256 SWAP1 JUMPDEST DUP2 SLOAD DUP2 MSTORE SWAP1 PUSH1 0x1 ADD SWAP1 PUSH1 0x20 ADD DUP1 DUP4 GT PUSH2 0x3B9 JUMPI DUP3 SWAP1 SUB PUSH1 0x1F AND DUP3 ADD SWAP2 JUMPDEST POP POP POP POP POP SWAP1 POP SWAP1 JUMP JUMPDEST DUP1 PUSH1 0x6 PUSH1 0x0 CALLER PUSH20 0xFFFFFFFFFFFFFFFFFFFFFFFFFFFFFFFFFFFFFFFF AND PUSH20 0xFFFFFFFFFFFFFFFFFFFFFFFFFFFFFFFFFFFFFFFF AND DUP2 MSTORE PUSH1 0x20 ADD SWAP1 DUP2 MSTORE PUSH1 0x20 ADD PUSH1 0x0 KECCAK256 PUSH1 0x0 DUP5 PUSH20 0xFFFFFFFFFFFFFFFFFFFFFFFFFFFFFFFFFFFFFFFF AND PUSH20 0xFFFFFFFFFFFFFFFFFFFFFFFFFFFFFFFFFFFFFFFF AND DUP2 MSTORE PUSH1 0x20 ADD SWAP1 DUP2 MSTORE PUSH1 0x20 ADD PUSH1 0x0 KECCAK256 DUP2 SWAP1 SSTORE POP DUP2 PUSH20 0xFFFFFFFFFFFFFFFFFFFFFFFFFFFFFFFFFFFFFFFF AND CALLER PUSH20 0xFFFFFFFFFFFFFFFFFFFFFFFFFFFFFFFFFFFFFFFF AND PUSH32 0x8C5BE1E5EBEC7D5BD14F71427D1E84F3DD0314C0F7B2291E5B200AC8C7C3B925 DUP4 PUSH1 0x40 MLOAD PUSH2 0x4BE SWAP2 SWAP1 PUSH2 0x109C JUMP JUMPDEST PUSH1 0x40 MLOAD DUP1 SWAP2 SUB SWAP1 LOG3 POP POP JUMP JUMPDEST PUSH1 0x0 DUP1 SLOAD SWAP1 POP SWAP1 JUMP JUMPDEST PUSH1 0x0 PUSH1 0x6 PUSH1 0x0 DUP6 PUSH20 0xFFFFFFFFFFFFFFFFFFFFFFFFFFFFFFFFFFFFFFFF AND PUSH20 0xFFFFFFFFFFFFFFFFFFFFFFFFFFFFFFFFFFFFFFFF AND DUP2 MSTORE PUSH1 0x20 ADD SWAP1 DUP2 MSTORE PUSH1 0x20 ADD PUSH1 0x0 KECCAK256 PUSH1 0x0 CALLER PUSH20 0xFFFFFFFFFFFFFFFFFFFFFFFFFFFFFFFFFFFFFFFF AND PUSH20 0xFFFFFFFFFFFFFFFFFFFFFFFFFFFFFFFFFFFFFFFF AND DUP2 MSTORE PUSH1 0x20 ADD SWAP1 DUP2 MSTORE PUSH1 0x20 ADD PUSH1 0x0 KECCAK256 SLOAD SWAP1 POP DUP3 PUSH20 0xFFFFFFFFFFFFFFFFFFFFFFFFFFFFFFFFFFFFFFFF AND DUP5 PUSH20 0xFFFFFFFFFFFFFFFFFFFFFFFFFFFFFFFFFFFFFFFF AND EQ ISZERO PUSH2 0x5C3 JUMPI PUSH1 0x40 MLOAD PUSH32 0x8C379A000000000000000000000000000000000000000000000000000000000 DUP2 MSTORE PUSH1 0x4 ADD PUSH2 0x5BA SWAP1 PUSH2 0x103C JUMP JUMPDEST PUSH1 0x40 MLOAD DUP1 SWAP2 SUB SWAP1 REVERT JUMPDEST DUP2 DUP2 LT PUSH2 0x605 JUMPI PUSH1 0x40 MLOAD PUSH32 0x8C379A000000000000000000000000000000000000000000000000000000000 DUP2 MSTORE PUSH1 0x4 ADD PUSH2 0x5FC SWAP1 PUSH2 0x107C JUMP JUMPDEST PUSH1 0x40 MLOAD DUP1 SWAP2 SUB SWAP1 REVERT JUMPDEST PUSH1 0x5 PUSH1 0x0 DUP6 PUSH20 0xFFFFFFFFFFFFFFFFFFFFFFFFFFFFFFFFFFFFFFFF AND PUSH20 0xFFFFFFFFFFFFFFFFFFFFFFFFFFFFFFFFFFFFFFFF AND DUP2 MSTORE PUSH1 0x20 ADD SWAP1 DUP2 MSTORE PUSH1 0x20 ADD PUSH1 0x0 KECCAK256 SLOAD DUP3 GT ISZERO PUSH2 0x6CA JUMPI DUP2 PUSH1 0x5 PUSH1 0x0 DUP7 PUSH20 0xFFFFFFFFFFFFFFFFFFFFFFFFFFFFFFFFFFFFFFFF AND PUSH20 0xFFFFFFFFFFFFFFFFFFFFFFFFFFFFFFFFFFFFFFFF AND DUP2 MSTORE PUSH1 0x20 ADD SWAP1 DUP2 MSTORE PUSH1 0x20 ADD PUSH1 0x0 KECCAK256 SLOAD PUSH1 0x40 MLOAD PUSH32 0xEC0AE9CF00000000000000000000000000000000000000000000000000000000 DUP2 MSTORE PUSH1 0x4 ADD PUSH2 0x6C1 SWAP3 SWAP2 SWAP1 PUSH2 0x10B7 JUMP JUMPDEST PUSH1 0x40 MLOAD DUP1 SWAP2 SUB SWAP1 REVERT JUMPDEST DUP2 PUSH1 0x5 PUSH1 0x0 DUP7 PUSH20 0xFFFFFFFFFFFFFFFFFFFFFFFFFFFFFFFFFFFFFFFF AND PUSH20 0xFFFFFFFFFFFFFFFFFFFFFFFFFFFFFFFFFFFFFFFF AND DUP2 MSTORE PUSH1 0x20 ADD SWAP1 DUP2 MSTORE PUSH1 0x20 ADD PUSH1 0x0 KECCAK256 PUSH1 0x0 DUP3 DUP3 SLOAD PUSH2 0x719 SWAP2 SWAP1 PUSH2 0x1152 JUMP JUMPDEST SWAP3 POP POP DUP2 SWAP1 SSTORE POP DUP2 PUSH1 0x5 PUSH1 0x0 DUP6 PUSH20 0xFFFFFFFFFFFFFFFFFFFFFFFFFFFFFFFFFFFFFFFF AND PUSH20 0xFFFFFFFFFFFFFFFFFFFFFFFFFFFFFFFFFFFFFFFF AND DUP2 MSTORE PUSH1 0x20 ADD SWAP1 DUP2 MSTORE PUSH1 0x20 ADD PUSH1 0x0 KECCAK256 PUSH1 0x0 DUP3 DUP3 SLOAD PUSH2 0x76F SWAP2 SWAP1 PUSH2 0x10FC JUMP JUMPDEST SWAP3 POP POP DUP2 SWAP1 SSTORE POP DUP3 PUSH20 0xFFFFFFFFFFFFFFFFFFFFFFFFFFFFFFFFFFFFFFFF AND DUP5 PUSH20 0xFFFFFFFFFFFFFFFFFFFFFFFFFFFFFFFFFFFFFFFF AND PUSH32 0xDDF252AD1BE2C89B69C2B068FC378DAA952BA7F163C4A11628F55A4DF523B3EF DUP5 PUSH1 0x40 MLOAD PUSH2 0x7D3 SWAP2 SWAP1 PUSH2 0x109C JUMP JUMPDEST PUSH1 0x40 MLOAD DUP1 SWAP2 SUB SWAP1 LOG3 POP POP POP POP JUMP JUMPDEST PUSH1 0x5 PUSH1 0x20 MSTORE DUP1 PUSH1 0x0 MSTORE PUSH1 0x40 PUSH1 0x0 KECCAK256 PUSH1 0x0 SWAP2 POP SWAP1 POP SLOAD DUP2 JUMP JUMPDEST PUSH1 0x4 SLOAD DUP2 JUMP JUMPDEST PUSH1 0x0 SLOAD DUP2 JUMP JUMPDEST PUSH1 0x6 PUSH1 0x20 MSTORE DUP2 PUSH1 0x0 MSTORE PUSH1 0x40 PUSH1 0x0 KECCAK256 PUSH1 0x20 MSTORE DUP1 PUSH1 0x0 MSTORE PUSH1 0x40 PUSH1 0x0 KECCAK256 PUSH1 0x0 SWAP2 POP SWAP2 POP POP SLOAD DUP2 JUMP JUMPDEST PUSH1 0x0 PUSH1 0x5 PUSH1 0x0 DUP4 PUSH20 0xFFFFFFFFFFFFFFFFFFFFFFFFFFFFFFFFFFFFFFFF AND PUSH20 0xFFFFFFFFFFFFFFFFFFFFFFFFFFFFFFFFFFFFFFFF AND DUP2 MSTORE PUSH1 0x20 ADD SWAP1 DUP2 MSTORE PUSH1 0x20 ADD PUSH1 0x0 KECCAK256 SLOAD SWAP1 POP SWAP2 SWAP1 POP JUMP JUMPDEST PUSH1 0x60 PUSH1 0x3 DUP1 SLOAD PUSH2 0x882 SWAP1 PUSH2 0x11F5 JUMP JUMPDEST DUP1 PUSH1 0x1F ADD PUSH1 0x20 DUP1 SWAP2 DIV MUL PUSH1 0x20 ADD PUSH1 0x40 MLOAD SWAP1 DUP2 ADD PUSH1 0x40 MSTORE DUP1 SWAP3 SWAP2 SWAP1 DUP2 DUP2 MSTORE PUSH1 0x20 ADD DUP3 DUP1 SLOAD PUSH2 0x8AE SWAP1 PUSH2 0x11F5 JUMP JUMPDEST DUP1 ISZERO PUSH2 0x8FB JUMPI DUP1 PUSH1 0x1F LT PUSH2 0x8D0 JUMPI PUSH2 0x100 DUP1 DUP4 SLOAD DIV MUL DUP4 MSTORE SWAP2 PUSH1 0x20 ADD SWAP2 PUSH2 0x8FB JUMP JUMPDEST DUP3 ADD SWAP2 SWAP1 PUSH1 0x0 MSTORE PUSH1 0x20 PUSH1 0x0 KECCAK256 SWAP1 JUMPDEST DUP2 SLOAD DUP2 MSTORE SWAP1 PUSH1 0x1 ADD SWAP1 PUSH1 0x20 ADD DUP1 DUP4 GT PUSH2 0x8DE JUMPI DUP3 SWAP1 SUB PUSH1 0x1F AND DUP3 ADD SWAP2 JUMPDEST POP POP POP POP POP SWAP1 POP SWAP1 JUMP JUMPDEST DUP2 PUSH20 0xFFFFFFFFFFFFFFFFFFFFFFFFFFFFFFFFFFFFFFFF AND CALLER PUSH20 0xFFFFFFFFFFFFFFFFFFFFFFFFFFFFFFFFFFFFFFFF AND EQ ISZERO PUSH2 0x974 JUMPI PUSH1 0x40 MLOAD PUSH32 0x8C379A000000000000000000000000000000000000000000000000000000000 DUP2 MSTORE PUSH1 0x4 ADD PUSH2 0x96B SWAP1 PUSH2 0x103C JUMP JUMPDEST PUSH1 0x40 MLOAD DUP1 SWAP2 SUB SWAP1 REVERT JUMPDEST PUSH1 0x5 PUSH1 0x0 CALLER PUSH20 0xFFFFFFFFFFFFFFFFFFFFFFFFFFFFFFFFFFFFFFFF AND PUSH20 0xFFFFFFFFFFFFFFFFFFFFFFFFFFFFFFFFFFFFFFFF AND DUP2 MSTORE PUSH1 0x20 ADD SWAP1 DUP2 MSTORE PUSH1 0x20 ADD PUSH1 0x0 KECCAK256 SLOAD DUP2 GT ISZERO PUSH2 0xA39 JUMPI DUP1 PUSH1 0x5 PUSH1 0x0 CALLER PUSH20 0xFFFFFFFFFFFFFFFFFFFFFFFFFFFFFFFFFFFFFFFF AND PUSH20 0xFFFFFFFFFFFFFFFFFFFFFFFFFFFFFFFFFFFFFFFF AND DUP2 MSTORE PUSH1 0x20 ADD SWAP1 DUP2 MSTORE PUSH1 0x20 ADD PUSH1 0x0 KECCAK256 SLOAD PUSH1 0x40 MLOAD PUSH32 0xEC0AE9CF00000000000000000000000000000000000000000000000000000000 DUP2 MSTORE PUSH1 0x4 ADD PUSH2 0xA30 SWAP3 SWAP2 SWAP1 PUSH2 0x10B7 JUMP JUMPDEST PUSH1 0x40 MLOAD DUP1 SWAP2 SUB SWAP1 REVERT JUMPDEST DUP1 PUSH1 0x5 PUSH1 0x0 CALLER PUSH20 0xFFFFFFFFFFFFFFFFFFFFFFFFFFFFFFFFFFFFFFFF AND PUSH20 0xFFFFFFFFFFFFFFFFFFFFFFFFFFFFFFFFFFFFFFFF AND DUP2 MSTORE PUSH1 0x20 ADD SWAP1 DUP2 MSTORE PUSH1 0x20 ADD PUSH1 0x0 KECCAK256 PUSH1 0x0 DUP3 DUP3 SLOAD PUSH2 0xA88 SWAP2 SWAP1 PUSH2 0x1152 JUMP JUMPDEST SWAP3 POP POP DUP2 SWAP1 SSTORE POP DUP1 PUSH1 0x5 PUSH1 0x0 DUP5 PUSH20 0xFFFFFFFFFFFFFFFFFFFFFFFFFFFFFFFFFFFFFFFF AND PUSH20 0xFFFFFFFFFFFFFFFFFFFFFFFFFFFFFFFFFFFFFFFF AND DUP2 MSTORE PUSH1 0x20 ADD SWAP1 DUP2 MSTORE PUSH1 0x20 ADD PUSH1 0x0 KECCAK256 PUSH1 0x0 DUP3 DUP3 SLOAD PUSH2 0xADE SWAP2 SWAP1 PUSH2 0x10FC JUMP JUMPDEST SWAP3 POP POP DUP2 SWAP1 SSTORE POP DUP2 PUSH20 0xFFFFFFFFFFFFFFFFFFFFFFFFFFFFFFFFFFFFFFFF AND CALLER PUSH20 0xFFFFFFFFFFFFFFFFFFFFFFFFFFFFFFFFFFFFFFFF AND PUSH32 0xDDF252AD1BE2C89B69C2B068FC378DAA952BA7F163C4A11628F55A4DF523B3EF DUP4 PUSH1 0x40 MLOAD PUSH2 0xB42 SWAP2 SWAP1 PUSH2 0x109C JUMP JUMPDEST PUSH1 0x40 MLOAD DUP1 SWAP2 SUB SWAP1 LOG3 POP POP JUMP JUMPDEST PUSH1 0x3 DUP1 SLOAD PUSH2 0xB5B SWAP1 PUSH2 0x11F5 JUMP JUMPDEST DUP1 PUSH1 0x1F ADD PUSH1 0x20 DUP1 SWAP2 DIV MUL PUSH1 0x20 ADD PUSH1 0x40 MLOAD SWAP1 DUP2 ADD PUSH1 0x40 MSTORE DUP1 SWAP3 SWAP2 SWAP1 DUP2 DUP2 MSTORE PUSH1 0x20 ADD DUP3 DUP1 SLOAD PUSH2 0xB87 SWAP1 PUSH2 0x11F5 JUMP JUMPDEST DUP1 ISZERO PUSH2 0xBD4 JUMPI DUP1 PUSH1 0x1F LT PUSH2 0xBA9 JUMPI PUSH2 0x100 DUP1 DUP4 SLOAD DIV MUL DUP4 MSTORE SWAP2 PUSH1 0x20 ADD SWAP2 PUSH2 0xBD4 JUMP JUMPDEST DUP3 ADD SWAP2 SWAP1 PUSH1 0x0 MSTORE PUSH1 0x20 PUSH1 0x0 KECCAK256 SWAP1 JUMPDEST DUP2 SLOAD DUP2 MSTORE SWAP1 PUSH1 0x1 ADD SWAP1 PUSH1 0x20 ADD DUP1 DUP4 GT PUSH2 0xBB7 JUMPI DUP3 SWAP1 SUB PUSH1 0x1F AND DUP3 ADD SWAP2 JUMPDEST POP POP POP POP POP DUP2 JUMP JUMPDEST PUSH1 0x0 PUSH1 0x1 PUSH1 0x0 SWAP1 SLOAD SWAP1 PUSH2 0x100 EXP SWAP1 DIV PUSH20 0xFFFFFFFFFFFFFFFFFFFFFFFFFFFFFFFFFFFFFFFF AND SWAP1 POP SWAP1 JUMP JUMPDEST PUSH1 0x1 PUSH1 0x0 SWAP1 SLOAD SWAP1 PUSH2 0x100 EXP SWAP1 DIV PUSH20 0xFFFFFFFFFFFFFFFFFFFFFFFFFFFFFFFFFFFFFFFF AND DUP2 JUMP JUMPDEST PUSH1 0x2 DUP1 SLOAD PUSH2 0xC39 SWAP1 PUSH2 0x11F5 JUMP JUMPDEST DUP1 PUSH1 0x1F ADD PUSH1 0x20 DUP1 SWAP2 DIV MUL PUSH1 0x20 ADD PUSH1 0x40 MLOAD SWAP1 DUP2 ADD PUSH1 0x40 MSTORE DUP1 SWAP3 SWAP2 SWAP1 DUP2 DUP2 MSTORE PUSH1 0x20 ADD DUP3 DUP1 SLOAD PUSH2 0xC65 SWAP1 PUSH2 0x11F5 JUMP JUMPDEST DUP1 ISZERO PUSH2 0xCB2 JUMPI DUP1 PUSH1 0x1F LT PUSH2 0xC87 JUMPI PUSH2 0x100 DUP1 DUP4 SLOAD DIV MUL DUP4 MSTORE SWAP2 PUSH1 0x20 ADD SWAP2 PUSH2 0xCB2 JUMP JUMPDEST DUP3 ADD SWAP2 SWAP1 PUSH1 0x0 MSTORE PUSH1 0x20 PUSH1 0x0 KECCAK256 SWAP1 JUMPDEST DUP2 SLOAD DUP2 MSTORE SWAP1 PUSH1 0x1 ADD SWAP1 PUSH1 0x20 ADD DUP1 DUP4 GT PUSH2 0xC95 JUMPI DUP3 SWAP1 SUB PUSH1 0x1F AND DUP3 ADD SWAP2 JUMPDEST POP POP POP POP POP DUP2 JUMP JUMPDEST PUSH1 0x0 PUSH1 0x6 PUSH1 0x0 DUP5 PUSH20 0xFFFFFFFFFFFFFFFFFFFFFFFFFFFFFFFFFFFFFFFF AND PUSH20 0xFFFFFFFFFFFFFFFFFFFFFFFFFFFFFFFFFFFFFFFF AND DUP2 MSTORE PUSH1 0x20 ADD SWAP1 DUP2 MSTORE PUSH1 0x20 ADD PUSH1 0x0 KECCAK256 PUSH1 0x0 DUP4 PUSH20 0xFFFFFFFFFFFFFFFFFFFFFFFFFFFFFFFFFFFFFFFF AND PUSH20 0xFFFFFFFFFFFFFFFFFFFFFFFFFFFFFFFFFFFFFFFF AND DUP2 MSTORE PUSH1 0x20 ADD SWAP1 DUP2 MSTORE PUSH1 0x20 ADD PUSH1 0x0 KECCAK256 SLOAD SWAP1 POP SWAP3 SWAP2 POP POP JUMP JUMPDEST PUSH1 0x1 PUSH1 0x0 SWAP1 SLOAD SWAP1 PUSH2 0x100 EXP SWAP1 DIV PUSH20 0xFFFFFFFFFFFFFFFFFFFFFFFFFFFFFFFFFFFFFFFF AND PUSH20 0xFFFFFFFFFFFFFFFFFFFFFFFFFFFFFFFFFFFFFFFF AND CALLER PUSH20 0xFFFFFFFFFFFFFFFFFFFFFFFFFFFFFFFFFFFFFFFF AND EQ PUSH2 0xDD1 JUMPI PUSH1 0x40 MLOAD PUSH32 0x8C379A000000000000000000000000000000000000000000000000000000000 DUP2 MSTORE PUSH1 0x4 ADD PUSH2 0xDC8 SWAP1 PUSH2 0x105C JUMP JUMPDEST PUSH1 0x40 MLOAD DUP1 SWAP2 SUB SWAP1 REVERT JUMPDEST DUP1 PUSH1 0x1 PUSH1 0x0 PUSH2 0x100 EXP DUP2 SLOAD DUP2 PUSH20 0xFFFFFFFFFFFFFFFFFFFFFFFFFFFFFFFFFFFFFFFF MUL NOT AND SWAP1 DUP4 PUSH20 0xFFFFFFFFFFFFFFFFFFFFFFFFFFFFFFFFFFFFFFFF AND MUL OR SWAP1 SSTORE POP POP JUMP JUMPDEST PUSH1 0x0 DUP2 CALLDATALOAD SWAP1 POP PUSH2 0xE24 DUP2 PUSH2 0x1388 JUMP JUMPDEST SWAP3 SWAP2 POP POP JUMP JUMPDEST PUSH1 0x0 DUP2 CALLDATALOAD SWAP1 POP PUSH2 0xE39 DUP2 PUSH2 0x139F JUMP JUMPDEST SWAP3 SWAP2 POP POP JUMP JUMPDEST PUSH1 0x0 PUSH1 0x20 DUP3 DUP5 SUB SLT ISZERO PUSH2 0xE55 JUMPI PUSH2 0xE54 PUSH2 0x1285 JUMP JUMPDEST JUMPDEST PUSH1 0x0 PUSH2 0xE63 DUP5 DUP3 DUP6 ADD PUSH2 0xE15 JUMP JUMPDEST SWAP2 POP POP SWAP3 SWAP2 POP POP JUMP JUMPDEST PUSH1 0x0 DUP1 PUSH1 0x40 DUP4 DUP6 SUB SLT ISZERO PUSH2 0xE83 JUMPI PUSH2 0xE82 PUSH2 0x1285 JUMP JUMPDEST JUMPDEST PUSH1 0x0 PUSH2 0xE91 DUP6 DUP3 DUP7 ADD PUSH2 0xE15 JUMP JUMPDEST SWAP3 POP POP PUSH1 0x20 PUSH2 0xEA2 DUP6 DUP3 DUP7 ADD PUSH2 0xE15 JUMP JUMPDEST SWAP2 POP POP SWAP3 POP SWAP3 SWAP1 POP JUMP JUMPDEST PUSH1 0x0 DUP1 PUSH1 0x0 PUSH1 0x60 DUP5 DUP7 SUB SLT ISZERO PUSH2 0xEC5 JUMPI PUSH2 0xEC4 PUSH2 0x1285 JUMP JUMPDEST JUMPDEST PUSH1 0x0 PUSH2 0xED3 DUP7 DUP3 DUP8 ADD PUSH2 0xE15 JUMP JUMPDEST SWAP4 POP POP PUSH1 0x20 PUSH2 0xEE4 DUP7 DUP3 DUP8 ADD PUSH2 0xE15 JUMP JUMPDEST SWAP3 POP POP PUSH1 0x40 PUSH2 0xEF5 DUP7 DUP3 DUP8 ADD PUSH2 0xE2A JUMP JUMPDEST SWAP2 POP POP SWAP3 POP SWAP3 POP SWAP3 JUMP JUMPDEST PUSH1 0x0 DUP1 PUSH1 0x40 DUP4 DUP6 SUB SLT ISZERO PUSH2 0xF16 JUMPI PUSH2 0xF15 PUSH2 0x1285 JUMP JUMPDEST JUMPDEST PUSH1 0x0 PUSH2 0xF24 DUP6 DUP3 DUP7 ADD PUSH2 0xE15 JUMP JUMPDEST SWAP3 POP POP PUSH1 0x20 PUSH2 0xF35 DUP6 DUP3 DUP7 ADD PUSH2 0xE2A JUMP JUMPDEST SWAP2 POP POP SWAP3 POP SWAP3 SWAP1 POP JUMP JUMPDEST PUSH2 0xF48 DUP2 PUSH2 0x1186 JUMP JUMPDEST DUP3 MSTORE POP POP JUMP JUMPDEST PUSH1 0x0 PUSH2 0xF59 DUP3 PUSH2 0x10E0 JUMP JUMPDEST PUSH2 0xF63 DUP2 DUP6 PUSH2 0x10EB JUMP JUMPDEST SWAP4 POP PUSH2 0xF73 DUP2 DUP6 PUSH1 0x20 DUP7 ADD PUSH2 0x11C2 JUMP JUMPDEST PUSH2 0xF7C DUP2 PUSH2 0x128A JUMP JUMPDEST DUP5 ADD SWAP2 POP POP SWAP3 SWAP2 POP POP JUMP JUMPDEST PUSH1 0x0 PUSH2 0xF94 PUSH1 0x2A DUP4 PUSH2 0x10EB JUMP JUMPDEST SWAP2 POP PUSH2 0xF9F DUP3 PUSH2 0x129B JUMP JUMPDEST PUSH1 0x40 DUP3 ADD SWAP1 POP SWAP2 SWAP1 POP JUMP JUMPDEST PUSH1 0x0 PUSH2 0xFB7 PUSH1 0x26 DUP4 PUSH2 0x10EB JUMP JUMPDEST SWAP2 POP PUSH2 0xFC2 DUP3 PUSH2 0x12EA JUMP JUMPDEST PUSH1 0x40 DUP3 ADD SWAP1 POP SWAP2 SWAP1 POP JUMP JUMPDEST PUSH1 0x0 PUSH2 0xFDA PUSH1 0x24 DUP4 PUSH2 0x10EB JUMP JUMPDEST SWAP2 POP PUSH2 0xFE5 DUP3 PUSH2 0x1339 JUMP JUMPDEST PUSH1 0x40 DUP3 ADD SWAP1 POP SWAP2 SWAP1 POP JUMP JUMPDEST PUSH2 0xFF9 DUP2 PUSH2 0x11B8 JUMP JUMPDEST DUP3 MSTORE POP POP JUMP JUMPDEST PUSH1 0x0 PUSH1 0x20 DUP3 ADD SWAP1 POP PUSH2 0x1014 PUSH1 0x0 DUP4 ADD DUP5 PUSH2 0xF3F JUMP JUMPDEST SWAP3 SWAP2 POP POP JUMP JUMPDEST PUSH1 0x0 PUSH1 0x20 DUP3 ADD SWAP1 POP DUP2 DUP2 SUB PUSH1 0x0 DUP4 ADD MSTORE PUSH2 0x1034 DUP2 DUP5 PUSH2 0xF4E JUMP JUMPDEST SWAP1 POP SWAP3 SWAP2 POP POP JUMP JUMPDEST PUSH1 0x0 PUSH1 0x20 DUP3 ADD SWAP1 POP DUP2 DUP2 SUB PUSH1 0x0 DUP4 ADD MSTORE PUSH2 0x1055 DUP2 PUSH2 0xF87 JUMP JUMPDEST SWAP1 POP SWAP2 SWAP1 POP JUMP JUMPDEST PUSH1 0x0 PUSH1 0x20 DUP3 ADD SWAP1 POP DUP2 DUP2 SUB PUSH1 0x0 DUP4 ADD MSTORE PUSH2 0x1075 DUP2 PUSH2 0xFAA JUMP JUMPDEST SWAP1 POP SWAP2 SWAP1 POP JUMP JUMPDEST PUSH1 0x0 PUSH1 0x20 DUP3 ADD SWAP1 POP DUP2 DUP2 SUB PUSH1 0x0 DUP4 ADD MSTORE PUSH2 0x1095 DUP2 PUSH2 0xFCD JUMP JUMPDEST SWAP1 POP SWAP2 SWAP1 POP JUMP JUMPDEST PUSH1 0x0 PUSH1 0x20 DUP3 ADD SWAP1 POP PUSH2 0x10B1 PUSH1 0x0 DUP4 ADD DUP5 PUSH2 0xFF0 JUMP JUMPDEST SWAP3 SWAP2 POP POP JUMP JUMPDEST PUSH1 0x0 PUSH1 0x40 DUP3 ADD SWAP1 POP PUSH2 0x10CC PUSH1 0x0 DUP4 ADD DUP6 PUSH2 0xFF0 JUMP JUMPDEST PUSH2 0x10D9 PUSH1 0x20 DUP4 ADD DUP5 PUSH2 0xFF0 JUMP JUMPDEST SWAP4 SWAP3 POP POP POP JUMP JUMPDEST PUSH1 0x0 DUP2 MLOAD SWAP1 POP SWAP2 SWAP1 POP JUMP JUMPDEST PUSH1 0x0 DUP3 DUP3 MSTORE PUSH1 0x20 DUP3 ADD SWAP1 POP SWAP3 SWAP2 POP POP JUMP JUMPDEST PUSH1 0x0 PUSH2 0x1107 DUP3 PUSH2 0x11B8 JUMP JUMPDEST SWAP2 POP PUSH2 0x1112 DUP4 PUSH2 0x11B8 JUMP JUMPDEST SWAP3 POP DUP3 PUSH32 0xFFFFFFFFFFFFFFFFFFFFFFFFFFFFFFFFFFFFFFFFFFFFFFFFFFFFFFFFFFFFFFFF SUB DUP3 GT ISZERO PUSH2 0x1147 JUMPI PUSH2 0x1146 PUSH2 0x1227 JUMP JUMPDEST JUMPDEST DUP3 DUP3 ADD SWAP1 POP SWAP3 SWAP2 POP POP JUMP JUMPDEST PUSH1 0x0 PUSH2 0x115D DUP3 PUSH2 0x11B8 JUMP JUMPDEST SWAP2 POP PUSH2 0x1168 DUP4 PUSH2 0x11B8 JUMP JUMPDEST SWAP3 POP DUP3 DUP3 LT ISZERO PUSH2 0x117B JUMPI PUSH2 0x117A PUSH2 0x1227 JUMP JUMPDEST JUMPDEST DUP3 DUP3 SUB SWAP1 POP SWAP3 SWAP2 POP POP JUMP JUMPDEST PUSH1 0x0 PUSH2 0x1191 DUP3 PUSH2 0x1198 JUMP JUMPDEST SWAP1 POP SWAP2 SWAP1 POP JUMP JUMPDEST PUSH1 0x0 PUSH20 0xFFFFFFFFFFFFFFFFFFFFFFFFFFFFFFFFFFFFFFFF DUP3 AND SWAP1 POP SWAP2 SWAP1 POP JUMP JUMPDEST PUSH1 0x0 DUP2 SWAP1 POP SWAP2 SWAP1 POP JUMP JUMPDEST PUSH1 0x0 JUMPDEST DUP4 DUP2 LT ISZERO PUSH2 0x11E0 JUMPI DUP1 DUP3 ADD MLOAD DUP2 DUP5 ADD MSTORE PUSH1 0x20 DUP2 ADD SWAP1 POP PUSH2 0x11C5 JUMP JUMPDEST DUP4 DUP2 GT ISZERO PUSH2 0x11EF JUMPI PUSH1 0x0 DUP5 DUP5 ADD MSTORE JUMPDEST POP POP POP POP JUMP JUMPDEST PUSH1 0x0 PUSH1 0x2 DUP3 DIV SWAP1 POP PUSH1 0x1 DUP3 AND DUP1 PUSH2 0x120D JUMPI PUSH1 0x7F DUP3 AND SWAP2 POP JUMPDEST PUSH1 0x20 DUP3 LT DUP2 EQ ISZERO PUSH2 0x1221 JUMPI PUSH2 0x1220 PUSH2 0x1256 JUMP JUMPDEST JUMPDEST POP SWAP2 SWAP1 POP JUMP JUMPDEST PUSH32 0x4E487B7100000000000000000000000000000000000000000000000000000000 PUSH1 0x0 MSTORE PUSH1 0x11 PUSH1 0x4 MSTORE PUSH1 0x24 PUSH1 0x0 REVERT JUMPDEST PUSH32 0x4E487B7100000000000000000000000000000000000000000000000000000000 PUSH1 0x0 MSTORE PUSH1 0x22 PUSH1 0x4 MSTORE PUSH1 0x24 PUSH1 0x0 REVERT JUMPDEST PUSH1 0x0 DUP1 REVERT JUMPDEST PUSH1 0x0 PUSH1 0x1F NOT PUSH1 0x1F DUP4 ADD AND SWAP1 POP SWAP2 SWAP1 POP JUMP JUMPDEST PUSH32 0x796F752063616E6E6F74207472616E7366657220746F6B656E7320746F207361 PUSH1 0x0 DUP3 ADD MSTORE PUSH32 0x6D65206164647265737300000000000000000000000000000000000000000000 PUSH1 0x20 DUP3 ADD MSTORE POP JUMP JUMPDEST PUSH32 0x796F7520617265206E6F7420746865206F776E6572206F66207468697320636F PUSH1 0x0 DUP3 ADD MSTORE PUSH32 0x6E74726163740000000000000000000000000000000000000000000000000000 PUSH1 0x20 DUP3 ADD MSTORE POP JUMP JUMPDEST PUSH32 0x436F6E7472616374206E6F7420616C6C6F77656420746F207370656E6420616D PUSH1 0x0 DUP3 ADD MSTORE PUSH32 0x6F756E7400000000000000000000000000000000000000000000000000000000 PUSH1 0x20 DUP3 ADD MSTORE POP JUMP JUMPDEST PUSH2 0x1391 DUP2 PUSH2 0x1186 JUMP JUMPDEST DUP2 EQ PUSH2 0x139C JUMPI PUSH1 0x0 DUP1 REVERT JUMPDEST POP JUMP JUMPDEST PUSH2 0x13A8 DUP2 PUSH2 0x11B8 JUMP JUMPDEST DUP2 EQ PUSH2 0x13B3 JUMPI PUSH1 0x0 DUP1 REVERT JUMPDEST POP JUMP INVALID LOG2 PUSH5 0x6970667358 0x22 SLT KECCAK256 DUP5 0x2B SELFDESTRUCT 0xD2 SWAP4 SWAP8 SUB 0xC DUP14 SLT CALLCODE DUP3 STATICCALL 0xB3 0xE4 INVALID LOG4 SWAP12 PUSH26 0xCDDECB3E2314D4B4873BD58BF864736F6C634300080700330000 "
				},
				"gasEstimates": {
					"creation": {
						"codeDepositCost": "1020000",
						"executionCost": "infinite",
						"totalCost": "infinite"
					},
					"external": {
						"Owner()": "2544",
						"_name()": "infinite",
						"_symbol()": "infinite",
						"_totalSupply()": "2496",
						"allowance(address,address)": "infinite",
						"allowed(address,address)": "infinite",
						"approve(address,uint256)": "infinite",
						"balanceOf(address)": "2864",
						"balances(address)": "2837",
						"contractOwner()": "2558",
						"decimals()": "2474",
						"name()": "infinite",
						"symbol()": "infinite",
						"totalSupply()": "2505",
						"transfer(address,uint256)": "infinite",
						"transferFrom(address,address,uint256)": "infinite",
						"transferOwnership(address)": "27002"
					},
					"internal": {
						"mint(uint256)": "infinite"
					}
				},
				"methodIdentifiers": {
					"Owner()": "b4a99a4e",
					"_name()": "d28d8852",
					"_symbol()": "b09f1266",
					"_totalSupply()": "3eaaf86b",
					"allowance(address,address)": "dd62ed3e",
					"allowed(address,address)": "5c658165",
					"approve(address,uint256)": "095ea7b3",
					"balanceOf(address)": "70a08231",
					"balances(address)": "27e235e3",
					"contractOwner()": "ce606ee0",
					"decimals()": "313ce567",
					"name()": "06fdde03",
					"symbol()": "95d89b41",
					"totalSupply()": "18160ddd",
					"transfer(address,uint256)": "a9059cbb",
					"transferFrom(address,address,uint256)": "23b872dd",
					"transferOwnership(address)": "f2fde38b"
				}
			},
			"storageLayout": {
				"storage": [
					{
						"astId": 89,
						"contract": "gitpopu/solidity/Napolite/contracts/token.sol:token",
						"label": "_totalSupply",
						"offset": 0,
						"slot": "0",
						"type": "t_uint256"
					},
					{
						"astId": 91,
						"contract": "gitpopu/solidity/Napolite/contracts/token.sol:token",
						"label": "contractOwner",
						"offset": 0,
						"slot": "1",
						"type": "t_address"
					},
					{
						"astId": 93,
						"contract": "gitpopu/solidity/Napolite/contracts/token.sol:token",
						"label": "_name",
						"offset": 0,
						"slot": "2",
						"type": "t_string_storage"
					},
					{
						"astId": 95,
						"contract": "gitpopu/solidity/Napolite/contracts/token.sol:token",
						"label": "_symbol",
						"offset": 0,
						"slot": "3",
						"type": "t_string_storage"
					},
					{
						"astId": 97,
						"contract": "gitpopu/solidity/Napolite/contracts/token.sol:token",
						"label": "decimals",
						"offset": 0,
						"slot": "4",
						"type": "t_uint256"
					},
					{
						"astId": 101,
						"contract": "gitpopu/solidity/Napolite/contracts/token.sol:token",
						"label": "balances",
						"offset": 0,
						"slot": "5",
						"type": "t_mapping(t_address,t_uint256)"
					},
					{
						"astId": 107,
						"contract": "gitpopu/solidity/Napolite/contracts/token.sol:token",
						"label": "allowed",
						"offset": 0,
						"slot": "6",
						"type": "t_mapping(t_address,t_mapping(t_address,t_uint256))"
					}
				],
				"types": {
					"t_address": {
						"encoding": "inplace",
						"label": "address",
						"numberOfBytes": "20"
					},
					"t_mapping(t_address,t_mapping(t_address,t_uint256))": {
						"encoding": "mapping",
						"key": "t_address",
						"label": "mapping(address => mapping(address => uint256))",
						"numberOfBytes": "32",
						"value": "t_mapping(t_address,t_uint256)"
					},
					"t_mapping(t_address,t_uint256)": {
						"encoding": "mapping",
						"key": "t_address",
						"label": "mapping(address => uint256)",
						"numberOfBytes": "32",
						"value": "t_uint256"
					},
					"t_string_storage": {
						"encoding": "bytes",
						"label": "string",
						"numberOfBytes": "32"
					},
					"t_uint256": {
						"encoding": "inplace",
						"label": "uint256",
						"numberOfBytes": "32"
					}
				}
			},
			"userdoc": {
				"kind": "user",
				"methods": {},
				"version": 1
			}
		}
	}
}