{
	"gitpopu/solidity/Napolite/contracts/contracts/liquidityPool.sol": {
		"Pool": {
			"abi": [
				{
					"anonymous": false,
					"inputs": [
						{
							"indexed": false,
							"internalType": "string",
							"name": "message",
							"type": "string"
						}
					],
					"name": "Deposit",
					"type": "event"
				},
				{
					"inputs": [
						{
							"internalType": "address",
							"name": "token",
							"type": "address"
						},
						{
							"internalType": "uint256",
							"name": "amount",
							"type": "uint256"
						}
					],
					"name": "deposit",
					"outputs": [],
					"stateMutability": "nonpayable",
					"type": "function"
				},
				{
					"inputs": [
						{
							"internalType": "address",
							"name": "token",
							"type": "address"
						},
						{
							"internalType": "uint256",
							"name": "amount",
							"type": "uint256"
						}
					],
					"name": "withdrawal",
					"outputs": [],
					"stateMutability": "nonpayable",
					"type": "function"
				}
			],
			"devdoc": {
				"kind": "dev",
				"methods": {},
				"version": 1
			},
			"evm": {
				"assembly": "    /* \"gitpopu/solidity/Napolite/contracts/contracts/liquidityPool.sol\":979:1438  contract Pool {... */\n  mstore(0x40, 0x80)\n  callvalue\n  dup1\n  iszero\n  tag_1\n  jumpi\n  0x00\n  dup1\n  revert\ntag_1:\n  pop\n  dataSize(sub_0)\n  dup1\n  dataOffset(sub_0)\n  0x00\n  codecopy\n  0x00\n  return\nstop\n\nsub_0: assembly {\n        /* \"gitpopu/solidity/Napolite/contracts/contracts/liquidityPool.sol\":979:1438  contract Pool {... */\n      mstore(0x40, 0x80)\n      callvalue\n      dup1\n      iszero\n      tag_1\n      jumpi\n      0x00\n      dup1\n      revert\n    tag_1:\n      pop\n      jumpi(tag_2, lt(calldatasize, 0x04))\n      shr(0xe0, calldataload(0x00))\n      dup1\n      0x47e7ef24\n      eq\n      tag_3\n      jumpi\n      dup1\n      0x5a6b26ba\n      eq\n      tag_4\n      jumpi\n    tag_2:\n      0x00\n      dup1\n      revert\n        /* \"gitpopu/solidity/Napolite/contracts/contracts/liquidityPool.sol\":1096:1268  function deposit(address token, uint amount) public{... */\n    tag_3:\n      tag_5\n      0x04\n      dup1\n      calldatasize\n      sub\n      dup2\n      add\n      swap1\n      tag_6\n      swap2\n      swap1\n      tag_7\n      jump\t// in\n    tag_6:\n      tag_8\n      jump\t// in\n    tag_5:\n      stop\n        /* \"gitpopu/solidity/Napolite/contracts/contracts/liquidityPool.sol\":1275:1434  function withdrawal(address token, uint amount) public{... */\n    tag_4:\n      tag_9\n      0x04\n      dup1\n      calldatasize\n      sub\n      dup2\n      add\n      swap1\n      tag_10\n      swap2\n      swap1\n      tag_7\n      jump\t// in\n    tag_10:\n      tag_11\n      jump\t// in\n    tag_9:\n      stop\n        /* \"gitpopu/solidity/Napolite/contracts/contracts/liquidityPool.sol\":1096:1268  function deposit(address token, uint amount) public{... */\n    tag_8:\n        /* \"gitpopu/solidity/Napolite/contracts/contracts/liquidityPool.sol\":1163:1168  token */\n      dup2\n        /* \"gitpopu/solidity/Napolite/contracts/contracts/liquidityPool.sol\":1157:1182  ERC20(token).transferFrom */\n      0xffffffffffffffffffffffffffffffffffffffff\n      and\n      0x23b872dd\n        /* \"gitpopu/solidity/Napolite/contracts/contracts/liquidityPool.sol\":1183:1193  msg.sender */\n      caller\n        /* \"gitpopu/solidity/Napolite/contracts/contracts/liquidityPool.sol\":1203:1207  this */\n      address\n        /* \"gitpopu/solidity/Napolite/contracts/contracts/liquidityPool.sol\":1210:1216  amount */\n      dup5\n        /* \"gitpopu/solidity/Napolite/contracts/contracts/liquidityPool.sol\":1157:1217  ERC20(token).transferFrom(msg.sender, address(this), amount) */\n      mload(0x40)\n      dup5\n      0xffffffff\n      and\n      0xe0\n      shl\n      dup2\n      mstore\n      0x04\n      add\n      tag_13\n      swap4\n      swap3\n      swap2\n      swap1\n      tag_14\n      jump\t// in\n    tag_13:\n      0x00\n      mload(0x40)\n      dup1\n      dup4\n      sub\n      dup2\n      0x00\n      dup8\n      dup1\n      extcodesize\n      iszero\n      dup1\n      iszero\n      tag_15\n      jumpi\n      0x00\n      dup1\n      revert\n    tag_15:\n      pop\n      gas\n      call\n      iszero\n      dup1\n      iszero\n      tag_17\n      jumpi\n      returndatasize\n      0x00\n      dup1\n      returndatacopy\n      revert(0x00, returndatasize)\n    tag_17:\n      pop\n      pop\n      pop\n      pop\n        /* \"gitpopu/solidity/Napolite/contracts/contracts/liquidityPool.sol\":1233:1261  Deposit(\"deposit completed\") */\n      0x80dfa405646e0f90c813e8ee74f4f5f0a573809b1cb830e95cd1ebcbea04ccdc\n      mload(0x40)\n      tag_18\n      swap1\n      tag_19\n      jump\t// in\n    tag_18:\n      mload(0x40)\n      dup1\n      swap2\n      sub\n      swap1\n      log1\n        /* \"gitpopu/solidity/Napolite/contracts/contracts/liquidityPool.sol\":1096:1268  function deposit(address token, uint amount) public{... */\n      pop\n      pop\n      jump\t// out\n        /* \"gitpopu/solidity/Napolite/contracts/contracts/liquidityPool.sol\":1275:1434  function withdrawal(address token, uint amount) public{... */\n    tag_11:\n        /* \"gitpopu/solidity/Napolite/contracts/contracts/liquidityPool.sol\":1345:1350  token */\n      dup2\n        /* \"gitpopu/solidity/Napolite/contracts/contracts/liquidityPool.sol\":1339:1360  ERC20(token).transfer */\n      0xffffffffffffffffffffffffffffffffffffffff\n      and\n      0xa9059cbb\n        /* \"gitpopu/solidity/Napolite/contracts/contracts/liquidityPool.sol\":1361:1371  msg.sender */\n      caller\n        /* \"gitpopu/solidity/Napolite/contracts/contracts/liquidityPool.sol\":1373:1379  amount */\n      dup4\n        /* \"gitpopu/solidity/Napolite/contracts/contracts/liquidityPool.sol\":1339:1380  ERC20(token).transfer(msg.sender, amount) */\n      mload(0x40)\n      dup4\n      0xffffffff\n      and\n      0xe0\n      shl\n      dup2\n      mstore\n      0x04\n      add\n      tag_21\n      swap3\n      swap2\n      swap1\n      tag_22\n      jump\t// in\n    tag_21:\n      0x00\n      mload(0x40)\n      dup1\n      dup4\n      sub\n      dup2\n      0x00\n      dup8\n      dup1\n      extcodesize\n      iszero\n      dup1\n      iszero\n      tag_23\n      jumpi\n      0x00\n      dup1\n      revert\n    tag_23:\n      pop\n      gas\n      call\n      iszero\n      dup1\n      iszero\n      tag_25\n      jumpi\n      returndatasize\n      0x00\n      dup1\n      returndatacopy\n      revert(0x00, returndatasize)\n    tag_25:\n      pop\n      pop\n      pop\n      pop\n        /* \"gitpopu/solidity/Napolite/contracts/contracts/liquidityPool.sol\":1396:1427  Deposit(\"Withdrawal Completed\") */\n      0x80dfa405646e0f90c813e8ee74f4f5f0a573809b1cb830e95cd1ebcbea04ccdc\n      mload(0x40)\n      tag_26\n      swap1\n      tag_27\n      jump\t// in\n    tag_26:\n      mload(0x40)\n      dup1\n      swap2\n      sub\n      swap1\n      log1\n        /* \"gitpopu/solidity/Napolite/contracts/contracts/liquidityPool.sol\":1275:1434  function withdrawal(address token, uint amount) public{... */\n      pop\n      pop\n      jump\t// out\n        /* \"#utility.yul\":7:146   */\n    tag_29:\n        /* \"#utility.yul\":53:58   */\n      0x00\n        /* \"#utility.yul\":91:97   */\n      dup2\n        /* \"#utility.yul\":78:98   */\n      calldataload\n        /* \"#utility.yul\":69:98   */\n      swap1\n      pop\n        /* \"#utility.yul\":107:140   */\n      tag_31\n        /* \"#utility.yul\":134:139   */\n      dup2\n        /* \"#utility.yul\":107:140   */\n      tag_32\n      jump\t// in\n    tag_31:\n        /* \"#utility.yul\":7:146   */\n      swap3\n      swap2\n      pop\n      pop\n      jump\t// out\n        /* \"#utility.yul\":152:291   */\n    tag_33:\n        /* \"#utility.yul\":198:203   */\n      0x00\n        /* \"#utility.yul\":236:242   */\n      dup2\n        /* \"#utility.yul\":223:243   */\n      calldataload\n        /* \"#utility.yul\":214:243   */\n      swap1\n      pop\n        /* \"#utility.yul\":252:285   */\n      tag_35\n        /* \"#utility.yul\":279:284   */\n      dup2\n        /* \"#utility.yul\":252:285   */\n      tag_36\n      jump\t// in\n    tag_35:\n        /* \"#utility.yul\":152:291   */\n      swap3\n      swap2\n      pop\n      pop\n      jump\t// out\n        /* \"#utility.yul\":297:771   */\n    tag_7:\n        /* \"#utility.yul\":365:371   */\n      0x00\n        /* \"#utility.yul\":373:379   */\n      dup1\n        /* \"#utility.yul\":422:424   */\n      0x40\n        /* \"#utility.yul\":410:419   */\n      dup4\n        /* \"#utility.yul\":401:408   */\n      dup6\n        /* \"#utility.yul\":397:420   */\n      sub\n        /* \"#utility.yul\":393:425   */\n      slt\n        /* \"#utility.yul\":390:509   */\n      iszero\n      tag_38\n      jumpi\n        /* \"#utility.yul\":428:507   */\n      tag_39\n      tag_40\n      jump\t// in\n    tag_39:\n        /* \"#utility.yul\":390:509   */\n    tag_38:\n        /* \"#utility.yul\":548:549   */\n      0x00\n        /* \"#utility.yul\":573:626   */\n      tag_41\n        /* \"#utility.yul\":618:625   */\n      dup6\n        /* \"#utility.yul\":609:615   */\n      dup3\n        /* \"#utility.yul\":598:607   */\n      dup7\n        /* \"#utility.yul\":594:616   */\n      add\n        /* \"#utility.yul\":573:626   */\n      tag_29\n      jump\t// in\n    tag_41:\n        /* \"#utility.yul\":563:626   */\n      swap3\n      pop\n        /* \"#utility.yul\":519:636   */\n      pop\n        /* \"#utility.yul\":675:677   */\n      0x20\n        /* \"#utility.yul\":701:754   */\n      tag_42\n        /* \"#utility.yul\":746:753   */\n      dup6\n        /* \"#utility.yul\":737:743   */\n      dup3\n        /* \"#utility.yul\":726:735   */\n      dup7\n        /* \"#utility.yul\":722:744   */\n      add\n        /* \"#utility.yul\":701:754   */\n      tag_33\n      jump\t// in\n    tag_42:\n        /* \"#utility.yul\":691:754   */\n      swap2\n      pop\n        /* \"#utility.yul\":646:764   */\n      pop\n        /* \"#utility.yul\":297:771   */\n      swap3\n      pop\n      swap3\n      swap1\n      pop\n      jump\t// out\n        /* \"#utility.yul\":777:895   */\n    tag_43:\n        /* \"#utility.yul\":864:888   */\n      tag_45\n        /* \"#utility.yul\":882:887   */\n      dup2\n        /* \"#utility.yul\":864:888   */\n      tag_46\n      jump\t// in\n    tag_45:\n        /* \"#utility.yul\":859:862   */\n      dup3\n        /* \"#utility.yul\":852:889   */\n      mstore\n        /* \"#utility.yul\":777:895   */\n      pop\n      pop\n      jump\t// out\n        /* \"#utility.yul\":901:1267   */\n    tag_47:\n        /* \"#utility.yul\":1043:1046   */\n      0x00\n        /* \"#utility.yul\":1064:1131   */\n      tag_49\n        /* \"#utility.yul\":1128:1130   */\n      0x11\n        /* \"#utility.yul\":1123:1126   */\n      dup4\n        /* \"#utility.yul\":1064:1131   */\n      tag_50\n      jump\t// in\n    tag_49:\n        /* \"#utility.yul\":1057:1131   */\n      swap2\n      pop\n        /* \"#utility.yul\":1140:1233   */\n      tag_51\n        /* \"#utility.yul\":1229:1232   */\n      dup3\n        /* \"#utility.yul\":1140:1233   */\n      tag_52\n      jump\t// in\n    tag_51:\n        /* \"#utility.yul\":1258:1260   */\n      0x20\n        /* \"#utility.yul\":1253:1256   */\n      dup3\n        /* \"#utility.yul\":1249:1261   */\n      add\n        /* \"#utility.yul\":1242:1261   */\n      swap1\n      pop\n        /* \"#utility.yul\":901:1267   */\n      swap2\n      swap1\n      pop\n      jump\t// out\n        /* \"#utility.yul\":1273:1639   */\n    tag_53:\n        /* \"#utility.yul\":1415:1418   */\n      0x00\n        /* \"#utility.yul\":1436:1503   */\n      tag_55\n        /* \"#utility.yul\":1500:1502   */\n      0x14\n        /* \"#utility.yul\":1495:1498   */\n      dup4\n        /* \"#utility.yul\":1436:1503   */\n      tag_50\n      jump\t// in\n    tag_55:\n        /* \"#utility.yul\":1429:1503   */\n      swap2\n      pop\n        /* \"#utility.yul\":1512:1605   */\n      tag_56\n        /* \"#utility.yul\":1601:1604   */\n      dup3\n        /* \"#utility.yul\":1512:1605   */\n      tag_57\n      jump\t// in\n    tag_56:\n        /* \"#utility.yul\":1630:1632   */\n      0x20\n        /* \"#utility.yul\":1625:1628   */\n      dup3\n        /* \"#utility.yul\":1621:1633   */\n      add\n        /* \"#utility.yul\":1614:1633   */\n      swap1\n      pop\n        /* \"#utility.yul\":1273:1639   */\n      swap2\n      swap1\n      pop\n      jump\t// out\n        /* \"#utility.yul\":1645:1763   */\n    tag_58:\n        /* \"#utility.yul\":1732:1756   */\n      tag_60\n        /* \"#utility.yul\":1750:1755   */\n      dup2\n        /* \"#utility.yul\":1732:1756   */\n      tag_61\n      jump\t// in\n    tag_60:\n        /* \"#utility.yul\":1727:1730   */\n      dup3\n        /* \"#utility.yul\":1720:1757   */\n      mstore\n        /* \"#utility.yul\":1645:1763   */\n      pop\n      pop\n      jump\t// out\n        /* \"#utility.yul\":1769:2211   */\n    tag_14:\n        /* \"#utility.yul\":1918:1922   */\n      0x00\n        /* \"#utility.yul\":1956:1958   */\n      0x60\n        /* \"#utility.yul\":1945:1954   */\n      dup3\n        /* \"#utility.yul\":1941:1959   */\n      add\n        /* \"#utility.yul\":1933:1959   */\n      swap1\n      pop\n        /* \"#utility.yul\":1969:2040   */\n      tag_63\n        /* \"#utility.yul\":2037:2038   */\n      0x00\n        /* \"#utility.yul\":2026:2035   */\n      dup4\n        /* \"#utility.yul\":2022:2039   */\n      add\n        /* \"#utility.yul\":2013:2019   */\n      dup7\n        /* \"#utility.yul\":1969:2040   */\n      tag_43\n      jump\t// in\n    tag_63:\n        /* \"#utility.yul\":2050:2122   */\n      tag_64\n        /* \"#utility.yul\":2118:2120   */\n      0x20\n        /* \"#utility.yul\":2107:2116   */\n      dup4\n        /* \"#utility.yul\":2103:2121   */\n      add\n        /* \"#utility.yul\":2094:2100   */\n      dup6\n        /* \"#utility.yul\":2050:2122   */\n      tag_43\n      jump\t// in\n    tag_64:\n        /* \"#utility.yul\":2132:2204   */\n      tag_65\n        /* \"#utility.yul\":2200:2202   */\n      0x40\n        /* \"#utility.yul\":2189:2198   */\n      dup4\n        /* \"#utility.yul\":2185:2203   */\n      add\n        /* \"#utility.yul\":2176:2182   */\n      dup5\n        /* \"#utility.yul\":2132:2204   */\n      tag_58\n      jump\t// in\n    tag_65:\n        /* \"#utility.yul\":1769:2211   */\n      swap5\n      swap4\n      pop\n      pop\n      pop\n      pop\n      jump\t// out\n        /* \"#utility.yul\":2217:2549   */\n    tag_22:\n        /* \"#utility.yul\":2338:2342   */\n      0x00\n        /* \"#utility.yul\":2376:2378   */\n      0x40\n        /* \"#utility.yul\":2365:2374   */\n      dup3\n        /* \"#utility.yul\":2361:2379   */\n      add\n        /* \"#utility.yul\":2353:2379   */\n      swap1\n      pop\n        /* \"#utility.yul\":2389:2460   */\n      tag_67\n        /* \"#utility.yul\":2457:2458   */\n      0x00\n        /* \"#utility.yul\":2446:2455   */\n      dup4\n        /* \"#utility.yul\":2442:2459   */\n      add\n        /* \"#utility.yul\":2433:2439   */\n      dup6\n        /* \"#utility.yul\":2389:2460   */\n      tag_43\n      jump\t// in\n    tag_67:\n        /* \"#utility.yul\":2470:2542   */\n      tag_68\n        /* \"#utility.yul\":2538:2540   */\n      0x20\n        /* \"#utility.yul\":2527:2536   */\n      dup4\n        /* \"#utility.yul\":2523:2541   */\n      add\n        /* \"#utility.yul\":2514:2520   */\n      dup5\n        /* \"#utility.yul\":2470:2542   */\n      tag_58\n      jump\t// in\n    tag_68:\n        /* \"#utility.yul\":2217:2549   */\n      swap4\n      swap3\n      pop\n      pop\n      pop\n      jump\t// out\n        /* \"#utility.yul\":2555:2974   */\n    tag_19:\n        /* \"#utility.yul\":2721:2725   */\n      0x00\n        /* \"#utility.yul\":2759:2761   */\n      0x20\n        /* \"#utility.yul\":2748:2757   */\n      dup3\n        /* \"#utility.yul\":2744:2762   */\n      add\n        /* \"#utility.yul\":2736:2762   */\n      swap1\n      pop\n        /* \"#utility.yul\":2808:2817   */\n      dup2\n        /* \"#utility.yul\":2802:2806   */\n      dup2\n        /* \"#utility.yul\":2798:2818   */\n      sub\n        /* \"#utility.yul\":2794:2795   */\n      0x00\n        /* \"#utility.yul\":2783:2792   */\n      dup4\n        /* \"#utility.yul\":2779:2796   */\n      add\n        /* \"#utility.yul\":2772:2819   */\n      mstore\n        /* \"#utility.yul\":2836:2967   */\n      tag_70\n        /* \"#utility.yul\":2962:2966   */\n      dup2\n        /* \"#utility.yul\":2836:2967   */\n      tag_47\n      jump\t// in\n    tag_70:\n        /* \"#utility.yul\":2828:2967   */\n      swap1\n      pop\n        /* \"#utility.yul\":2555:2974   */\n      swap2\n      swap1\n      pop\n      jump\t// out\n        /* \"#utility.yul\":2980:3399   */\n    tag_27:\n        /* \"#utility.yul\":3146:3150   */\n      0x00\n        /* \"#utility.yul\":3184:3186   */\n      0x20\n        /* \"#utility.yul\":3173:3182   */\n      dup3\n        /* \"#utility.yul\":3169:3187   */\n      add\n        /* \"#utility.yul\":3161:3187   */\n      swap1\n      pop\n        /* \"#utility.yul\":3233:3242   */\n      dup2\n        /* \"#utility.yul\":3227:3231   */\n      dup2\n        /* \"#utility.yul\":3223:3243   */\n      sub\n        /* \"#utility.yul\":3219:3220   */\n      0x00\n        /* \"#utility.yul\":3208:3217   */\n      dup4\n        /* \"#utility.yul\":3204:3221   */\n      add\n        /* \"#utility.yul\":3197:3244   */\n      mstore\n        /* \"#utility.yul\":3261:3392   */\n      tag_72\n        /* \"#utility.yul\":3387:3391   */\n      dup2\n        /* \"#utility.yul\":3261:3392   */\n      tag_53\n      jump\t// in\n    tag_72:\n        /* \"#utility.yul\":3253:3392   */\n      swap1\n      pop\n        /* \"#utility.yul\":2980:3399   */\n      swap2\n      swap1\n      pop\n      jump\t// out\n        /* \"#utility.yul\":3486:3655   */\n    tag_50:\n        /* \"#utility.yul\":3570:3581   */\n      0x00\n        /* \"#utility.yul\":3604:3610   */\n      dup3\n        /* \"#utility.yul\":3599:3602   */\n      dup3\n        /* \"#utility.yul\":3592:3611   */\n      mstore\n        /* \"#utility.yul\":3644:3648   */\n      0x20\n        /* \"#utility.yul\":3639:3642   */\n      dup3\n        /* \"#utility.yul\":3635:3649   */\n      add\n        /* \"#utility.yul\":3620:3649   */\n      swap1\n      pop\n        /* \"#utility.yul\":3486:3655   */\n      swap3\n      swap2\n      pop\n      pop\n      jump\t// out\n        /* \"#utility.yul\":3661:3757   */\n    tag_46:\n        /* \"#utility.yul\":3698:3705   */\n      0x00\n        /* \"#utility.yul\":3727:3751   */\n      tag_77\n        /* \"#utility.yul\":3745:3750   */\n      dup3\n        /* \"#utility.yul\":3727:3751   */\n      tag_78\n      jump\t// in\n    tag_77:\n        /* \"#utility.yul\":3716:3751   */\n      swap1\n      pop\n        /* \"#utility.yul\":3661:3757   */\n      swap2\n      swap1\n      pop\n      jump\t// out\n        /* \"#utility.yul\":3763:3889   */\n    tag_78:\n        /* \"#utility.yul\":3800:3807   */\n      0x00\n        /* \"#utility.yul\":3840:3882   */\n      0xffffffffffffffffffffffffffffffffffffffff\n        /* \"#utility.yul\":3833:3838   */\n      dup3\n        /* \"#utility.yul\":3829:3883   */\n      and\n        /* \"#utility.yul\":3818:3883   */\n      swap1\n      pop\n        /* \"#utility.yul\":3763:3889   */\n      swap2\n      swap1\n      pop\n      jump\t// out\n        /* \"#utility.yul\":3895:3972   */\n    tag_61:\n        /* \"#utility.yul\":3932:3939   */\n      0x00\n        /* \"#utility.yul\":3961:3966   */\n      dup2\n        /* \"#utility.yul\":3950:3966   */\n      swap1\n      pop\n        /* \"#utility.yul\":3895:3972   */\n      swap2\n      swap1\n      pop\n      jump\t// out\n        /* \"#utility.yul\":4101:4218   */\n    tag_40:\n        /* \"#utility.yul\":4210:4211   */\n      0x00\n        /* \"#utility.yul\":4207:4208   */\n      dup1\n        /* \"#utility.yul\":4200:4212   */\n      revert\n        /* \"#utility.yul\":4224:4391   */\n    tag_52:\n        /* \"#utility.yul\":4364:4383   */\n      0x6465706f73697420636f6d706c65746564000000000000000000000000000000\n        /* \"#utility.yul\":4360:4361   */\n      0x00\n        /* \"#utility.yul\":4352:4358   */\n      dup3\n        /* \"#utility.yul\":4348:4362   */\n      add\n        /* \"#utility.yul\":4341:4384   */\n      mstore\n        /* \"#utility.yul\":4224:4391   */\n      pop\n      jump\t// out\n        /* \"#utility.yul\":4397:4567   */\n    tag_57:\n        /* \"#utility.yul\":4537:4559   */\n      0x5769746864726177616c20436f6d706c65746564000000000000000000000000\n        /* \"#utility.yul\":4533:4534   */\n      0x00\n        /* \"#utility.yul\":4525:4531   */\n      dup3\n        /* \"#utility.yul\":4521:4535   */\n      add\n        /* \"#utility.yul\":4514:4560   */\n      mstore\n        /* \"#utility.yul\":4397:4567   */\n      pop\n      jump\t// out\n        /* \"#utility.yul\":4573:4695   */\n    tag_32:\n        /* \"#utility.yul\":4646:4670   */\n      tag_87\n        /* \"#utility.yul\":4664:4669   */\n      dup2\n        /* \"#utility.yul\":4646:4670   */\n      tag_46\n      jump\t// in\n    tag_87:\n        /* \"#utility.yul\":4639:4644   */\n      dup2\n        /* \"#utility.yul\":4636:4671   */\n      eq\n        /* \"#utility.yul\":4626:4689   */\n      tag_88\n      jumpi\n        /* \"#utility.yul\":4685:4686   */\n      0x00\n        /* \"#utility.yul\":4682:4683   */\n      dup1\n        /* \"#utility.yul\":4675:4687   */\n      revert\n        /* \"#utility.yul\":4626:4689   */\n    tag_88:\n        /* \"#utility.yul\":4573:4695   */\n      pop\n      jump\t// out\n        /* \"#utility.yul\":4701:4823   */\n    tag_36:\n        /* \"#utility.yul\":4774:4798   */\n      tag_90\n        /* \"#utility.yul\":4792:4797   */\n      dup2\n        /* \"#utility.yul\":4774:4798   */\n      tag_61\n      jump\t// in\n    tag_90:\n        /* \"#utility.yul\":4767:4772   */\n      dup2\n        /* \"#utility.yul\":4764:4799   */\n      eq\n        /* \"#utility.yul\":4754:4817   */\n      tag_91\n      jumpi\n        /* \"#utility.yul\":4813:4814   */\n      0x00\n        /* \"#utility.yul\":4810:4811   */\n      dup1\n        /* \"#utility.yul\":4803:4815   */\n      revert\n        /* \"#utility.yul\":4754:4817   */\n    tag_91:\n        /* \"#utility.yul\":4701:4823   */\n      pop\n      jump\t// out\n\n    auxdata: 0xa26469706673582212202196c1ca4270c9c1c8085c3c37a09f8980cede062239052286a63353912641b864736f6c63430008070033\n}\n",
				"bytecode": {
					"linkReferences": {},
					"object": "608060405234801561001057600080fd5b50610437806100206000396000f3fe608060405234801561001057600080fd5b50600436106100365760003560e01c806347e7ef241461003b5780635a6b26ba14610057575b600080fd5b610055600480360381019061005091906101eb565b610073565b005b610071600480360381019061006c91906101eb565b61011b565b005b8173ffffffffffffffffffffffffffffffffffffffff166323b872dd3330846040518463ffffffff1660e01b81526004016100b09392919061028f565b600060405180830381600087803b1580156100ca57600080fd5b505af11580156100de573d6000803e3d6000fd5b505050507f80dfa405646e0f90c813e8ee74f4f5f0a573809b1cb830e95cd1ebcbea04ccdc60405161010f906102ef565b60405180910390a15050565b8173ffffffffffffffffffffffffffffffffffffffff1663a9059cbb33836040518363ffffffff1660e01b81526004016101569291906102c6565b600060405180830381600087803b15801561017057600080fd5b505af1158015610184573d6000803e3d6000fd5b505050507f80dfa405646e0f90c813e8ee74f4f5f0a573809b1cb830e95cd1ebcbea04ccdc6040516101b59061030f565b60405180910390a15050565b6000813590506101d0816103d3565b92915050565b6000813590506101e5816103ea565b92915050565b600080604083850312156102025761020161037c565b5b6000610210858286016101c1565b9250506020610221858286016101d6565b9150509250929050565b61023481610340565b82525050565b600061024760118361032f565b915061025282610381565b602082019050919050565b600061026a60148361032f565b9150610275826103aa565b602082019050919050565b61028981610372565b82525050565b60006060820190506102a4600083018661022b565b6102b1602083018561022b565b6102be6040830184610280565b949350505050565b60006040820190506102db600083018561022b565b6102e86020830184610280565b9392505050565b600060208201905081810360008301526103088161023a565b9050919050565b600060208201905081810360008301526103288161025d565b9050919050565b600082825260208201905092915050565b600061034b82610352565b9050919050565b600073ffffffffffffffffffffffffffffffffffffffff82169050919050565b6000819050919050565b600080fd5b7f6465706f73697420636f6d706c65746564000000000000000000000000000000600082015250565b7f5769746864726177616c20436f6d706c65746564000000000000000000000000600082015250565b6103dc81610340565b81146103e757600080fd5b50565b6103f381610372565b81146103fe57600080fd5b5056fea26469706673582212202196c1ca4270c9c1c8085c3c37a09f8980cede062239052286a63353912641b864736f6c63430008070033",
					"opcodes": "PUSH1 0x80 PUSH1 0x40 MSTORE CALLVALUE DUP1 ISZERO PUSH2 0x10 JUMPI PUSH1 0x0 DUP1 REVERT JUMPDEST POP PUSH2 0x437 DUP1 PUSH2 0x20 PUSH1 0x0 CODECOPY PUSH1 0x0 RETURN INVALID PUSH1 0x80 PUSH1 0x40 MSTORE CALLVALUE DUP1 ISZERO PUSH2 0x10 JUMPI PUSH1 0x0 DUP1 REVERT JUMPDEST POP PUSH1 0x4 CALLDATASIZE LT PUSH2 0x36 JUMPI PUSH1 0x0 CALLDATALOAD PUSH1 0xE0 SHR DUP1 PUSH4 0x47E7EF24 EQ PUSH2 0x3B JUMPI DUP1 PUSH4 0x5A6B26BA EQ PUSH2 0x57 JUMPI JUMPDEST PUSH1 0x0 DUP1 REVERT JUMPDEST PUSH2 0x55 PUSH1 0x4 DUP1 CALLDATASIZE SUB DUP2 ADD SWAP1 PUSH2 0x50 SWAP2 SWAP1 PUSH2 0x1EB JUMP JUMPDEST PUSH2 0x73 JUMP JUMPDEST STOP JUMPDEST PUSH2 0x71 PUSH1 0x4 DUP1 CALLDATASIZE SUB DUP2 ADD SWAP1 PUSH2 0x6C SWAP2 SWAP1 PUSH2 0x1EB JUMP JUMPDEST PUSH2 0x11B JUMP JUMPDEST STOP JUMPDEST DUP2 PUSH20 0xFFFFFFFFFFFFFFFFFFFFFFFFFFFFFFFFFFFFFFFF AND PUSH4 0x23B872DD CALLER ADDRESS DUP5 PUSH1 0x40 MLOAD DUP5 PUSH4 0xFFFFFFFF AND PUSH1 0xE0 SHL DUP2 MSTORE PUSH1 0x4 ADD PUSH2 0xB0 SWAP4 SWAP3 SWAP2 SWAP1 PUSH2 0x28F JUMP JUMPDEST PUSH1 0x0 PUSH1 0x40 MLOAD DUP1 DUP4 SUB DUP2 PUSH1 0x0 DUP8 DUP1 EXTCODESIZE ISZERO DUP1 ISZERO PUSH2 0xCA JUMPI PUSH1 0x0 DUP1 REVERT JUMPDEST POP GAS CALL ISZERO DUP1 ISZERO PUSH2 0xDE JUMPI RETURNDATASIZE PUSH1 0x0 DUP1 RETURNDATACOPY RETURNDATASIZE PUSH1 0x0 REVERT JUMPDEST POP POP POP POP PUSH32 0x80DFA405646E0F90C813E8EE74F4F5F0A573809B1CB830E95CD1EBCBEA04CCDC PUSH1 0x40 MLOAD PUSH2 0x10F SWAP1 PUSH2 0x2EF JUMP JUMPDEST PUSH1 0x40 MLOAD DUP1 SWAP2 SUB SWAP1 LOG1 POP POP JUMP JUMPDEST DUP2 PUSH20 0xFFFFFFFFFFFFFFFFFFFFFFFFFFFFFFFFFFFFFFFF AND PUSH4 0xA9059CBB CALLER DUP4 PUSH1 0x40 MLOAD DUP4 PUSH4 0xFFFFFFFF AND PUSH1 0xE0 SHL DUP2 MSTORE PUSH1 0x4 ADD PUSH2 0x156 SWAP3 SWAP2 SWAP1 PUSH2 0x2C6 JUMP JUMPDEST PUSH1 0x0 PUSH1 0x40 MLOAD DUP1 DUP4 SUB DUP2 PUSH1 0x0 DUP8 DUP1 EXTCODESIZE ISZERO DUP1 ISZERO PUSH2 0x170 JUMPI PUSH1 0x0 DUP1 REVERT JUMPDEST POP GAS CALL ISZERO DUP1 ISZERO PUSH2 0x184 JUMPI RETURNDATASIZE PUSH1 0x0 DUP1 RETURNDATACOPY RETURNDATASIZE PUSH1 0x0 REVERT JUMPDEST POP POP POP POP PUSH32 0x80DFA405646E0F90C813E8EE74F4F5F0A573809B1CB830E95CD1EBCBEA04CCDC PUSH1 0x40 MLOAD PUSH2 0x1B5 SWAP1 PUSH2 0x30F JUMP JUMPDEST PUSH1 0x40 MLOAD DUP1 SWAP2 SUB SWAP1 LOG1 POP POP JUMP JUMPDEST PUSH1 0x0 DUP2 CALLDATALOAD SWAP1 POP PUSH2 0x1D0 DUP2 PUSH2 0x3D3 JUMP JUMPDEST SWAP3 SWAP2 POP POP JUMP JUMPDEST PUSH1 0x0 DUP2 CALLDATALOAD SWAP1 POP PUSH2 0x1E5 DUP2 PUSH2 0x3EA JUMP JUMPDEST SWAP3 SWAP2 POP POP JUMP JUMPDEST PUSH1 0x0 DUP1 PUSH1 0x40 DUP4 DUP6 SUB SLT ISZERO PUSH2 0x202 JUMPI PUSH2 0x201 PUSH2 0x37C JUMP JUMPDEST JUMPDEST PUSH1 0x0 PUSH2 0x210 DUP6 DUP3 DUP7 ADD PUSH2 0x1C1 JUMP JUMPDEST SWAP3 POP POP PUSH1 0x20 PUSH2 0x221 DUP6 DUP3 DUP7 ADD PUSH2 0x1D6 JUMP JUMPDEST SWAP2 POP POP SWAP3 POP SWAP3 SWAP1 POP JUMP JUMPDEST PUSH2 0x234 DUP2 PUSH2 0x340 JUMP JUMPDEST DUP3 MSTORE POP POP JUMP JUMPDEST PUSH1 0x0 PUSH2 0x247 PUSH1 0x11 DUP4 PUSH2 0x32F JUMP JUMPDEST SWAP2 POP PUSH2 0x252 DUP3 PUSH2 0x381 JUMP JUMPDEST PUSH1 0x20 DUP3 ADD SWAP1 POP SWAP2 SWAP1 POP JUMP JUMPDEST PUSH1 0x0 PUSH2 0x26A PUSH1 0x14 DUP4 PUSH2 0x32F JUMP JUMPDEST SWAP2 POP PUSH2 0x275 DUP3 PUSH2 0x3AA JUMP JUMPDEST PUSH1 0x20 DUP3 ADD SWAP1 POP SWAP2 SWAP1 POP JUMP JUMPDEST PUSH2 0x289 DUP2 PUSH2 0x372 JUMP JUMPDEST DUP3 MSTORE POP POP JUMP JUMPDEST PUSH1 0x0 PUSH1 0x60 DUP3 ADD SWAP1 POP PUSH2 0x2A4 PUSH1 0x0 DUP4 ADD DUP7 PUSH2 0x22B JUMP JUMPDEST PUSH2 0x2B1 PUSH1 0x20 DUP4 ADD DUP6 PUSH2 0x22B JUMP JUMPDEST PUSH2 0x2BE PUSH1 0x40 DUP4 ADD DUP5 PUSH2 0x280 JUMP JUMPDEST SWAP5 SWAP4 POP POP POP POP JUMP JUMPDEST PUSH1 0x0 PUSH1 0x40 DUP3 ADD SWAP1 POP PUSH2 0x2DB PUSH1 0x0 DUP4 ADD DUP6 PUSH2 0x22B JUMP JUMPDEST PUSH2 0x2E8 PUSH1 0x20 DUP4 ADD DUP5 PUSH2 0x280 JUMP JUMPDEST SWAP4 SWAP3 POP POP POP JUMP JUMPDEST PUSH1 0x0 PUSH1 0x20 DUP3 ADD SWAP1 POP DUP2 DUP2 SUB PUSH1 0x0 DUP4 ADD MSTORE PUSH2 0x308 DUP2 PUSH2 0x23A JUMP JUMPDEST SWAP1 POP SWAP2 SWAP1 POP JUMP JUMPDEST PUSH1 0x0 PUSH1 0x20 DUP3 ADD SWAP1 POP DUP2 DUP2 SUB PUSH1 0x0 DUP4 ADD MSTORE PUSH2 0x328 DUP2 PUSH2 0x25D JUMP JUMPDEST SWAP1 POP SWAP2 SWAP1 POP JUMP JUMPDEST PUSH1 0x0 DUP3 DUP3 MSTORE PUSH1 0x20 DUP3 ADD SWAP1 POP SWAP3 SWAP2 POP POP JUMP JUMPDEST PUSH1 0x0 PUSH2 0x34B DUP3 PUSH2 0x352 JUMP JUMPDEST SWAP1 POP SWAP2 SWAP1 POP JUMP JUMPDEST PUSH1 0x0 PUSH20 0xFFFFFFFFFFFFFFFFFFFFFFFFFFFFFFFFFFFFFFFF DUP3 AND SWAP1 POP SWAP2 SWAP1 POP JUMP JUMPDEST PUSH1 0x0 DUP2 SWAP1 POP SWAP2 SWAP1 POP JUMP JUMPDEST PUSH1 0x0 DUP1 REVERT JUMPDEST PUSH32 0x6465706F73697420636F6D706C65746564000000000000000000000000000000 PUSH1 0x0 DUP3 ADD MSTORE POP JUMP JUMPDEST PUSH32 0x5769746864726177616C20436F6D706C65746564000000000000000000000000 PUSH1 0x0 DUP3 ADD MSTORE POP JUMP JUMPDEST PUSH2 0x3DC DUP2 PUSH2 0x340 JUMP JUMPDEST DUP2 EQ PUSH2 0x3E7 JUMPI PUSH1 0x0 DUP1 REVERT JUMPDEST POP JUMP JUMPDEST PUSH2 0x3F3 DUP2 PUSH2 0x372 JUMP JUMPDEST DUP2 EQ PUSH2 0x3FE JUMPI PUSH1 0x0 DUP1 REVERT JUMPDEST POP JUMP INVALID LOG2 PUSH5 0x6970667358 0x22 SLT KECCAK256 0x21 SWAP7 0xC1 0xCA TIMESTAMP PUSH17 0xC9C1C8085C3C37A09F8980CEDE06223905 0x22 DUP7 0xA6 CALLER MSTORE8 SWAP2 0x26 COINBASE 0xB8 PUSH5 0x736F6C6343 STOP ADDMOD SMOD STOP CALLER "
				},
				"gasEstimates": {
					"creation": {
						"codeDepositCost": "215800",
						"executionCost": "257",
						"totalCost": "216057"
					},
					"external": {
						"deposit(address,uint256)": "infinite",
						"withdrawal(address,uint256)": "infinite"
					}
				},
				"methodIdentifiers": {
					"deposit(address,uint256)": "47e7ef24",
					"withdrawal(address,uint256)": "5a6b26ba"
				}
			},
			"storageLayout": {
				"storage": [],
				"types": null
			},
			"userdoc": {
				"kind": "user",
				"methods": {},
				"version": 1
			}
		}
	}
}